:020000040800F2
:100000004862012031020008875F00084D4B00085C
:10001000835F00083D110008F5680008000000003B
:10002000000000000000000000000000990100082E
:10003000DB17000800000000DD010008E160000897
:100040004B0200084B0200084B0200084B0200085C
:100050004B0200084B0200084B0200084B0200084C
:100060004B0200084B0200084B0200084B0200083C
:100070004B0200084B0200084B0200084B0200082C
:100080004B0200084B0200084B0200084B0200081C
:100090004B0200084B0200084B0200084B0200080C
:1000A0004B0200084B0200084B0200084B020008FC
:1000B0004B0200084B0200084B0200084B020008EC
:1000C0004B0200084B0200084B0200084B020008DC
:1000D0004B020008C5680008D56800084B020008FC
:1000E0004B0200084B0200084B0200084B020008BC
:1000F0004B0200084B0200084B0200084B020008AC
:100100004B0200084B020008ED6000084B0200089B
:10011000296400084B0200084B0200084B0200084B
:10012000A11600084B0200084B0200084B02000811
:100130004B02000800000000000000004B02000815
:100140004B0200084B0200084B0200084B0200085B
:10015000B11600084B020008C1160008E568000847
:100160004B0200084B0200084B0200084B0200083B
:100170004B0200084B0200080000000000000000D5
:100180004B020008DFF80CD000F04EFD004800479D
:10019000A17F000848620120224B19680868B0E876
:1001A000F00F80F30988BFF36F8F4FF0000080F3EA
:1001B00011884EF00D0E70470000000006480068E0
:1001C000006880F3088862B661B6BFF34F8FBFF353
:1001D0006F8F00DF00BF00BF08ED00E0EFF3098084
:1001E000BFF36F8F0F4B1A6820E9F00F106008B54E
:1001F0004FF0BF0080F31188BFF34F8FBFF36F8FB5
:100200000AF09CFE4FF0000080F31188BDE8084022
:1002100019680868B0E8F00F80F30988BFF36F8FA2
:10022000704700BFEC000020EFF30580704700002E
:100230000648804706480047FEE7FEE7FEE7FEE780
:10024000FEE7FEE7FEE7FEE7FEE7FEE7E9600008FF
:10025000850100082DE9F05F0546002092469B4687
:1002600088460646814640241BE0284641464746CC
:10027000224600F04CFB53465A46C01A914110D317
:1002800011461846224600F033FB2D1A67EB010891
:100290004F4622460120002100F02AFB17EB0009FF
:1002A0004E41201EA4F10104DFDC484631462A46B7
:1002B0004346BDE8F09FA0F14101192900D8203044
:1002C000704740EA01039B0703D009E008C9121FE9
:1002D00008C0042AFAD203E011F8013B00F8013B00
:1002E000521EF9D27047D2B201E000F8012B491E2C
:1002F000FBD270470022F6E710B513460A460446C3
:100300001946FFF7F0FF204610BD30B505462A46D6
:100310000B4612F8010B13F8014B08B1A042F8D0BC
:100320001CB1002802D06D1CF1E7284630BDCAB2CE
:10033000401E10F8011F8A4202D00029F9D1002086
:100340007047421C10F8011B0029FBD1801A70472E
:1003500010B5044600E0401C0378002BFBD100E000
:10036000401C521E04D311F8013B0370002BF7D13F
:1003700000210170204610BD30B50546002003461F
:1003800000E05B1C934205D2EC5CC85C201A01D1F2
:10039000002CF6D130BD70B5064606F001FB0468AE
:1003A00005460A220021304600F0D3FA2C6070BDC9
:1003B000F0B480EA0102D40F4200B2EB410F02D246
:1003C0000246084611464A0042D0C30DDDB2C1F3D1
:1003D000C752AD1A202D35DAC1F3160141F40002DF
:1003E00004B15242C5F1200602FA06F12A41104436
:1003F000B3EBD05F23D0C4B1012DA0EBC35009DC17
:10040000F0BC4FF0004202EAC352DBB200F500003C
:1004100000F0E0BA400000F1807000EBC350A0F1A2
:10042000807040EAD170490009E0490841EAC07192
:10043000A0EBC35000F50000400800EBC350F0BC37
:1004400000F0BFBA6142012202EB4101001BF6E756
:10045000F0BC704781F00041AAE780F00040A7E7B8
:1004600080EA010210B502F00043400022D04A00A9
:100470001FD0010E01EB1261C0F35600C2F3560209
:1004800040F4000042F40002A0FB022000047F3987
:10049000140400D0401C50EA124001D44000491E10
:1004A000C2B20C0604EBD010401C4008802A02D0D7
:1004B00003E0002010BD20F00100002900DA002038
:1004C000184310BD30B480EA010202F0004530F05C
:1004D000004221F0004013D090B1C30DD40DC2F3FF
:1004E0001601C0F31600E41A41F4000140F40002C2
:1004F0007D34914201D3641C00E04900002C02DAF3
:1005000030BC002070474FF400000023914201D31B
:10051000891A034340084FEA4101F7D151B1914292
:1005200002D14FF0004105E002D24FF0010101E09D
:100530006FF0010103EBC450284430BC00F041BA15
:100540002DE9FE4F804681EA0300C00F0C46009063
:1005500021F0004123F00045B8EB0200A94105D28B
:100560004046214690461C460B46024623F000407A
:10057000104347D0270DC7F30A00C3F30A51029076
:10058000401A019040286BDAC3F3130040F4801B3B
:100590000098924620B10023D2EB030A63EB0B0BC9
:1005A00001985946C0F14002504600F0A1F90646B4
:1005B0000D4650465946019A00F0B9F910EB080073
:1005C0006141002487EA115284EAE7731A4340D05C
:1005D000009A62B3019A012A4FEA075215DC001B08
:1005E00061EB02014FF0004202EA0752CDE90042FE
:1005F000001C41F5801132462B4600F028FA03B06A
:10060000BDE8F08F40462146F9E7001B61EB02018F
:10061000001C41F5801300185B412018A2F500175B
:1006200047EB030140EAD570B6196D4111E06D0842
:100630004FEA360645EAC0754FEA0752001B61EBE8
:100640000201001C41F5801149084FEA30000019F1
:10065000514132462B4603B0BDE8F04F00F0E8B9F7
:100660000098012240000023D0EB020263EBE0730C
:10067000009821464FEAE074B8EB000061EB0401FA
:10068000E9E783F000435BE781F0004158E72DE99B
:10069000FE4F81EA030404F0004421F0004100947D
:1006A0004FF0000B23F0004350EA01045ED052EA01
:1006B00003045BD0C3F30A54C1F30A552C44A4F2DB
:1006C000F3340194A0FB0254C1F3130141F48011EF
:1006D000C3F3130343F4801301FB024400FB034EF6
:1006E000840A970A44EA815447EA8357A4FB0768BF
:1006F00002958D0A05FB07854FEA932C04FB0C54E9
:100700002705029D4FEA065847EA1637B5EB08055C
:100710006EEB070C870E920E47EA811742EA8312AE
:10072000A7FB0201B6EB0B0164EB00042B0D43EABF
:100730000C335E1844EB1C50DA465146E7FB0201CD
:10074000C5F313044FEA0B3343EA14534FEA043260
:10075000019C43EA0603A4F10C040294009CCDE939
:1007600000B400F074F903B0BDE8F08F002001463A
:10077000F9E796230022114600F02CB90EB5C10FFF
:1007800080EAE0700844CA07002140F233438DE854
:100790000E000A460B4600F05AF903B000BD00F007
:1007A000004220F00040C10DC0F3160040F40000EC
:1007B0007F2901DA00207047962903DCC1F19601F8
:1007C000C84001E096398840002AF4D04042704782
:1007D00070B5C1F30A5201F000450024C1F31301C2
:1007E00040F2FF3341F480119A4201DA002070BDDB
:1007F00040F233439A42A2F2334203DC524200F009
:1008000086F800E090402C43F1D0404270BD00F0EB
:10081000004230F000400AD0C10D01F56071C0F314
:10082000160042EA0151C2084007114370470020F8
:100830000146704730B5041E71F1000404DB4FF02F
:100840000044404264EB0101141E73F1000405DB17
:100850001C464FF00043524263EB0403994208BF29
:10086000904230BD01F0004330B421F0004150EA25
:10087000010206D00A0DA2F56072C1F31301002A2D
:1008800002DC30BC00207047440F44EAC104C100C0
:10089000E01830BC00EBC25000F093B8002801DB38
:1008A000C0F10040002901DBC1F1004181427047E5
:1008B000002801DBC0F10040002901DBC1F100414B
:1008C0008842704730B50B460146002020220124A3
:1008D00009E021FA02F59D4205D303FA02F5491B0E
:1008E00004FA02F52844151EA2F10102F1DC30BD24
:1008F000202A04DB203A00FA02F1002070479140E0
:10090000C2F1200320FA03F3194390407047202AD4
:1009100004DB203A21FA02F00021704721FA02F3A9
:10092000D040C2F120029140084319467047202A66
:1009300006DBCB17203A41FA02F043EAE07306E007
:1009400041FA02F3D040C2F1200291400843194617
:1009500070472DE9F04791460F4680460446002631
:1009600014F8015B2DB100F071F90068405DC0071B
:10097000F6D12B2D02D02D2D18D0641E4A463946B3
:10098000204600F067F927B13968A14201D1C7F8C4
:10099000008071054FF002040BD54042002803DDB2
:1009A00005F0FEFF0460A007BDE8F08746F480660E
:1009B000E4E70028F8DA05F0F3FF04606FF0004088
:1009C000F2E70029A8BF7047401C490008BF20F08B
:1009D0000100704710B4B0FA80FC00FA0CF050EA45
:1009E000010404BF10BC704749B1CCF1200421FAC6
:1009F00004F411FA0CF118BF012121430843A3EBC1
:100A00000C01CB1D4FEA00614FEA102042BF0020CD
:100A100010BC704700EBC35010440029A4BF10BCA9
:100A20007047401C490008BF20F0010010BC70470F
:100A300010B5141E73F1000408DA401C41F10001E6
:100A400092185B411A4301D120F0010010BD2DE93D
:100A5000F04D92469B4611B1B1FA81F202E0B0FA34
:100A600080F220329046FFF743FF04460F4640EAEB
:100A70000A0041EA0B0153465A46084313D0114677
:100A800053EA010019D0C8F140025046FFF73FFF7A
:100A900005460E46504659464246FFF729FF084391
:100AA00005D0012004E020463946BDE8F08D002045
:100AB000054346EAE0762C4337430A986305E40A87
:100AC000A0EB08000022FD0A44EA47540A3002D590
:100AD00000200146E9E7010510196941DDE90845F3
:100AE00000196941BDE8F04DA2E72DE9F04D81EA1A
:100AF000030404F0004B21F0004514464FF0000AB7
:100B000023F0004150EA050220D054EA01021DD032
:100B1000C5F30A570246C5F31303C1F31300C1F32B
:100B20000A5640F4801543F48013A7EB0608101B07
:100B3000D64608F2FD3873EB050002D308F1010830
:100B400001E092185B41B8F1000F03DA0020014682
:100B5000BDE8F08D00204FF48011064684460EE07B
:100B6000171B73EB050705D3121B63EB0503064345
:100B70004CEA010C49084FEA300092185B4150EAF8
:100B80000107EDD152EA030012D082EA040083EAA1
:100B90000501084305D0101BAB4106D201220023FA
:100BA00006E000224FF0004302E06FF00102531014
:100BB0001AEB06004CEB085110EB0A0041EB0B015D
:100BC000BDE8F04DFFF734BF70B521F0004303439B
:100BD0000CD0C1F30A550024D5EB040564EB0403E3
:100BE000D617AD1AB34102DB0020014670BD2018B4
:100BF00041EB025170BDC1F30A52C1F3130140F23F
:100C0000FF3341F480119A4202DA00200146704716
:100C100040F233439A42A2F2334202DC5242FFF7DF
:100C200076BEFFF765BE0000064C074D06E0E068A3
:100C300040F0010394E8070098471034AC42F6D323
:100C4000FFF7A4FAD0CA0008F0CA000800487047AD
:100C5000B4CA00082DE9F05F8246007800271546E7
:100C60008B460AF10104B946302801D09DB113E04A
:100C700014F8010B0127782803D0582801D045B17A
:100C80000AE00DB1102D07D10027102514F8010B33
:100C900002E0082500E00A250026B0460EE005FB2C
:100CA000080005FB06F1012701EB10461FFA80F84A
:100CB000B6F5803F00D3B94614F8010B294600F081
:100CC00069F80028EBDABBF1000F05D00FB1641E04
:100CD00000E05446CBF80040B9F1000F06D005F013
:100CE0005FFE02210160C81EBDE8F09F48EA064091
:100CF000FAE72DE9F04D00231A461B1A8A4103DB5F
:100D000000200146BDE8F08DC1F30A52C1F3130182
:100D100041F480154FF0000BD10702D100186D414E
:100D2000521E0027044640F2FF11384601EB620ACA
:100D30003E468046024600204FF48011FFF7E7FD53
:100D4000C2197141BB1846EB0100B4EB030C75EB03
:100D5000000C04D3E41A65EB000517460E4624196F
:100D600008F101006D4180463428E3DDF91946EBB6
:100D70000600091BA84103D24FF0FF32134601E0E1
:100D8000002213461BEB070046EB0A51BDE8F04D6D
:100D9000FFF74EBE3A2800D2303820F02002412A18
:100DA00001D3A2F13700884201D34FF0FF307047E2
:100DB00030B58C1810F8012B12F00F0301D110F888
:100DC000013B120906D110F8012B03E010F8015B7A
:100DD00001F8015B5B1EF9D101E001F8013B521EF5
:100DE000FBD1A142E6D3002030BD70B50546AC6B07
:100DF000206C00F0500050BB206C40F40070206468
:100E00002068806800F04050E8B9207ED8B920689A
:100E1000C06A00F4700020B12068806800F480602F
:100E200088B92068406820F0200021684860206C64
:100E300020F480702064206C00F4805018B9206C7D
:100E400040F001002064204600F0B4FF0BE0206C6D
:100E500000F0100018B1204600F0AEFF03E0A06BD8
:100E6000C16C2846884770BD70B50546AC6B402004
:100E70002064606C40F004006064204600F09CFF39
:100E800070BD70B50446A56B284600F094FF70BD98
:100E90005B49096821F440315A4AC2F804131146EB
:100EA000D1F8041342681143554A1160016849683A
:100EB00021F480710268516001684A68016942EA60
:100EC0000121026851600168496821F0407102689F
:100ED0005160016849688268114302685160016885
:100EE000896821F400610268916001688968C268BC
:100EF000114302689160444A816A914218D00168A6
:100F0000896821F070610268916001688968826A6D
:100F10001143026891600168896821F040510268BC
:100F2000916001688968C26A1143026891600BE0B0
:100F30000168896821F070610268916001688968C0
:100F400021F04051026891600168896821F0020136
:100F50000268916001688A68017E42EA4101026884
:100F600091602021095CD1B10168496841F40061B8
:100F7000026851600168496821F46041026851606B
:100F800001684A68416A491E4FF4604393FAA3F32B
:100F9000B3FA83F399400A4301684A6005E00168A7
:100FA000496821F40061026851600168C96A21F44E
:100FB00070010268D1620168CA6A818B491E42EAE7
:100FC00001510268D1620168896821F400710268E8
:100FD000916001688A6890F8301042EA4121026805
:100FE00091600168896821F48061026891600168FC
:100FF0008A68416942EA8121026891607047000075
:1010000004230140002001400100000F70B5044698
:101010000D462A462146054803F0CBF920B1034886
:10102000416C03A005F068FC70BD0000A013002017
:10103000554152543420E68EA5E694B6E590AFE5CE
:101040008AA8E5A4B1E8B4A520E99499E8AFAFE790
:10105000A08125640A00000000B587B02D48006813
:1010600000F0010078B900BF002001902948006815
:1010700040F00100274908600846006800F00100C0
:10108000019000BF00BF00BF002001902148103038
:10109000006840F400201F491031086008460068CD
:1010A00000F40020019000BF00BF142102A8FFF748
:1010B00021F90320029002200390002004900320D5
:1010C00005900820069002A9134801F0F9F9134889
:1010D000134908604FF416504860002110488160A1
:1010E000C16001610C21416100218161C16103F096
:1010F00059FC20B10BA005F0FFFB00BFFEE700226A
:101100000621342002F0AFF9342002F09CF907B038
:1011100000BD00003038024000000240004C00409A
:10112000A0130020554152543420E5889DE5A78B3B
:10113000E58C96E5A4B1E8B4A55C6E0000BFFEE7BF
:1011400030B58BB000200790089009900A900125D7
:101150001DA320A221A123A005F0CEFB07A80021FA
:1011600002910391CDE90410084601213C2316A207
:10117000CDE9001017A119A004F01AFA00281FD118
:10118000089A91B2079800F0EFFCC82000F072FCBA
:10119000044694B1204604F097FE02280DD1204663
:1011A00004F062FD20B91BA005F0A6FB002503E0BA
:1011B0001FA005F0A1FB00BF00BF07A804F0A6F91F
:1011C00028460BB030BD0000536D6172745F686FCC
:1011D0006D650000333332310000000078636865CC
:1011E0006E000000436C6F75645F4465764C696EF9
:1011F0006B0A50524F49443A2025732C20415549DF
:10120000463A2025732C2044455649443A25730A12
:10121000000000004D5154542042726F6B657220E3
:10122000E8BF9EE68EA5E68890E58A9F210A000029
:101230004D515454E8BF9EE68EA5E5A4B1E8B4A58F
:10124000EFBC9AE69CAAE79FA5E99499E8AFAF5C4A
:101250006E00000070B588B005460C460020049072
:101260000590069007902246294615A005F044FBFC
:101270002046FFF766F8064604A8012100220092E6
:101280003346CDE901210390224629460A2004F085
:10129000DFFA98B9059A91B2049800F065FC28B974
:1012A00004A804F033F9002008B070BD0CA005F0CC
:1012B00023FB04A804F02AF90120F5E70120F3E755
:1012C0005075626C69736820546F7069633A2025A9
:1012D000732C204D73673A2025730D0A000000001F
:1012E0004553503832363620E58F91E98081E5A4A8
:1012F000B1E8B4A55C6E00002DE9F04790B08046DF
:1013000000200C900D900E900F900B900A90099079
:10131000089000260790002500248146404604F0EE
:10132000D3FD0646F01E0D287DD2DFE800F01A47F7
:101330004F6783A38BA397A3A3A3070008AB0BAAB4
:101340000AA9404604F04AFC05464DB9BDF82030D4
:1013500061A0DDE90A1205F0CFFA0CA804F0D6F876
:101360008BE0664807A908AA0BABCDE900210290E3
:1013700009AA0AA9404604F087FC0546002D1CD1A5
:10138000BDF820000090BDF824205DA0DDE90A131F
:1013900005F0B2FA0B9806F049FA07463FB906F095
:1013A0001FFA8246514665A005F0A6FA05E03846C8
:1013B00009F0CCF9384606F0E7F95EE0404604F063
:1013C00043FD10B962A005F097FA56E0404604F0DC
:1013D00059FD90B966A005F08FFA0CA90A2004F017
:1013E00037FB50B968A005F087FA0D9A91B20C98B6
:1013F00000F0BAFB0CA804F089F83EE03F480188F1
:10140000404604F04EFDA0B965A005F075FA0CA9A0
:101410000A2004F0F9FA60B967A005F06DFA0D9A98
:1014200091B20C9800E025E000F09EFB0CA804F0BF
:101430006DF822E0404604F016FD10B965A005F0F5
:101440005BFA1AE0404604F079FD18B967A005F090
:1014500053FA02E06CA005F04FFA0EE0404604F0AB
:1014600087FD18B96FA005F047FA02E074A005F0F7
:1014700043FA02E04FF0FF3500BF00BF00F0AEF9C5
:10148000681C10B910B0BDE8F0877D210B98FEF7FD
:101490004EFF0446A4B1681C90B1641C06E014F829
:1014A000012B484609F1010904A90A542078302883
:1014B00002DB20783928F2DD04A8FEF76CFF8146B4
:1014C0000F2E01D0032E05D10A9806F0AFFB0B9822
:1014D00006F0ACFB00BFD5E7636D6469643A202574
:1014E000732C207265713A2025732C207265715F10
:1014F0006C656E3A2025640D0A0000009C000020F7
:10150000746F7069633A2025732C20746F7069635F
:101510005F6C656E3A2025642C207061796C6F6178
:10152000643A2025732C207061796C6F61645F6C64
:10153000656E3A2025640D0A000000004572726F46
:1015400072206265666F72653A205B25735D0A00E2
:10155000546970733A094D515454205075626C6946
:1015600073682053656E64204F4B0D0A0000000025
:10157000546970733A09526576205075626C6973CC
:10158000685265630D0A0000546970733A09536527
:101590006E64205075626C69736852656C0D0A0048
:1015A000546970733A09526576205075626C69739C
:1015B0006852656C0D0A0000546970733A095365EE
:1015C0006E64205075626C697368436F6D700D0AAC
:1015D00000000000546970733A0952657620507516
:1015E000626C697368436F6D700D0A0054697073A3
:1015F0003A094D51545420537562736372696265A0
:10160000204F4B0D0A000000546970733A094D5188
:101610005454205375627363726962652045727217
:101620000D0A0000546970733A094D515454205505
:101630006E537562736372696265204F4B0D0A00C9
:10164000546970733A094D51545420556E53756264
:10165000736372696265204572720D0A00000000B2
:1016600030B585B004460D460020019002900390ED
:10167000049001A82B46224600210090142004F07B
:101680000BFA50B9029A91B2019800F06DFA01A8D4
:1016900003F03CFF002005B030BD0120FBE7000057
:1016A00010B5024800F018FD10BD000030140020F5
:1016B00010B5024800F010FD10BD00008C12002093
:1016C00010B5024800F008FD10BD0000EC1200202B
:1016D0000146087810381823B0FBF3F20848805C04
:1016E000C865032A05D908686FF30900001D8865DD
:1016F00003E008686FF309008865886D7047000093
:1017000092C90008014600208A6A8B69CBB932B1C0
:10171000012A0DD0022A03D0032A10D10EE000BF07
:10172000CB6A03F08073B3F1807F00D1012007E022
:10173000CB6AB3F1C07F00D1012001E000E000BF1F
:1017400034E08B69B3F5005F1AD132B1012A07D0BA
:10175000022A03D0032A11D10AE000BF01200EE0C3
:10176000CB6A03F08073B3F1807F00D1012006E0E3
:10177000CB6AB3F1C07F00D1012000E000BF15E0CB
:1017800032B1012A05D0022A04D0032A0CD103E089
:1017900000BF00BF012008E0CB6A03F08073B3F103
:1017A000807F00D1012000E000BF00BF704730B54E
:1017B0000468246824F4802405682C60046863604D
:1017C0008468402C04D10468A2600468E16003E0EE
:1017D0000468A1600468E26030BD704710B54FF442
:1017E00080710348FEF786FD00200249088010BD85
:1017F000FC100020AC00002010B5FFF7EFFF3CA06C
:1018000005F07AF8C8223EA140A000F07BF900283C
:101810000DD142A005F070F8C8224BA14BA000F0FA
:1018200071F920B954A005F067F8002010BD58A048
:1018300005F062F80BE057A005F05EF8584959A092
:1018400005F05AF8C82000F027FE0120EEE7C82274
:101850003DA158A000F056F90028ECD157A005F0A2
:101860004BF858A005F048F80BE05AA005F044F8F2
:101870004B494CA005F040F8C82000F00DFE0120B7
:10188000D4E7C82230A158A000F03CF90028ECD1E0
:1018900059A005F031F80BE05BA005F02DF84049A8
:1018A00040A005F029F8C82000F0F6FD0120BDE7B2
:1018B000C82225A159A000F025F90028ECD15FA08D
:1018C00005F01AF807E061A005F016F8C82000F04E
:1018D000E3FD0120AAE7C8221BA11CA000F012F919
:1018E0000028F0D15EA005F007F800209EE7000078
:1018F00041542B4349505354415455530A0000005E
:101900005354415455533A320000000041542B4384
:1019100049505354415455530D0A00007769666984
:1019200020E5B7B2E7BB8FE8BF9EE68EA520E79B18
:10193000B4E68EA5E8BF9EE68EA5E69C8DE58AA15D
:10194000E599A8200A0000004F4B000041542B43AA
:10195000495053544152543D22544350222C223476
:10196000372E3130392E3138372E3131222C313863
:1019700038330D0A00000000E69C8DE58AA1E59948
:10198000A8E8BF9EE68EA5E68890E58A9F5C6E007B
:1019900041540A004154204552524F52210A00003E
:1019A000FC10002072785F6275666665723A257376
:1019B000200A000041540D0A000000004154204F4D
:1019C0004B0A000041542B43574D4F44453D310ACB
:1019D0000000000041542B43574D4F44453D3120FA
:1019E0004552524F520A000041542B43574D4F4429
:1019F000453D310D0A000000455350383236365F00
:101A0000574946490A000000455350383236365F80
:101A100057494649204552524F520A0041542B43E0
:101A2000574A41503D227869616F7869222C2231F2
:101A300032333435363738220D0A000045535038DA
:101A40003236365F5443500A000000004553503888
:101A50003236365F544350204552524F520A0000EE
:101A60004553503832363620496E6974204F4B0A40
:101A7000000000002DE9F0410546002409F0C0FDFA
:101A800006464FF47A7068434FF47A71B0FBF1F771
:101A9000FFF7A4FE0121134809F07CFB00BF00F012
:101AA0009FF898B910A10F48FEF72FFC04466CB1BF
:101AB0003A212046FEF73BFC04463CB1641C21461B
:101AC0000BA004F019FF2046BDE8F0810A2009F0C0
:101AD00051F909F095FD801BB84201D30020F3E7CE
:101AE000DDE70000FC1000204950442C00000000FD
:101AF000495044206461746120666F756E643A20B9
:101B000025730A002DE9F04105460E461446FFF7FD
:101B100065FE2846FEF715FC87B23946284609F0CF
:101B200045FB0F490F4A12888818012109F032FB42
:101B30000FE000F055F848B931460948FEF7E5FBDB
:101B400020B1FFF74BFE0020BDE8F0810A2009F02C
:101B500011F9201EA4F10104EBD10220F4E70000EA
:101B6000FC100020AC000020F0B589B005460C4602
:101B7000202101A8FEF7BEFB224614A101A804F013
:101B8000CBFEFFF72BFE09F03BFD00F5FA760127AF
:101B90000FE04FF47A7211A101A8FFF7B3FF28B943
:101BA0002146284609F002FB002706E00A2009F03A
:101BB000E1F800F089FDB042EBD300BFFFF70EFE65
:101BC00017B9002009B0F0BD0120FBE741542B43B9
:101BD000495053454E443D25640D0A003E00000027
:101BE00010B509F00DFD00F5FA7408E009F008FDE4
:101BF000A04201D9022010BD0A2009F0BBF8064816
:101C00000088064909888842F0D0034800880349C3
:101C100008800020EFE70000AC000020AE000020AC
:101C200018B502460020009000BF92F83C00012841
:101C300001D1022018BD012082F83C0000BF0868D5
:101C4000092816D91068C0680B780A3B03EB4304D7
:101C50000723A34098431368D8600B780A3B03EB33
:101C60004303886898401368DB6818431368D8609A
:101C700013E0106800690B7803EB43040723A340CB
:101C80009843136818610B7803EB43038868984006
:101C900013681B691843136818614868072817D22E
:101CA0001068406B0B795B1E03EB83041F23A3407A
:101CB000984313685863088880B20B795B1E03EB66
:101CC0008303984013685B6B18431368586331E0D3
:101CD00048680D2817D21068006B0B79DB1F03EBE7
:101CE00083041F23A340984313681863088880B2B5
:101CF0000B79DB1F03EB8303984013681B6B1843BE
:101D00001368186316E01068C06A0B790D3B03EB8B
:101D100083041F23A34098431368D862088880B2C5
:101D20000B790D3B03EB830398401368DB6A184380
:101D30001368D8621B4B1068984208D108681228B3
:101D400005D11948006840F48000C3F80403154B1E
:101D5000106898421ED10868102802D0086811281F
:101D600018D11148006840F400000F4B1860086853
:101D700010280FD10D4800680D4BB0FBF3F000EBBD
:101D800080004000009002E00098401E0090009803
:101D90000028F9D100BF002082F83C0000BF00BF3E
:101DA00048E700000020014004230140C800002053
:101DB00040420F00704770477047000070B50446FE
:101DC00000250CB9012070BD1549A06A884200D0D9
:101DD00000BF206C30B9204600F024F80020606479
:101DE00084F83C00206C00F0100088B9206C20F4CE
:101DF000885040F0020020642046FFF749F8002098
:101E00006064206C20F0020040F00100206400E0DB
:101E1000012500BF002084F83C0000BF2846D2E71F
:101E20000100000F70470000F8B504460D46164645
:101E30000020009000BF94F83C00012801D102204E
:101E4000F8BD012084F83C0000BF2068806800F0E5
:101E50000100A0B92068806840F001002168886016
:101E6000424800684249B0FBF1F000EB40000090AE
:101E700002E00098401E009000980028F9D12068E8
:101E8000806800F00100002865D0206C40F20161FC
:101E9000884340F4807020642068406800F48060CB
:101EA00028B1206C20F4005040F480502064206C55
:101EB00000F48050B0F5805F04D1606C20F0060023
:101EC000606401E00020606400BF002084F83C00F2
:101ED00000BF2848A16BC8632748A16B0864274846
:101EE000A16BC8646FF02200216808602068406818
:101EF00040F08060216848602068806840F480700D
:101F000021688860226802F14C0133462A46A06BA2
:101F100000F078FA1A48006800F01F0058B92068ED
:101F2000806800F04050F0B92068806840F0804040
:101F30002168886017E013492068884213D120681F
:101F4000806800F0405070B92068806840F08040A0
:101F50002168886007E0206C40F010002064606C0D
:101F600040F00100606400206AE70000C800002023
:101F700040420F00EB0D0008830E0008690E0008B8
:101F8000042301400020014070B50446002500BF35
:101F900094F83C00012801D1022070BD012084F892
:101FA0003C0000BF2068806820F001002168886044
:101FB0002068806800F00100D0B92068806820F4B3
:101FC000807021688860A06B90F8350002280FD1DE
:101FD000A06B00F014F805462068406820F080608F
:101FE00021684860206C20F4885040F00100206493
:101FF00000BF002084F83C0000BF2846CDE770B544
:102000000446A56D00F060FB064694F835000228F2
:1020100008D08020606500BF002084F8340000BF35
:10202000012070BD2068006820F01600216808605B
:102030002068406920F0800021684861206C08B960
:10204000A06C28B12068006820F0080021680860B2
:102050002068006820F001002168086010E000F0AE
:1020600033FB801B05280BD920206065032084F8F2
:10207000350000BF002084F8340000BF0320D0E703
:102080002068006800F001000028E8D194F85C1096
:102090003F208840A860012084F8350000BF002060
:1020A00084F8340000BF00BFBBE7014691F835005B
:1020B000022803D08020486501207047052081F860
:1020C00035000868006820F001000A6810600020F0
:1020D000F3E70146486D7047F8B5044600200090CC
:1020E0008C4800684FF41651B0FBF1F7A56D2E68CF
:1020F00094F85C1008208840304098B1206800684F
:1021000000F0040070B12068006820F0040021682D
:10211000086094F85C1008208840A860606D40F06A
:102120000100606594F85C1001208840304068B17F
:102130002068406900F0800040B194F85C100120F4
:102140008840A860606D40F00200606594F85C1003
:1021500004208840304068B12068006800F0020028
:1021600040B194F85C1004208840A860606D40F095
:102170000400606594F85C1010208840304078B30B
:102180002068006800F0080050B394F85C1010203C
:102190008840A8602068006800F4802080B1206832
:1021A000006800F4002028B9206CC8B12046216CDA
:1021B000884715E0A06C98B12046A16C88470FE0D5
:1021C0002068006800F4807028B92068006820F05A
:1021D000080021680860206C10B12046216C8847F7
:1021E00094F85C10202088403040002865D020689A
:1021F000006800F0100000285FD094F85C102020E8
:102200008840A86094F83500052828D12068006827
:1022100020F01600216808602068406920F08000E6
:1022200021684861206C08B9A06C28B1206800685A
:1022300020F008002168086094F85C103F20884076
:10224000A860012084F8350000BF002084F8340025
:1022500000BF206D10B12046216D8847F8BD206871
:10226000006800F4802080B12068006800F400203D
:1022700028B9606C10B12046616C88471DE0E06BA6
:10228000D8B12046E16B884717E02068006800F469
:10229000807068B92068006820F01000216808602C
:1022A000012084F8350000BF002084F8340000BF0E
:1022B000E06B10B12046E16B8847606D38B3606D0C
:1022C00000F00100F0B1052084F8350020680068B6
:1022D00020F001002168086000BF0098401C0090B9
:1022E000B84200D905E02068006800F0010000282D
:1022F000F3D100BF012084F8350000BF002084F82E
:10230000340000BFE06C10B12046E16C884700BF8C
:10231000A4E70000C80000202DE9F0410446002594
:1023200000F0D2F9074614B90120BDE8F081606AD7
:1023300000B100BF022084F8350000BF002084F8FF
:10234000340000BF2068006820F0010021680860A8
:102350000AE000F0B9F9C01B052805D92020606506
:10236000032084F83500E0E72068006800F00100F1
:102370000028EED12068056821480540D4E9010114
:102380000843E16808432169084361690843A1697A
:102390000843E1690843216A08430543606A042849
:1023A00003D1D4E90B010843054320680560206888
:1023B000456925F00705606A0543606A04280DD168
:1023C000A06A0543E06A48B12046FFF79BF928B1AF
:1023D00040206065012084F83500A6E7206845614B
:1023E0002046FFF775F9064694F85C103F208840B8
:1023F000B06000206065012084F83500002094E77B
:102400003F8010F02DE9F04704460D4616461F4662
:102410004FF00008D4F8589000BF94F83400012819
:1024200002D10220BDE8F087012084F8340000BF0B
:1024300094F83500012825D1022084F835000020C9
:1024400060653B46324629462046FFF7B0F994F8CE
:102450005C103F208840C9F808002068006840F000
:10246000160021680860206C28B12068006840F0E0
:102470000800216808602068006840F001002168B9
:10248000086006E000BF002084F8340000BF4FF071
:1024900002084046C6E7000031B500F015F90546D0
:1024A000009C601C10B105480078044400BF00F097
:1024B0000BF9401BA042FAD338BD000034010020C4
:1024C00078B502460B460021DAE001268E401D68F1
:1024D00005EA0604002C74D01D7905F00305012DD2
:1024E00004D01D7905F00305022D13D190684E002C
:1024F0000325B540A8434E00DD68B54028439060F1
:10250000506801258D40A8431D79C5F300158D4005
:10251000284350601D7905F00305032D09D0D068CC
:102520004E000325B540A8434E009D68B5402843A2
:10253000D0601D7905F00305022D13D1CE0802F1FC
:10254000200555F826004D07EE0E0F25B540A8438F
:102550004E07F60E1D69B5402843CE0802F120054E
:1025600045F8260010684E000325B540A8431D79A4
:1025700005F003054E00B540284310605D6805F482
:102580004035002D7BD000BF002500953F4D2D68C4
:1025900045F480453D4E356035462D6805F480454F
:1025A000009500BF00BF3A4D8E0855F826008D07F4
:1025B0002E0F0F25B540A843364DAA4202D1002563
:1025C00029E05CE0344DAA4201D1012523E0334DDE
:1025D000AA4201D102251EE0314DAA4201D10325B4
:1025E00019E0304DAA4201D1042514E02E4DAA4233
:1025F00001D105250FE02D4DAA4201D106250AE0A3
:102600002B4DAA4201D1072505E02A4DAA4201D14E
:10261000082500E009258E07360FB54028431C4DDC
:102620008E0845F82600244D2868A0435D6805F40F
:10263000801505B12043204D28602D1D2868A0433A
:102640005D6805F4001505B120431B4D2D1D286064
:10265000194D2D1F2868A0435D6805F4003505B1AC
:102660002043154D2D1F28602D1F2868A0435D684D
:1026700005F4803505B120430F4D083D2860491C05
:102680001D68CD40002D7FF420AF78BD4438024056
:1026900008380140000002400004024000080240E7
:1026A000000C0240001002400014024000180240DA
:1026B000001C024000200240083C01400AB1816138
:1026C00001E00B0483617047014800687047000017
:1026D0002C0100200146086C7047000070B50446CC
:1026E0000CB9012070BD94F83D0028B9002084F891
:1026F0003C00204600F020FE242084F83D002068A5
:10270000006820F00100216808602068006840F43B
:102710000040216808602068006820F400402168BB
:10272000086000F0E1FF05465C496068884206D811
:102730005B48854201D2012007E0002005E05948AE
:10274000854201D2012000E00020012800D1C9E724
:102750005548B5FBF0F62068406820F03F00304354
:10276000216848604D496068884201D8701C07E0C4
:102770004FF4967070434FF47A71B0FBF1F0401C47
:102780002168096A21F03F01084321680862434932
:102790006068884214D8681E61684900B0FBF1F097
:1027A000401CC0F30B00042801D204203DE0681E49
:1027B00061684900B0FBF1F0401CC0F30B0034E04D
:1027C000A06838B9681E616801EB4101B0FBF1F007
:1027D000401C0AE0681E616801EBC10202EB0111B6
:1027E000B0FBF1F0401C40F48040C0F30B0008B98E
:1027F00001201AE0A06848B9681E616801EB410138
:10280000B0FBF1F0401CC0F30B000CE0681E6168E7
:1028100001EBC10202EB0111B0FBF1F0401CC0F36F
:102820000B0040F4804040F400402168C9694CF638
:10283000FF72914308432168C861D4E90701084346
:102840002168096821F0C001084321680860D4E9C3
:10285000031008432168896848F2FF329143084316
:1028600021688860D4E9050108432168C96821F01E
:10287000FF0108432168C8602068006840F001003B
:102880002168086000202064202084F83D0000209A
:10289000206384F83E0000BF24E70000A08601000A
:1028A00080841E0000093D0040420F002DE9F84FD2
:1028B00004460F4690461E46FFF706FF05464FF0BA
:1028C000000994F83D0020287ED119230122634994
:1028D0002046009502F0ABFB10B10220BDE8F88F56
:1028E00000BF94F83C00012801D10220F6E7012046
:1028F00084F83C0000BF2068006800F0010028B99F
:102900002068006840F001002168086020680068C5
:1029100020F4006021680860242084F83D00002035
:1029200020644F48E06200BF2068006840F4807077
:1029300021680860334600224FF0011120460095BF
:1029400002F075FB58B12068006800F48070B0F5A3
:10295000807F02D14FF4007020640320BEE707F0AF
:10296000FE0021680861FFF7AFFE05462068406958
:10297000C0F3400A20684069C0F3802B10E0FFF7E5
:10298000A3FE401BB04200D816B9A02084F83D0039
:1029900020684069C0F3400A20684069C0F3802B7A
:1029A00094F83D00A02805D0BAF1000F02D1BBF188
:1029B000000FE4D0202084F83D0020684069C0F377
:1029C000400028B3206800E045E0006840F4007053
:1029D0002168086000BF00200090206840690090D6
:1029E00020688069009000BF00BF192301221B49A5
:1029F0002046009502F01BFB08B101206EE7202065
:102A000084F83D0000BF002084F83C0000BF65E76B
:102A10002068006840F40070216808606FF48060EE
:102A200021684861192301220C492046009502F0D3
:102A3000FEFA08B1012051E709F10109C145FFF48F
:102A400073AF202084F83D0000BF002084F83C00D4
:102A500000BF012042E7022040E700000200100012
:102A60000000FFFF2DE9F8430446894617469846C3
:102A7000089EFFF729FE054694F83D0020287DD1E9
:102A800019230122B7492046009502F0D0FA10B16F
:102A90000220BDE8F88300BF94F83C00012801D172
:102AA0000220F6E7012084F83C0000BF206800689F
:102AB00000F0010028B92068006840F0010021689A
:102AC00008602068006820F4006021680860222007
:102AD00084F83D00102084F83E00002020646762E6
:102AE000A4F82A80608D20859F48E0622B463246FC
:102AF0004946204602F04CF808B10120C9E7208D74
:102B000088B900BF002000902068406900902068CC
:102B10008069009000BF00BF2068006840F400702A
:102B20002168086047E0208D012817D120680068DF
:102B300020F480602168086000BF002000902068B9
:102B40004069009020688069009000BF00BF206845
:102B5000006840F40070216808602CE0208D022895
:102B600018D12068006820F480602168086020681F
:102B7000006840F400602168086000E0EFE000BFFA
:102B800000200090206840690090206880690090D3
:102B900000BF10E02068006840F480602168086091
:102BA00000BF002000902068406900902068806984
:102BB000009000BF00BFC3E0208D03287ED8208D89
:102BC000012815D12A463146204602F00CFB08B1F7
:102BD00001205EE720680069616A0870606A401C35
:102BE0006062208D401E2085608D401E6085A7E0BC
:102BF000208D02282AD1334600225C4920460095C8
:102C000002F015FA08B1012043E72068006840F49B
:102C100000702168086020680069616A0870606A55
:102C2000401C6062208D401E2085608D401E6085A6
:102C300020680069616A0870606A401C6062208DCB
:102C4000401E2085608D401E608579E0334600225D
:102C500046492046009502F0EAF908B1012018E73C
:102C60002068006820F4806021680860206800699E
:102C7000616A0870606A401C6062208D401E208579
:102C8000608D401E608533460022384920460095FD
:102C900002F0CDF908B10120FBE62068006840F49D
:102CA00000702168086020680069616A0870606AC5
:102CB000401C6062208D401E208500E010E0608D89
:102CC000401E608520680069616A0870606A401C67
:102CD0006062208D401E2085608D401E60852FE043
:102CE0002A463146204602F07EFA08B10120D0E69D
:102CF00020680069616A0870606A401C6062208D0B
:102D0000401E2085608D401E608520684069C0F3AC
:102D10008000A8B1208D032805D12068006820F428
:102D200080602168086020680069616A0870606AD4
:102D3000401C6062208D401E2085608D401E608595
:102D4000208D00287FF438AF202084F83D0000203B
:102D500084F83E0000BF84F83C0000BF99E60220E2
:102D600097E60000020010000000FFFF04000100D1
:102D70002DE9F8430446894616461F46DDF82080B3
:102D8000FFF7A2FC054694F83D0020287ED11923C8
:102D9000012251492046009502F049F910B1022064
:102DA000BDE8F88300BF94F83C00012801D102205F
:102DB000F6E7012084F83C0000BF2068006800F0BE
:102DC000010028B92068006840F00100216808600F
:102DD0002068006820F4006021680860212084F8E1
:102DE0003D00102084F83E00002020646662678564
:102DF000608D20853948E0622B4642464946204690
:102E000001F062FF08B10120CAE700BF0020009076
:102E100020684069009020688069009000BF00BF72
:102E200044E02A464146204602F022FA50B1206C86
:102E3000042805D12068006840F40070216808600B
:102E40000120ADE7606A007821680861606A401C73
:102E50006062608D401E6085208D401E2085206848
:102E60004069C0F3800070B1208D60B1606A007865
:102E700021680861606A401C6062608D401E608548
:102E8000208D401E20852A46414600E022E0204653
:102E900002F09AF850B1206C042805D1206800682F
:102EA00040F4007021680860012079E7208D002837
:102EB000B7D12068006840F40070216808602020C5
:102EC00084F83D00002084F83E0000BF84F83C00F8
:102ED00000BF65E7022063E7020010000000FFFF6B
:102EE0002DE9FC5F04460F4690469946DDE90CABA0
:102EF0000E9EFFF7E9FB054694F83D00202870D1AF
:102F000019230122B0492046009502F090F810B133
:102F10000220BDE8FC9F00BF94F83C00012801D1CD
:102F20000220F6E7012084F83C0000BF206800681A
:102F300000F0010028B92068006840F00100216815
:102F400008602068006820F4006021680860222082
:102F500084F83D00402084F83E0000202064C4F83E
:102F600024A0A4F82AB0608D20859848E0624B46E2
:102F7000424639462046CDE9006501F005FF08B11B
:102F80000120C6E7208D88B900BF0020019020688D
:102F90004069019020688069019000BF00BF2068EF
:102FA000006840F400702168086040E0208D01282E
:102FB00018D12068006820F480602168086000BF94
:102FC000002001902068406901902068806901908C
:102FD00000BF00BF2068006840F4007021680860EE
:102FE00025E0EFE0208D022816D12068006820F44B
:102FF0008060216808602068006840F400602168F3
:10300000086000BF0020019020684069019020689E
:103010008069019000BF0AE000BF00200190206895
:103020004069019020688069019000BF00BFBAE04C
:10303000208D03287ED8208D012815D12A463146BF
:10304000204602F0D0F808B1012062E7206800694C
:10305000616A0870606A401C6062208D401E208595
:10306000608D401E60859EE0208D02282AD1334667
:10307000002257492046009501F0D9FF08B10120F0
:1030800047E72068006840F4007021680860206805
:103090000069616A0870606A401C6062208D401E91
:1030A0002085608D401E608520680069616A087017
:1030B000606A401C6062208D401E2085608D401E2D
:1030C000608570E03346002241492046009501F0BA
:1030D000AEFF08B101201CE72068006820F4806082
:1030E0002168086020680069616A0870606A401C95
:1030F0006062208D401E2085608D401E60853346B5
:10310000002233492046009501F091FF08B10120CB
:10311000FFE62068006840F40070216808602068BD
:103120000069616A0870606A401C6062208D401E00
:10313000208500E010E0608D401E608520680069F9
:10314000616A0870606A401C6062208D401E2085A4
:10315000608D401E608526E02A463146204602F0FA
:1031600042F808B10120D4E620680069616A08705D
:10317000606A401C6062208D401E2085608D401E6C
:10318000608520684069C0F3800060B120680069F4
:10319000616A0870606A401C6062208D401E208554
:1031A000608D401E6085208D00287FF441AF202077
:1031B00084F83D00002084F83E0000BF84F83C0005
:1031C00000BFA6E60220A4E6020010000000FFFFF8
:1031D000040001002DE9FC5F04460F469046994625
:1031E000DDE90CAB0E9EFFF76FFA054694F83D0043
:1031F00020287DD1192301224D492046009501F058
:1032000016FF10B10220BDE8FC9F00BF94F83C00FF
:10321000012801D10220F6E7012084F83C0000BF1C
:103220002068006800F0010028B92068006840F0BC
:103230000100216808602068006820F400602168AF
:103240000860212084F83D00402084F83E000020E2
:103250002064C4F824A0A4F82AB0608D20853548E5
:10326000E0624B46424639462046CDE9006501F012
:103270003BFE08B10120C6E731E02A463146204630
:1032800001F0F6FF50B1206C042805D120680068D9
:1032900040F40070216808600120B4E7606A00789B
:1032A00021680861606A401C6062208D401E208594
:1032B000608D401E608520684069C0F3800070B159
:1032C000208D60B1606A007821680861606A401CE6
:1032D0006062208D401E2085608D401E6085208D9F
:1032E0000028CAD12A463146204601F06DFE00E092
:1032F0001CE050B1206C042805D12068006840F41F
:1033000000702168086001207DE72068006840F4B3
:10331000007021680860202084F83D00002084F8B7
:103320003E0000BF84F83C0000BF6CE702206AE763
:10333000020010000000FFFF704700000348006813
:103340000349097808440149086070472C010020AE
:103350003401002010B50D48006840F400700B499E
:1033600008600846006840F480600860084600680D
:1033700040F480700860042000F0B4F80F2000F0E2
:1033800007F800F05FF8002010BD0000003C02408C
:103390002DE9F04188B004460027B84600BF002060
:1033A00001902348006840F0080021490860084661
:1033B000006800F00800019000BF00BF02A903A848
:1033C00000F06AF9069F1FB900F08EF9054602E089
:1033D00000F08AF945001748B5FBF0F0A0F10108AC
:1033E00015481649086040F2E7311448C160C0F83A
:1033F0000480002101618160816100F061FC06466A
:1034000096B90E4800F090FC06466EB9322000F0E6
:103410001AF8102C07D200222146322000F023F89F
:103420000748046000E00126304608B0BDE8F0819E
:103430004038024040420F00000C0040005C012078
:1034400030010020704701460846002809DB00F0E3
:103450001F0301229A4043099B0003F1E023C3F8B4
:10346000002100BF70472DE9F05F80460D461646EB
:10347000002703F079FA074639462A46334601F019
:103480000700C0F1070ABAF1040F02D94FF0040A8D
:1034900001E0C0F1070AD14600F1040ABAF1070FB2
:1034A00002D24FF0000A01E0A0F1030AD4464FF027
:1034B000010A0AFA09FAAAF1010A0AEA020A0AFA50
:1034C0000CFA4FF0010B0BFA0CFBABF1010B0BEA02
:1034D000030B4AEA0B042146404603F04DFABDE8CF
:1034E000F09F000000BF00F00702064B19684FF67E
:1034F000FF031940044B0B4343EA0221014B1960BF
:1035000000BF70470CED00E00000FA0570B50446FE
:103510000D460CB9012070BD5A48006800F00F003C
:10352000A84209D257490D700846006800F00F0004
:10353000A84201D00120EEE7207800F00200022826
:103540001DD1207800F00400042805D14E48006801
:1035500040F4E0504C490860207800F0080008284A
:1035600005D14948006840F4604047490860464832
:10357000006820F0F000A168084343490860207803
:1035800000F0010090B36068012807D13E48083878
:103590000068C0F34040A0B90120BCE76068022881
:1035A00007D1394808380068C0F3406048B90120A5
:1035B000B1E7354808380068C0F3400008B9012079
:1035C000A9E73148006820F00300616808432E49EC
:1035D0000860FFF779F8064609E0FFF775F8801BE9
:1035E00041F28831884202D9032094E707E0264857
:1035F000006800F00C006168B0EB810FEDD121484C
:10360000006800F00F00A84209D91E490D70084655
:10361000006800F00F00A84201D001207BE720786D
:1036200000F00400042807D11748006820F4E05097
:10363000E168084314490860207800F00800082871
:1036400008D11148006820F46040216940EAC100B7
:103650000D49086000F074F80B49096801F0F001A9
:10366000F02292FAA2F2B2FA82F2D140074A515CF9
:10367000C8400749086007480068FFF789FE002036
:1036800049E70000003C0240083802407AC90008BF
:10369000C8000020300100200F2202600D4A12688D
:1036A00002F0030242600B4A126802F0F0028260EC
:1036B000084A126802F4E052C260064A126802F434
:1036C0006042D2080261044A126802F00F020A60E6
:1036D0007047000008380240003C02400148006882
:1036E00070470000C800002000B5FFF7F7FF07494A
:1036F000096801F4E0514FF4E05292FAA2F2B2FAF2
:1037000082F2D140024A515CC84000BD08380240F4
:103710008AC9000800B5FFF7E1FF0749096801F40D
:1037200060414FF4604292FAA2F2B2FA82F2D140C2
:10373000024A515CC84000BD083802408AC90008EE
:103740002DE9F047002400250026A1462548006801
:1037500000F00C0020B1042805D008283AD105E07B
:10376000DFF8849039E0DFF8849036E01D48001FD0
:10377000006800F03F041B48001F006800F4800050
:1037800078B11A481749091F0968C1F38811A0FBCD
:1037900001700146224600233846FCF75BFD0546D2
:1037A0000EE011480F49091F0968C1F38811A0FBF9
:1037B00001700146224600233846FCF74BFD0546C2
:1037C0000848001F0068C0F30140401C4600B5FBDC
:1037D000F6F902E0DFF8109000BF00BF4846BDE8F0
:1037E000F0870000083802400024F40000127A003C
:1037F000F8B504460CB90120F8BD207800F00100AE
:10380000002848D0F948006800F00C0004280DD0CA
:10381000F648006800F00C00082811D1F348001F9A
:10382000006800F48000B0F5800F09D1EF48083837
:103830000068C0F3404070B3606860BB0120DBE704
:103840002079EA49891F0870606890B1FEF73CFF53
:10385000054606E0FEF738FF401B642801D9032027
:10386000CAE7E24808380068C0F340400028F1D0B9
:1038700011E0FEF729FF054606E0FEF725FF401B95
:10388000642801D90320B7E7D84808380068C0F396
:1038900040400028F1D1207800F00200022869D1D0
:1038A000D248006800F00C0058B1D048006800F021
:1038B0000C00082821D1CD48001F006800F48000CA
:1038C000D8B9CA4808380068C0F3400020B1E068A1
:1038D000012801D001208FE7C4480838006820F093
:1038E000F800F82292FAA2F2B2FA82F2216991402B
:1038F0000843BE49083908603CE0E06828B301206D
:10390000BB490860FEF7E0FE054606E0FEF7DCFE78
:10391000401B022801D903206EE7B448083800682C
:10392000C0F340000028F1D0B0480838006820F00B
:10393000F800F82292FAA2F2B2FA82F221699140DA
:103940000843AA490839086014E00020A849086023
:10395000FEF7BAFE054606E0FEF7B6FE401B02285B
:1039600001D9032048E7A14808380068C0F34000A7
:103970000028F1D1207800F0080008282CD16069D7
:10398000A8B101209B490860FEF79EFE054606E0AF
:10399000FEF79AFE401B022801D903202CE793482A
:1039A0006C300068C0F340000028F1D014E0002023
:1039B00090490860FEF788FE054606E0FEF784FEA3
:1039C000401B022801D9032016E788486C300068A4
:1039D000C0F340000028F1D1207800F00400042852
:1039E00074D1002681483830006800F0805090B9CA
:1039F00000BF002000907D483830006840F08050C3
:103A00007A49383108600846006800F0805000901C
:103A100000BF00BF01267848006840F480707649F6
:103A200008600846006800F48070A8B9084600687D
:103A300040F480700860FEF747FE054606E0FEF79A
:103A400043FE401B022801D90320D5E66A480068DE
:103A500000F480700028F2D0207A64496831087040
:103A6000A068A0B1FEF730FE054608E0FEF72CFE88
:103A7000401B41F28831884201D90320BCE65B48F3
:103A800068300068C0F340000028EFD013E0FEF774
:103A90001BFE054608E0FEF717FE401B41F2883189
:103AA000884201D90320A7E6504868300068C0F377
:103AB00040000028EFD1012E07D14C483830006873
:103AC00020F0805049493831086000BFA0690028C3
:103AD0004BD04648006800F00C0008285CD0A06974
:103AE000022843D1002042490866FEF7EDFD054655
:103AF00006E0FEF7E9FD401B642801D903207BE6C0
:103B00003A4808380068C0F340600028F1D1D4E991
:103B100007010843616A40EA81112C20005D41EAF7
:103B200000610122A06AC2EB500041EA00402F4927
:103B3000091F0968314A114008432C49091F0860D0
:103B400001202B490866FEF7BFFD054606E0FEF79B
:103B5000BBFD401B642801D903204DE623480838EB
:103B60000068C0F340600028F1D04AE000202049FE
:103B70000866FEF7A9FD054606E0FEF7A5FD401B19
:103B8000642801D9032037E6184808380068C0F3D4
:103B900040600028F1D134E0A069012800D12BE673
:103BA0001248001F016801F48002E06982421BD1C3
:103BB00001F03F02206A824216D147F6C0700840E9
:103BC000626AB0EB821F0FD101F440320123A06A78
:103BD000C3EB5000B2EB004F06D101F070622C2015
:103BE000005DB2EB006F0BD0012005E60838024003
:103BF00000004742800E4742007000400080BCF049
:103C000000BF0020F8E570477047000030B502465D
:103C10000B4600BF92F83C00012801D1022030BDC4
:103C2000012082F83C0000BF022082F83D001068AD
:103C300044681068816824F07004186804431068B0
:103C40004460184D1068A8421BD01068B0F1804F36
:103C500017D0154D1068A84213D0144D1068A84213
:103C60000FD0134D1068A8420BD0124D1068A84217
:103C700007D0114D1068A84203D0104D1068A8421B
:103C800005D121F08001586801431068816001204E
:103C900082F83D0000BF002082F83C0000BF00BF5A
:103CA000BDE70000000001400004004000080040A3
:103CB000000C00400004014000400140001800409A
:103CC00010B504460CB9012010BD94F83D0028B988
:103CD000002084F83C00204600F025F8022084F8FB
:103CE0003D00211D206802F009FA012084F84600F9
:103CF00000BF84F83E0001213F20015540200155BE
:103D00004120015500BF00BF012084F8420043203C
:103D10000155442001554520015500BF012084F87C
:103D20003D000020D0E77047014691F83D00012892
:103D300001D001207047022081F83D000868C0686A
:103D400040F001000B68D8601A4B086898421BD0FD
:103D50000868B0F1804F17D0174B0868984213D00D
:103D6000164B086898420FD0154B086898420BD044
:103D7000144B0868984207D0134B0868984203D048
:103D8000124B086898420CD10868806800F007025E
:103D9000062A0CD00868006840F001000B68186023
:103DA00005E00868006840F001000B68186000201A
:103DB000C0E700000000014000040040000800408F
:103DC000000C004000040140004001400018004089
:103DD0002DE9F04104460D46002700BF94F83C0051
:103DE000012802D10220BDE8F081012084F83C00C6
:103DF00000BF022084F83D002068866826F0770620
:103E000026F47F46206886602868502833D00CDC72
:103E1000202850D004DC00284BD0102851D149E094
:103E2000302849D040284CD139E060282DD0702866
:103E300007D0B0F5805F03D0B0F5005F41D10DE051
:103E400041E0D5E902136A68206802F0D4F92068DD
:103E5000866846F077062068866034E0D5E902136C
:103E60006A68206802F0C7F92068806840F48040E2
:103E70002168886027E0EA686968206802F0ACFA87
:103E80005021206802F0C2F91DE0EA6869682068E4
:103E900002F0B5FA6021206802F0B8F913E0EA6890
:103EA0006968206802F098FA4021206802F0AEF9B3
:103EB00009E000BF00BF00BF2968206802F0A6F932
:103EC00001E0012700BF00BF012084F83D0000BFD2
:103ED000002084F83C0000BF384684E7704710B5E6
:103EE000044620680069C0F34000D8B12068C0686B
:103EF000C0F34000B0B16FF00200216808610120FA
:103F000020772068806900F0030018B12046FFF791
:103F1000E5FF05E0204600F0ADF8204600F061F92D
:103F20000020207720680069C0F38000D8B12068A5
:103F3000C068C0F38000B0B16FF004002168086170
:103F4000022020772068806900F4407018B1204674
:103F5000FFF7C4FF05E0204600F08CF8204600F093
:103F600040F90020207720680069C0F3C000D8B174
:103F70002068C068C0F3C000B0B16FF008002168CD
:103F80000861042020772068C06900F0030018B1A0
:103F90002046FFF7A3FF05E0204600F06BF820461F
:103FA00000F01FF90020207720680069C0F300109E
:103FB000D8B12068C068C0F30010B0B16FF0100035
:103FC00021680861082020772068C06900F44070EB
:103FD00018B12046FFF782FF05E0204600F04AF8BE
:103FE000204600F0FEF8002020772068006900F0ED
:103FF000010058B12068C06800F0010030B16FF0D6
:10400000010021680861204600F0C6F920680069B7
:10401000C0F3C01058B12068C068C0F3C01030B100
:104020006FF08000216808612046FFF7ECFD2068F2
:104030000069C0F3801058B12068C068C0F38010D8
:1040400030B16FF0400021680861204600F0B0F9FF
:1040500020680069C0F3401058B12068C068C0F300
:10406000401030B16FF02000216808612046FFF752
:10407000CBFD10BD70472DE9F04104460D461646B4
:10408000002700BF94F83C00012802D10220BDE8BF
:10409000F081012084F83C0000BF36B1042E1BD013
:1040A000082E31D00C2E5ED145E02946206802F062
:1040B000B7F82068806940F00800216888612068AE
:1040C000806920F00400216888612068806929697E
:1040D00008432168886148E02946206802F0D8F842
:1040E0002068806940F400602168886120688069E8
:1040F00020F480602168886120688069296940EA2D
:1041000001202168886130E02946206802F0FEF82D
:104110002068C06940F008002168C8612068C06953
:1041200020F004002168C8612068C069296908433B
:104130002168C86119E02946206802F023F9206847
:10414000C06940F400602168C8612068C06920F43B
:1041500080602168C8612068C069296940EA01203F
:104160002168C86101E0012700BF00BF00BF002037
:1041700084F83C0000BF384689E710B504460CB906
:10418000012010BD94F83D0028B9002084F83C00BF
:10419000204600F025F8022084F83D00211D20680B
:1041A00001F0ACFF012084F8460000BF84F83E0017
:1041B00001213F200155402001554120015500BFFC
:1041C00000BF012084F842004320015544200155DE
:1041D0004520015500BF012084F83D000020D0E7B4
:1041E0007047704770B504460D4615B994F83E0007
:1041F0000BE0042D02D13F20005D06E0082D02D126
:104200004020005D01E04120005D012801D0012037
:1042100070BD1DB9022084F83E000EE0042D03D1CC
:1042200002213F20015508E0082D03D10221402042
:10423000015502E002214120015501222946206852
:1042400001F0C8FF23492068884203D02249206832
:10425000884201D1012000E0002028B12068406C94
:1042600040F40040216848641A49206888421BD005
:104270002068B0F1804F17D018492068884213D0C9
:104280001749206888420FD01649206888420BD011
:1042900011492068884207D013492068884203D01A
:1042A0001249206888420CD12068806800F0070617
:1042B000062E0CD02068006840F0010021680860DC
:1042C00005E02068006840F00100216808600020D7
:1042D0009EE700000000014000040140000400408F
:1042E00000080040000C0040004001400018004061
:1042F00030B504460D4600222946206801F06AFFC9
:1043000023492068884203D022492068884201D18D
:10431000012000E0002090B100BF2068006A41F257
:104320001111084050B92068006A8910084028B966
:104330002068406C20F400402168486400BF00BF42
:104340002068006A41F21111084050B92068006AE3
:104350008910084028B92068006820F00100216811
:10436000086000BF1DB9012084F83E000EE0042D56
:1043700003D101213F20015508E0082D03D101217F
:104380004020015502E0012141200155002030BDAF
:10439000000001400004014010B5044603492068B4
:1043A000884201D1FEF7CAFF10BD0000000C00409A
:1043B0007047F8B504460E46174694F84200202888
:1043C0002ED106B10FB90120F8BD012020630020D5
:1043D00060633A463146204602F0DAF90546EDB907
:1043E000206B012819D100BF0020009020680068D0
:1043F000009020684068009000BF00BF00BF00BF71
:1044000021680C3151E8001F41F0100021680C3187
:1044100041E80002002AF3D100E001252846D3E755
:104420000220D1E72DE9F84F044606F04FFC36494B
:104430002068884255D13549C878FCF79AF98346F7
:1044400032498878FCF795F94FF087410090FCF7E6
:1044500007F882465946FBF7ABFF8146FCF7D7F9D0
:1044600007462B4A2B4BFCF712F90546FCF7FAF9E5
:104470002949C86025494879FCF77BF92349009010
:104480000879FCF776F983464FF08741FBF7E8FFA0
:1044900082460099FBF78CFF8146FCF7B8F9074686
:1044A0001B4A1C4BFCF7F3F80546FCF7DBF91A49ED
:1044B00048611649C879FCF75CF9064613498879C2
:1044C000FCF757F907464FF08741FBF7C9FF054650
:1044D0003146FBF76DFF1049086114210B48FCF7CA
:1044E00095FD0E49206888420AD10D4881784078B0
:1044F00001EBC010084988610521094804F0E6FF76
:1045000006F0F6FBBDE8F88F004C004048010020A3
:104510007B14AE47E17A843F2C0000200014014058
:104520002400002010B5044600BF00BF21680C31F4
:1045300051E8001F21F4F07021680C3141E80002BD
:10454000002AF3D100BF00BF00BF2168143151E839
:10455000001F21F001002168143141E80002002A07
:10456000F3D100BF206B01280ED100BF00BF21682E
:104570000C3151E8001F21F0100021680C3141E896
:104580000002002AF3D100BF2068406900F08000DB
:10459000802820D100BF00BF2168143151E8001FDE
:1045A00021F080002168143141E80002002AF3D193
:1045B00000BFA06B78B10020A16B0865A06BFDF770
:1045C0001EFD40B1A06BFDF784FD202803D1102013
:1045D0006064032010BD2068406900F0400040285E
:1045E00020D100BF00BF2168143151E8001F21F025
:1045F00040002168143141E80002002AF3D100BFD5
:10460000E06B78B10020E16B0865E06BFDF7F7FC2B
:1046100040B1E06BFDF75DFD202803D11020606400
:104620000320D7E70020E084E0856064202084F840
:10463000420084F841000020206300BFCAE7000068
:1046400010B504460F49206888420AD1616C0EA05B
:1046500002F052F92046FFF765FF14210F48FCF7DE
:10466000D5FC0F49206888420AD1616C0DA002F088
:1046700043F92046FFF756FF05210F4804F026FFB7
:1046800010BD0000004C0040554152543420E994C4
:1046900099E8AFAF3A2025640A00000048010020E5
:1046A0000014014055534152543620E99499E8AF23
:1046B000AF3A2025640A0000240000202DE9F84FBD
:1046C0000446206805682068C668206847694FF07E
:1046D0000009CA4605F00F09B9F1000F0AD105F02B
:1046E000200038B106F0200020B1204601F0F4FE91
:1046F000BDE8F88FB9F1000F7CD007F0010018B9C0
:1047000006F49070002875D005F0010030B106F471
:10471000807018B1606C40F00100606405F0040026
:1047200030B107F0010018B1606C40F00200606425
:1047300005F0020030B107F0010018B1606C40F0E4
:104740000400606405F0080048B106F0200010B9CC
:1047500007F0010018B1606C40F008006064606C04
:10476000002846D005F0200028B106F0200010B146
:10477000204601F0B1FE20684069C0F3801A606CE9
:1047800000F0080010B9BAF1000F2DD0204601F05A
:104790005DFE2068406900F04000402820D100BF45
:1047A00000BF2168143151E8001F21F0400021684A
:1047B000143141E80002002AF3D100BFE06B50B190
:1047C0007748E16B0865E06BFDF76FFC88B1E06B43
:1047D000016D88470DE02046FFF732FF09E009E050
:1047E0002046FFF72DFF04E02046FFF729FF0020B9
:1047F00060647DE7206B012878D105F01000002867
:1048000074D006F010000028FAD000BF00200090FD
:1048100020680068009020684068009000BF00BFDA
:104820002068406900F04000402860D1E06B0068DB
:1048300040681FFA80F8B8F1000F56D0A08D4045AF
:1048400053DDA4F82E80E06BC069B0F5807F43D0C3
:1048500000BF00BF21680C3151E8001F21F48070B7
:1048600021680C3141E80002002AF3D100BF00BFEB
:1048700000BF2168143151E8001F21F001002168B8
:10488000143141E80002002AF3D100BF00BF00BF8D
:104890002168143151E8001F21F0400021681431D3
:1048A00041E80002002AF3D100BF202084F8420032
:1048B0000020206300BF00BF21680C3151E8001FB9
:1048C00021F0100021680C3141E80002002AF3D1E8
:1048D00000BFE06BFDF793FB02206063A08DE28DCB
:1048E000801A81B22046FFF79DFD01E742E0A08DCE
:1048F000E18D401A1FFA80F8E08DD0B3B8F1000FB7
:1049000037D000BF00BF21680C3151E8001F21F4EF
:10491000907021680C3141E80002002AF3D100BFF9
:1049200000BF00BF2168143151E8001F21F00100D1
:104930002168143141E80002002AF3D100BF202091
:1049400084F842000020206300BF00BF21680C31C2
:1049500051E8001F21F0100021680C3141E80002ED
:10496000002AF3D100BF0220606341462046FFF7D2
:1049700059FDBDE605F0800030B106F0800018B1A9
:10498000204601F025FFB3E605F0400030B106F007
:10499000400018B1204601F08FFDA9E600BFA7E650
:1049A0003964000810B504460CB9012010BDA06997
:1049B00000B100E000BF94F8410028B9002084F85D
:1049C0004000204600F029F8242084F841002068A7
:1049D000C06820F400502168C860204601F0FAFD4C
:1049E0002068006920F490402168086120684069CF
:1049F00020F02A00216848612068C06840F4005017
:104A00002168C86000206064202084F8410084F898
:104A100042000020606300BFC8E7704770B50446DD
:104A20000D46164694F8420020280BD105B10EB968
:104A3000012070BD0020206332462946204601F047
:104A4000A7FEF6E70220F4E710B504460F492068F8
:104A5000884219D106F03AF90D480088FF280ADA91
:104A600020684068C1B20A4802880088401C084B90
:104A700018800848815406F03BF90649044A128818
:104A80008818012106F086FB10BD0000004400409C
:104A9000AC000020FC1000202DE9F84F04460E4623
:104AA000174699464FF0000A94F8410020284AD151
:104AB00006B117B90120BDE8F88F002060642120FD
:104AC00084F84100FDF700FE8246A784E784A068D1
:104AD000B0F5805F04D1206910B90025B04602E02E
:104AE00035464FF000081BE0534600228021204647
:104AF000CDF8009001F09CFE08B10320DBE745B93A
:104B0000B8F80000C0F308002168486008F1020806
:104B100003E02878216848606D1CE08C401EE0842A
:104B2000E08C0028E0D15346002240212046CDF8F9
:104B3000009001F07DFE08B10320BCE7202084F83E
:104B400041000020B7E70220B5E7704700BFFEE74D
:104B5000014608684069C0F38020B0B16FF48060FE
:104B60000A68506100200863202081F83D00002081
:104B700081F83E00086C40F00400086400BF00208B
:104B800081F83C0000BF012070470020FCE70000D6
:104B90002DE9F84304460D4690461E46E76A206814
:104BA000006840F4806021680860082F04D0012F5D
:104BB00002D017F5803F06D12068006840F480706D
:104BC0002168086008E0206B112805D12068006882
:104BD00040F4807021680860434600224FF00111C4
:104BE0002046009600F023FA60B12068006800F4C7
:104BF0008070B0F5807F02D14FF4007020640320F4
:104C0000BDE8F8832069B0F5804F05D1E8B240F0E7
:104C100001002168086149E005F44070F02141EA93
:104C2000E01021680861334642462649204600F0DC
:104C30005DFA08B10120E3E7E8B221680861334674
:104C400042462049891F204600F050FA08B1012051
:104C5000D6E700BF002000902068406900902068DF
:104C60008069009000BF00BF2068006840F4807039
:104C700021680860434600224FF00111204600964B
:104C800000F0D5F958B12068006800F48070B0F5E4
:104C9000807F02D14FF4007020640320B0E705F458
:104CA0004070F12141EAE010216808613346424634
:104CB0000449891F204600F019FA08B101209FE736
:104CC00000209DE7080001002DE9F84304460D4649
:104CD00017469846E66A082E04D0012E02D016F533
:104CE000803F06D12068006840F480702168086029
:104CF00008E0206B122805D12068006840F480701D
:104D0000216808603B4600224FF001112046CDF893
:104D1000008000F08CF960B12068006800F48070B9
:104D2000B0F5807F02D14FF4007020640320BDE80D
:104D3000F8832069B0F5804F04D105F0FE002168AA
:104D4000086112E005F44070F02141EAE0102168AA
:104D5000086143463A460B49204600F0C7F908B1BE
:104D60000120E4E7E8B22168086143463A46054974
:104D7000891F204600F0BAF908B10120D7E70020CA
:104D8000D5E70000080001002DE9F84304460F466E
:104D900015469946DDE908862068006840F4806081
:104DA000216808602068006840F48070216808600D
:104DB000434600224FF001112046009600F037F9DB
:104DC00060B12068006800F48070B0F5807F02D187
:104DD0004FF4007020640320BDE8F88307F0FE0064
:104DE00021680861334642463E49204600F07EF97C
:104DF00008B10120F0E700BF002000902068406962
:104E0000009020688069009000BF00BF3246414694
:104E1000204600F02DFA50B1206C042805D12068FE
:104E2000006840F40070216808600120D4E7B9F1FF
:104E3000010F03D1E8B22168086117E0C5F307202C
:104E40002168086132464146204600F011FA50B10F
:104E5000206C042805D12068006840F400702168A7
:104E600008600120B8E7E8B221680861324641468F
:104E7000204600F0FDF950B1206C042805D12068CF
:104E8000006840F40070216808600120A4E72068F1
:104E9000006840F4807021680860434600224FF0AB
:104EA00001112046009600F0C2F858B12068006851
:104EB00000F48070B0F5807F02D14FF40070206460
:104EC000032089E7F8B240F0010021680861334609
:104ED00042460449204600F009F908B101207BE769
:104EE000002079E7020001002DE9F84304468846D6
:104EF00015469946DDE908672068006840F480702F
:104F000021680860334600224FF0011120460097C7
:104F100000F08DF860B12068006800F48070B0F592
:104F2000807F02D14FF4007020640320BDE8F88335
:104F300008F0FE00216808613B46324621492046C0
:104F400000F0D4F808B10120F0E700BF0020009085
:104F500020684069009020688069009000BF00BF11
:104F60003A463146204600F083F950B1206C0428BF
:104F700005D12068006840F40070216808600120B5
:104F8000D4E7B9F1010F03D1E8B22168086117E055
:104F9000C5F30720216808613A463146204600F0F3
:104FA00067F950B1206C042805D12068006840F4EE
:104FB0000070216808600120B8E7E8B22168086144
:104FC0000020B3E70200010070B504460D46164606
:104FD00025E02046FFF7BCFD08B1012070BD681C2C
:104FE000E8B1FDF771FB801BA84200D8BDB920686D
:104FF0004069C0F3800090B900202063202084F82D
:105000003D00002084F83E00206C40F02000206429
:1050100000BF002084F83C0000BF0120DEE72068CC
:105020004069C0F380000028D3D00020D6E72DE9E6
:10503000F04104460D4617461E46DDF8188038E05C
:10504000701CA8B3FDF740FBA0EB0800B04200D8ED
:1050500076BBC5F3074001280AD120684069A9B290
:105060000840A9B2884201D101200BE0002009E0EC
:1050700020688069A9B20840A9B2884201D1012004
:1050800000E00020B84214D100202063202084F8E2
:105090003D00002084F83E00206C40F02000206499
:1050A00000BF002084F83C0000BF0120BDE8F08173
:1050B000FFE7C5F3074001280AD120684069A9B27B
:1050C0000840A9B2884201D101200BE0002009E08C
:1050D00020688069A9B20840A9B2884201D10120A4
:1050E00000E00020B842ABD00020DFE72DE9F0411E
:1050F00004460D4616461F4658E020684069C0F336
:105100008020E8B12068006840F4007021680860E1
:105110006FF480602168486100202063202084F8BB
:105120003D00002084F83E00206C40F00400206424
:1051300000BF002084F83C0000BF0120BDE8F081E2
:10514000701C90B3FDF7C0FAC01BB04200D866BB1C
:10515000C5F3074001280AD120684069A9B2084078
:10516000A9B2884201D101200BE0002009E02068AB
:105170008069A9B20840A9B2884201D1012000E0AB
:10518000002090B900202063202084F83D000020FA
:1051900084F83E00206C40F02000206400BF002016
:1051A00084F83C0000BF0120C8E7FFE7C5F30740D3
:1051B00001280AD120684069A9B20840A9B28842F2
:1051C00001D101200BE0002009E020688069A9B22C
:1051D0000840A9B2884201D1012000E00020002847
:1051E0008BD00020AAE770B504460D46164637E07E
:1051F00020684069C0F30010A0B16FF01000216872
:10520000486100202063202084F83D00002084F8BD
:105210003E00206C206400BF002084F83C0000BFEA
:10522000012070BDFDF750FA801BA84200D8BDB91F
:1052300020684069C0F3801090B9002020632020CE
:1052400084F83D00002084F83E00206C40F02000EF
:10525000206400BF002084F83C0000BF0120E0E78C
:1052600020684069C0F380100028C1D00020D8E732
:1052700070B504460D46164625E02046FFF768FC4B
:1052800008B1012070BD681CE8B1FDF71DFA801B54
:10529000A84200D8BDB920684069C0F3C01090B9D9
:1052A00000202063202084F83D00002084F83E0088
:1052B000206C40F02000206400BF002084F83C00F7
:1052C00000BF0120DEE720684069C0F3C01000285D
:1052D000D3D00020D6E710B50021042002F0A8FEAC
:1052E0000021052002F0A4FE0021062002F0A0FE0D
:1052F00010BD000000B587B0142102A8FAF7FAFF2C
:105300002648006800F0020078B900BF0020019034
:105310002248006840F00200204908600846006802
:1053200000F00200019000BF00BF00BF002001900C
:105330001A481030006840F48000184910310860A5
:105340000846006800F48000019000BF00BF4FF4E1
:1053500040600290122003900120049002200590EA
:105360000420069002A90E48FDF7AAF80D480E4940
:1053700008600E48486000210B488160C1604FF40E
:1053800080410161002141618161C1610162FDF7DC
:10539000A5F908B100BFFEE707B000BD30380240F4
:1053A000000402400058004068150020A08601005B
:1053B0007FB582B0044615461E464FF0FF300123EC
:1053C00003AA214600900748FDF7D2FC4FF0FF30BA
:1053D00044F0010133462A4600900248FDF742FBA3
:1053E00006B070BD6815002037B582B0044615467A
:1053F0004FF0FF30012303AA214600900748FDF734
:10540000B7FC4FF0FF3044F0010101232A46009021
:105410000248FDF727FB05B030BD000068150020ED
:105420007CB504460E4615468DF804608DF805508F
:105430004FF0FF30022301AA214600900148FDF7FA
:1054400097FC7CBD6815002000B587B0284800682F
:1054500000F0020078B900BF0020019024480068E5
:1054600040F00200224908600846006800F002008F
:10547000019000BF00BF0220029000200390012095
:10548000049002A91B48FDF71BF8FFF733FF00F05B
:1054900033F8C021022002F0CBFD0021032002F0EE
:1054A000C7FD0021042002F0C3FD0021052002F009
:1054B000BFFD0021062002F0BBFD0F21082002F0F5
:1054C000B7FD0321092002F0B3FD27210A2002F0D5
:1054D000AFFD24210C2002F0ABFD24210D2002F0B1
:1054E000A7FD7F21102002F0A3FD07B000BD000042
:1054F000303802400004024010B54021092002F07B
:1055000097FD4021092002F093FD10BD10B504461F
:10551000207B012802D1206802F088FB0020206057
:105520006060A060207310BD0246002301230DE0DF
:1055300002F07F000870D2092AB1087840F080009C
:105540000870491C01E0184670475B1C042BEFDD16
:105550004FF0FF30F8E770B504460E46002520688E
:1055600098B901202073304602F022FD20602068A7
:10557000E0B100206060A66003E00020216848558B
:105580006D1CA068A842F8D810E00220207303E048
:105590000020216848556D1CA068A842F8D800205A
:1055A0006060A068B04201D20020206070BD0000A1
:1055B0002DE9FF4F83B082468B469146159C00250E
:1055C000002002900F2701904846FAF7BAFE0FFA22
:1055D00080F8B9F1000F03D1012007B0BDE8F08FCA
:1055E00008F10200384487B2109808B145F002056E
:1055F000129878B145F004051298FAF7A2FEC0B2ED
:1056000002901398FAF79DFE01460298001D084487
:10561000384487B2119820B1012804D0022808D15B
:1056200004E000BF07E045F00C0504E045F0140578
:1056300001E00220D1E700BF149808B145F024052D
:10564000BAF1000F02D0BBF1000F01D10320C4E773
:1056500045F0C0055046FAF774FE06465846FAF77C
:1056600070FE3044001D384487B239462046FFF7AB
:1056700072FF206808B90420AFE739462068FAF7BE
:1056800039FE10216268501C606020688154D4E9A2
:105690000023D118781FFFF747FF00B2019001984F
:1056A000002804DA2046FFF731FF052095E76168FE
:1056B00001980844606000216268501C60602068A6
:1056C000815404216268501C6060206881544D211F
:1056D0006268501C60602068815451216268501CCF
:1056E00060602068815454216268501C60602068AA
:1056F00081546268501C6060206881540421626893
:10570000501C6060206881546168481C606020689B
:1057100045540698010A6268501C606020688154F4
:105720000698C1B26268501C606020688154C8F35A
:1057300007216268501C6060206881546268501CB8
:105740006060206800F80280D4E9001288184246A0
:105750004946FAF7FDFD60684044606005F00400CA
:10576000B8B30026139808B938A013901298FAF726
:10577000E8FD86B2310A6268501C6060206881547E
:105780006268501C606020688654D4E90012881852
:1057900032461299FAF7DCFD606830446060139875
:1057A000FAF7CFFD86B2310A6268501C606020684B
:1057B00081546268501C606020688654D4E90012ED
:1057C000881832461399FAF7C3FD60683044606068
:1057D00000BF05F08000C8B15046FAF7B2FD86B2AE
:1057E000310A6268501C6060206881546268501CF5
:1057F000606020688654D4E9001288183246514609
:10580000FAF7A6FD60683044606000BF05F0400014
:10581000C8B15846FAF795FD86B2310A6268501C45
:105820006060206881546268501C60602068865403
:10583000D4E90012881832465946FAF789FD6068A3
:105840003044606000BF0020C7E600000000000098
:105850002DE9FF4F83B0834617469946139C0025D8
:1058600000260020029001908046BBF1000F03D17A
:10587000012007B0BDE8F08F00260AE00498805DA3
:10588000232803D00498805D2B2801D10220F0E763
:10589000761C0498805D0028F0D148F030081198FB
:1058A00008B148F0010806EB0900851C109820B1EA
:1058B000012804D002280AD105E000BF09E048F021
:1058C0000208AD1C05E048F00408AD1C01E003200F
:1058D000CFE700BF8FB33878022821D14FF0000AFC
:1058E00000BF50460AF1010A385C7D28F9D1AAF1BF
:1058F000030A0AF1070002900298A9EB000AE81CCB
:10590000A0EB0A012046FFF726FE206808B9042014
:10591000AFE7EA1CA2EB0A012068FAF7EBFC19E0FA
:10592000691D2046FFF717FE206808B90420A0E78C
:10593000691D2068FAF7DEFC0CE0FFE7691D2046D0
:10594000FFF709FE206808B9042092E7691D206866
:10595000FAF7D0FC6168481C6060206800F801809C
:10596000D4E9000281182846FFF7DEFD0190019876
:10597000002804DA2046FFF7C9FD052079E76168B1
:10598000019808446060C6F307216268501C60609B
:10599000206881546268501C606020688654D4E995
:1059A0000012881832460499FAF7D2FC6068304435
:1059B0006060109860B14FEA1B216268501C606003
:1059C000206881546268501C6060206800F802B052
:1059D000C7B1387802280BD1D4E9001288183946AB
:1059E000029AFAF76EFC616802980844606009E068
:1059F000D4E9001288184A463946FAF762FC606812
:105A000048446060002034E770B505460C46042128
:105A10002046FFF7A0FD206808B9012070BD702165
:105A20006268501C60602068815402216268501CCA
:105A300060602068815429126268501C6060206890
:105A400081546268501C6060206885540020E5E73E
:105A500070B505460C4604212046FFF77CFD206802
:105A600008B9012070BD62216268501C6060206826
:105A7000815402216268501C6060206881542912A0
:105A80006268501C6060206881546268501C6060CD
:105A9000206885540020E5E72DE9FF5F8046174622
:105AA00099460E9C0026B246B3460025B8F1000F79
:105AB00003D1012004B0BDE8F09F0BE057F82500AA
:105AC00008B90220F6E757F82500FAF73AFC064431
:105AD000681CC5B24D45F1DB09EB4900801C00EBA9
