:020000040800F2
:1000000018370120310200088F43000885350008A9
:100010008B430008ED0C00086D4B00080000000049
:10002000000000000000000000000000990100082E
:100030003B14000800000000DD01000891430008A7
:100040004B0200084B0200084B0200084B0200085C
:100050004B0200084B0200084B0200084B0200084C
:100060004B0200084B0200084B0200084B0200083C
:100070004B0200084B0200084B0200084B0200082C
:10008000F1120008011300084B0200084B0200089F
:100090004B0200084B0200084B0200084B0200080C
:1000A0004B0200084B0200084B0200084B020008FC
:1000B0004B0200084B0200089D4300084B02000859
:1000C0004B0200084B0200084B0200084B020008DC
:1000D0004B0200084D4B00085D4B00084B02000826
:1000E0004B0200084B0200084B0200084B020008BC
:1000F0004B0200084B0200084B0200084B020008AC
:100100004B0200084B0200084B0200084B0200089B
:100110004B0200084B0200084B0200084B0200088B
:100120004B0200084B0200084B0200084B0200087B
:100130004B02000800000000000000004B02000815
:100140004B0200084B0200084B0200084B0200085B
:10015000111300084B020008211300084B0200088D
:100160004B0200084B0200084B0200084B0200083B
:100170004B0200084B0200080000000000000000D5
:100180004B020008DFF80CD000F0ECFC0048004700
:10019000E95A000818370120224B19680868B0E8AE
:1001A000F00F80F30988BFF36F8F4FF0000080F3EA
:1001B00011884EF00D0E70470000000006480068E0
:1001C000006880F3088862B661B6BFF34F8FBFF353
:1001D0006F8F00DF00BF00BF08ED00E0EFF3098084
:1001E000BFF36F8F0F4B1A6820E9F00F106008B54E
:1001F0004FF0BF0080F31188BFF34F8FBFF36F8FB5
:1002000007F0C6F94FF0000080F31188BDE8084000
:1002100019680868B0E8F00F80F30988BFF36F8FA2
:10022000704700BF48000020EFF3058070470000D2
:100230000648804706480047FEE7FEE7FEE7FEE780
:10024000FEE7FEE7FEE7FEE7FEE7FEE7994300086C
:10025000850100082DE9F05F0546002092469B4687
:1002600088460646814640241BE0284641464746CC
:10027000224600F0EAFA53465A46C01A914110D37A
:1002800011461846224600F0D1FA2D1A67EB0108F4
:100290004F4622460120002100F0C8FA17EB000962
:1002A0004E41201EA4F10104DFDC484631462A46B7
:1002B0004346BDE8F09F40EA01039B0703D009E0F5
:1002C00008C9121F08C0042AFAD203E011F8013B42
:1002D00000F8013B521EF9D27047D2B201E000F89B
:1002E000012B491EFBD270470022F6E710B51346DA
:1002F0000A4604461946FFF7F0FF204610BD30B508
:1003000005462A460B4612F8010B13F8014B08B1BB
:10031000A042F8D01CB1002802D06D1CF1E728469D
:1003200030BDCAB2401E10F8011F8A4202D0002917
:10033000F9D100207047421C10F8011B0029FBD1A5
:10034000801A704710B5044600E0401C0378002B6B
:10035000FBD100E0401C521E04D311F8013B037096
:10036000002BF7D100210170204610BD30B50546A5
:100370000020034600E05B1C934205D2EC5CC85CA5
:10038000201A01D1002CF6D130BD70B5064604F01C
:1003900043FC046805460A220021304600F077FA43
:1003A0002C6070BDF0B480EA0102D40F4200B2EBC1
:1003B000410F02D20246084611464A0042D0C30D00
:1003C000DDB2C1F3C752AD1A202D35DAC1F31601E3
:1003D00041F4000204B15242C5F1200602FA06F1CE
:1003E0002A411044B3EBD05F23D0C4B1012DA0EB60
:1003F000C35009DCF0BC4FF0004202EAC352DBB24A
:1004000000F5000000F084BA400000F1807000EBBD
:10041000C350A0F1807040EAD170490009E049085A
:1004200041EAC071A0EBC35000F50000400800EBAA
:10043000C350F0BC00F063BA6142012202EB4101FB
:10044000001BF6E7F0BC704781F00041AAE780F09E
:100450000040A7E780EA010210B502F00043400027
:1004600022D04A001FD0010E01EB1261C0F35600EA
:10047000C2F3560240F4000042F40002A0FB022046
:1004800000047F39140400D0401C50EA124001D40B
:100490004000491EC2B20C0604EBD010401C4008BC
:1004A000802A02D003E0002010BD20F001000029C6
:1004B00000DA0020184310BD30B480EA010202F0D7
:1004C000004530F0004221F0004013D090B1C30D40
:1004D000D40DC2F31601C0F31600E41A41F4000172
:1004E00040F400027D34914201D3641C00E04900D5
:1004F000002C02DA30BC002070474FF400000023CB
:10050000914201D3891A034340084FEA4101F7D1D0
:1005100051B1914202D14FF0004105E002D24FF0BB
:10052000010101E06FF0010103EBC450284430BC2D
:1005300000F0E5B92DE9FE4F804681EA0300C00FC7
:100540000C46009021F0004123F00045B8EB02007A
:10055000A94105D24046214690461C460B4602461C
:1005600023F00040104347D0270DC7F30A00C3F320
:100570000A510290401A019040286BDAC3F313002D
:1005800040F4801B0098924620B10023D2EB030A6E
:1005900063EB0B0B01985946C0F14002504600F046
:1005A00045F906460D4650465946019A00F05DF958
:1005B00010EB08006141002487EA115284EAE773D6
:1005C0001A4340D0009A62B3019A012A4FEA0752B7
:1005D00015DC001B61EB02014FF0004202EA0752FA
:1005E000CDE90042001C41F5801132462B4600F057
:1005F000CCF903B0BDE8F08F40462146F9E7001B77
:1006000061EB0201001C41F5801300185B412018CA
:10061000A2F5001747EB030140EAD570B6196D410A
:1006200011E06D084FEA360645EAC0754FEA0752F9
:10063000001B61EB0201001C41F5801149084FEAE3
:1006400030000019514132462B4603B0BDE8F04F4F
:1006500000F08CB90098012240000023D0EB020288
:1006600063EBE073009821464FEAE074B8EB0000BA
:1006700061EB0401E9E783F000435BE781F00041AF
:1006800058E72DE9FE4F81EA030404F0004421F00D
:10069000004100944FF0000B23F0004350EA0104A6
:1006A0005ED052EA03045BD0C3F30A54C1F30A5587
:1006B0002C44A4F2F3340194A0FB0254C1F31301BF
:1006C00041F48011C3F3130343F4801301FB02448C
:1006D00000FB034E840A970A44EA815447EA835791
:1006E000A4FB076802958D0A05FB07854FEA932C4A
:1006F00004FB0C542705029D4FEA065847EA1637BB
:10070000B5EB08056EEB070C870E920E47EA8117D2
:1007100042EA8312A7FB0201B6EB0B0164EB000473
:100720002B0D43EA0C335E1844EB1C50DA4651465D
:10073000E7FB0201C5F313044FEA0B3343EA1453FA
:100740004FEA0432019C43EA0603A4F10C0402942C
:10075000009CCDE900B400F018F903B0BDE8F08FBB
:1007600000200146F9E796230022114600F0D0B898
:100770000EB5C10F80EAE0700844CA07002140F2BC
:1007800033438DE80E000A460B4600F0FEF803B036
:1007900000BD70B5C1F30A5201F000450024C1F359
:1007A000130140F2FF3341F480119A4201DA002034
:1007B00070BD40F233439A42A2F2334203DC52420C
:1007C00000F043F800E090402C43F1D0404270BD6F
:1007D00030B5041E71F1000404DB4FF000444042C8
:1007E00064EB0101141E73F1000405DB1C464FF09D
:1007F0000043524263EB0403994208BF904230BD6C
:1008000030B50B46014600202022012409E021FAE0
:1008100002F59D4205D303FA02F5491B04FA02F5DD
:100820002844151EA2F10102F1DC30BD202A04DBB0
:10083000203A00FA02F1002070479140C2F12003F3
:1008400020FA03F3194390407047202A04DB203A32
:1008500021FA02F00021704721FA02F3D040C2F1E0
:1008600020029140084319467047202A06DBCB1727
:10087000203A41FA02F043EAE07306E041FA02F35B
:10088000D040C2F1200291400843194670472DE93B
:10089000F04791460F4680460446002614F8015B57
:1008A0002DB100F071F90068405DC007F6D12B2D25
:1008B00002D02D2D18D0641E4A463946204600F03D
:1008C00067F927B13968A14201D1C7F800807105E5
:1008D0004FF002040BD54042002803DD04F09CF9E0
:1008E0000460A007BDE8F08746F48066E4E70028CE
:1008F000F8DA04F091F904606FF00040F2E70029A3
:10090000A8BF7047401C490008BF20F00100704795
:1009100010B4B0FA80FC00FA0CF050EA010404BFF5
:1009200010BC704749B1CCF1200421FA04F411FA4B
:100930000CF118BF012121430843A3EB0C01CB1D8F
:100940004FEA00614FEA102042BF002010BC704700
:1009500000EBC35010440029A4BF10BC7047401CDA
:10096000490008BF20F0010010BC704710B5141EEC
:1009700073F1000408DA401C41F1000192185B4158
:100980001A4301D120F0010010BD2DE9F04D92462F
:100990009B4611B1B1FA81F202E0B0FA80F2203246
:1009A0009046FFF743FF04460F4640EA0A0041EA3B
:1009B0000B0153465A46084313D0114653EA01002F
:1009C00019D0C8F140025046FFF73FFF05460E46DA
:1009D000504659464246FFF729FF084305D00120FB
:1009E00004E020463946BDE8F08D0020054346EA84
:1009F000E0762C4337430A986305E40AA0EB08002D
:100A00000022FD0A44EA47540A3002D5002001467C
:100A1000E9E7010510196941DDE908450019694157
:100A2000BDE8F04DA2E72DE9F04D81EA030404F0A2
:100A3000004B21F0004514464FF0000A23F000411E
:100A400050EA050220D054EA01021DD0C5F30A572E
:100A50000246C5F31303C1F31300C1F30A5640F471
:100A6000801543F48013A7EB0608101BD64608F246
:100A7000FD3873EB050002D308F1010801E092187C
:100A80005B41B8F1000F03DA00200146BDE8F08DAC
:100A900000204FF48011064684460EE0171B73EBCE
:100AA000050705D3121B63EB050306434CEA010C53
:100AB00049084FEA300092185B4150EA0107EDD136
:100AC00052EA030012D082EA040083EA05010843D7
:100AD00005D0101BAB4106D20122002306E0002204
:100AE0004FF0004302E06FF0010253101AEB0600D2
:100AF0004CEB085110EB0A0041EB0B01BDE8F04D47
:100B0000FFF734BF70B521F0004303430CD0C1F3AD
:100B10000A550024D5EB040564EB0403D617AD1A7F
:100B2000B34102DB0020014670BD201841EB0251A9
:100B300070BDC1F30A52C1F3130140F2FF3341F417
:100B400080119A4202DA00200146704740F2334396
:100B50009A42A2F2334202DC5242FFF776BEFFF71E
:100B600065BE0000064C074D06E0E06840F001035A
:100B700094E8070098471034AC42F6D3FFF706FB21
:100B8000387D0008587D0008004870472C7D00081B
:100B90002DE9F05F82460078002715468B460AF162
:100BA0000104B946302801D09DB113E014F8010BBF
:100BB0000127782803D0582801D045B10AE00DB1AB
:100BC000102D07D10027102514F8010B02E008258D
:100BD00000E00A250026B0460EE005FB080005FBF4
:100BE00006F1012701EB10461FFA80F8B6F5803FA9
:100BF00000D3B94614F8010B294600F069F8002823
:100C0000EBDABBF1000F05D00FB1641E00E05446D3
:100C1000CBF80040B9F1000F06D003F0FDFF022130
:100C20000160C81EBDE8F09F48EA0640FAE72DE9DA
:100C3000F04D00231A461B1A8A4103DB00200146AF
:100C4000BDE8F08DC1F30A52C1F3130141F48015E0
:100C50004FF0000BD10702D100186D41521E002742
:100C6000044640F2FF11384601EB620A3E468046D8
:100C7000024600204FF48011FFF7E7FDC2197141D1
:100C8000BB1846EB0100B4EB030C75EB000C04D36E
:100C9000E41A65EB000517460E46241908F1010019
:100CA0006D4180463428E3DDF91946EB0600091B47
:100CB000A84103D24FF0FF32134601E00022134651
:100CC0001BEB070046EB0A51BDE8F04DFFF74EBEA7
:100CD0003A2800D2303820F02002412A01D3A2F174
:100CE0003700884201D34FF0FF30704700BFFEE766
:100CF00030B58BB000200790089009900A9001252C
:100D00002BA32DA22EA130A003F032FF07A80021B3
:100D100002910391CDE9041000912B0224A20191CC
:100D200025A127A002F024FF00283BD1089A91B208
:100D3000079800F0EBFCFA2000F07EFC0446002C43
:100D40002CD0204603F0C4FA022827D1204603F015
:100D50008FF906281DD2DFE800F003080C101418E4
:100D600025A003F005FF002517E02AA003F000FFEF
:100D700013E031A003F0FCFE0FE039A003F0F8FE11
:100D80000BE041A003F0F4FE07E04BA003F0F0FEFF
:100D900003E054A003F0ECFE00BF00BF07A802F080
:100DA00096FE02E058A003F0E3FE28460BB030BDEB
:100DB0003636363600000000333332310000000092
:100DC0006368656E58000000436C6F75645F44652E
:100DD000764C696E6B0D0A50524F49443A20257388
:100DE0002C09415549463A2025732C09444556495A
:100DF000443A25730D0A00004D5154542042726F3D
:100E00006B657220E8BF9EE68EA5E68890E58A9F16
:100E1000210A00004D515454E8BF9EE68EA5E5A47A
:100E2000B1E8B4A5EFBC9AE58D8FE8AEAEE9949930
:100E3000E8AFAF5C720A00004D515454E8BF9EE623
:100E40008EA5E5A4B1E8B4A5EFBC9AE99D9EE6B3F2
:100E500095E79A84636C69656E7469640D0A000095
:100E60004D515454E8BF9EE68EA5E5A4B1E8B4A563
:100E7000EFBC9AE69C8DE58AA1E599A8E5A4B1E8C6
:100E8000B4A50D0A000000004D515454E8BF9EE681
:100E90008EA5E5A4B1E8B4A5EFBC9AE794A8E688CE
:100EA000B7E5908DE68896E5AF86E7A081E994994D
:100EB000E8AFAF5C720A00004D515454E8BF9EE6A3
:100EC0008EA5E5A4B1E8B4A5EFBC9AE6AF94E5A67B
:100ED00082E99D9EE6B395E79A84746F6B656E21F7
:100EE0000D0A00004D515454E8BF9EE68EA5E5A4BE
:100EF000B1E8B4A5EFBC9AE69CAAE79FA5E994994E
:100F0000E8AFAF5C720A00004D5154545F5061630A
:100F10006B6574436F6E6E656374204661696C65C2
:100F2000640D0A002DE9F04790B0804600200C9037
:100F30000D900E900F900B900A900990089000264B
:100F40000790002500248146404603F0C1F906467B
:100F5000F01E0D287ED2DFE800F01A434B637E9E20
:100F6000869E929E9E9E070008AB0BAA0AA9404649
:100F700003F038F805464DB9BDF820305FA0DDE933
:100F80000A1203F0F5FD0CA802F0A1FD86E064480A
:100F900007A908AA0BABCDE90021029009AA0AA96A
:100FA000404603F075F80546002D18D1BDF8200025
:100FB0000090BDF824205BA0DDE90A1303F0D8FD02
:100FC0000B9804F043FC074637B904F029FC82462D
:100FD000514663A003F0CCFD384604F0F5FB5DE01C
:100FE000404603F035F910B962A003F0C1FD55E0A9
:100FF000404603F04BF990B966A003F0B9FD0CA987
:101000000A2002F029FF50B968A003F0B1FD0D9A43
:1010100091B20C9800F07AFB0CA802F058FD3DE06C
:101020003F480188404603F040F990B965A003F0BD
:101030009FFD0CA90A2002F0EBFE50B967A003F057
:1010400097FD0D9A91B20C9800F060FB0CA802F08D
:101050003EFD23E01FE0404603F009F910B966A009
:1010600003F086FD1AE0404603F06CF918B968A059
:1010700003F07EFD02E06DA003F07AFD0EE0404635
:1010800003F07AF918B970A003F072FD02E075A0C0
:1010900003F06EFD02E04FF0FF3500BF00BF00F02F
:1010A000CDF9681C10B910B0BDE8F0877D210B9810
:1010B000FFF737F90446A4B1681C90B1641C06E040
:1010C00014F8012B484609F1010904A90A542078B3
:1010D000302802DB20783928F2DD04A8FFF755F923
:1010E00081460F2E01D0032E05D10A9804F0BCFCD6
:1010F0000B9804F0B9FC00BFD5E70000636D64698C
:10110000643A2025732C207265713A2025732C20B7
:101110007265715F6C656E3A2025640D0A000000EF
:1011200014000020746F7069633A2025732C2074BA
:101130006F7069635F6C656E3A2025642C20706166
:10114000796C6F61643A2025732C207061796C6F23
:1011500061645F6C656E3A2025640D0A0000000032
:101160004572726F72206265666F72653A205B2508
:10117000735D0A00546970733A094D5154542050FC
:1011800075626C6973682053656E64204F4B0D0A5D
:1011900000000000546970733A095265762050755A
:1011A000626C6973685265630D0A0000546970735C
:1011B0003A0953656E64205075626C6973685265B4
:1011C0006C0D0A00546970733A09526576205075A7
:1011D000626C69736852656C0D0A00005469707323
:1011E0003A0953656E64205075626C697368436F89
:1011F0006D700D0A00000000546970733A09526561
:1012000076205075626C697368436F6D700D0A00CB
:10121000546970733A094D51545420537562736385
:1012200072696265204F4B0D0A00000054697073AB
:101230003A094D5154542053756273637269626563
:10124000204572720D0A0000546970733A094D51BD
:10125000545420556E537562736372696265204FF2
:101260004B0D0A00546970733A094D51545420557E
:101270006E537562736372696265204572720D0AFE
:101280000000000070B586B004460D460026002020
:10129000029003900490059006E054F826100EA0EA
:1012A00003F066FC701CC6B2AE42F6DB02A82B4609
:1012B000224600210090142002F0F2FD50B9039A5A
:1012C00091B2029800F022FA02A802F000FC00207D
:1012D00006B070BD0120FBE75375627363726962EB
:1012E0006520546F7069633A2025730D0A00000071
:1012F00010B5024800F0C8FA10BD0000EC00002054
:1013000010B5024800F0C0FA10BD00004C010020EA
:1013100010B5024800F0B8FA10BD0000F40100203A
:1013200010B5024800F0B0FA10BD000054020020D1
:101330000146087810381823B0FBF3F20848805CA7
:10134000C865032A05D908686FF30900001D886580
:1013500003E008686FF309008865886D7047000036
:101360000F7C0008014600208A6A8B69CBB932B134
:10137000012A0DD0022A03D0032A10D10EE000BFAB
:10138000CB6A03F08073B3F1807F00D1012007E0C6
:10139000CB6AB3F1C07F00D1012001E000E000BFC3
:1013A00034E08B69B3F5005F1AD132B1012A07D05E
:1013B000022A03D0032A11D10AE000BF01200EE067
:1013C000CB6A03F08073B3F1807F00D1012006E087
:1013D000CB6AB3F1C07F00D1012000E000BF15E06F
:1013E00032B1012A05D0022A04D0032A0CD103E02D
:1013F00000BF00BF012008E0CB6A03F08073B3F1A7
:10140000807F00D1012000E000BF00BF704730B5F1
:101410000468246824F4802405682C6004686360F0
:101420008468402C04D10468A2600468E16003E091
:101430000468A1600468E26030BD704710B54FF4E5
:1014400080710348FEF750FF00200249088010BD5C
:10145000B40200200C00002010B5FFF7EFFF32A00F
:1014600003F086FB0CE031A003F082FB324933A08D
:1014700003F07EFB4FF47A7005F0C8FF012010BD29
:101480004FF47A7231A132A000F00AF90028EAD1B3
:1014900031A003F06DFB0CE033A003F069FB26499B
:1014A00026A003F065FB4FF47A7005F0AFFF012032
:1014B000E5E74FF47A7225A130A000F0F1F800289A
:1014C000EAD132A003F054FB0CE034A003F050FB4F
:1014D00019491AA003F04CFB4FF47A7005F096FFFF
:1014E0000120CCE741F2883218A131A000F0D8F8F1
:1014F0000028EAD137A003F03BFB08E039A003F055
:1015000037FB4FF47A7005F081FF0120B7E741F215
:1015100088320EA138A000F0C3F80028EED141A017
:1015200003F026FB0020AAE741540A00415420455D
:1015300052524F52210A0000B402002072785F62BA
:1015400075666665723A2573200A00004F4B0000ED
:1015500041540D0A0000000041542B43574D4F44A5
:10156000453D310A0000000041542B43574D4F4484
:10157000453D31204552524F520A000041542B4301
:10158000574D4F44453D310D0A000000455350383A
:101590003236365F574946490A00000045535038F5
:1015A0003236365F57494649204552524F520A005B
:1015B00041542B43574A41503D2248414841313222
:1015C00033222C22637832303032363137220D0A02
:1015D00000000000455350383236365F5443500AFD
:1015E00000000000455350383236365F54435020D7
:1015F0004552524F520A000041542B434950535414
:101600004152543D22544350222C223132342E3246
:1016100032312E3137392E323031222C31383833B5
:101620000D0A00004553503832363620496E697431
:10163000204F4B0A0000000070B50546002400BF93
:1016400000F08EF8A0B90FA11048FEF758FE04462E
:101650001CB90FA003F08CFA0AE03A212046FEF7ED
:1016600060FE044614B1641C204670BD0020FCE7F7
:10167000052005F0CBFE681E85B2002DE0DC0020C1
:10168000F3E700004950442C00000000B4020020A1
:10169000495044206E6F7420666F756E64210A0095
:1016A0002DE9F04105460E461446FFF7C7FE2846D1
:1016B000FEF741FE87B23946284606F0A7F8012119
:1016C0000E4806F097F80FE000F04AF848B93146A6
:1016D0000A48FEF714FE20B1FFF7B0FE0020BDE877
:1016E000F0810A2005F092FE201EA4F10104EBD146
:1016F00003A003F03DFA0220F1E70000B40200204D
:1017000054696D656F75740A0000000030B589B0CA
:1017100005460C46202101A8FEF7E6FDFFF78EFEE8
:1017200022460AA101A803F033FA4FF47A720BA102
:1017300001A8FFF7B5FF30B92146284606F066F844
:10174000002009B030BD0120FBE7000041542B43CD
:10175000495053454E443D25640D0A003E000000AB
:1017600010B51148008808B9012010BD06F0C2F874
:1017700004460E480068201A642807D90A480088E1
:101780000B490880094804600020EEE706480088FD
:1017900007490988884205D0044804600248008847
:1017A000034908800120E0E70C0000201000002021
:1017B0000E00002070B50446A56D00F057FB0646EC
:1017C00094F83500022808D08020606500BF002012
:1017D00084F8340000BF012070BD2068006820F04C
:1017E0001600216808602068406920F080002168A8
:1017F0004861206C08B9A06C28B12068006820F00E
:101800000800216808602068006820F00100216855
:10181000086010E000F02AFB801B05280BD920206F
:101820006065032084F8350000BF002084F8340090
:1018300000BF0320D0E72068006800F00100002806
:10184000E8D194F85C103F208840A860012084F81B
:10185000350000BF002084F8340000BF00BFBBE7A4
:10186000014691F83500022803D080204865012008
:101870007047052081F835000868006820F00100F5
:101880000A6810600020F3E7F8B5044600200090D5
:101890008C4800684FF41651B0FBF1F7A56D2E6827
:1018A00094F85C1008208840304098B120680068A7
:1018B00000F0040070B12068006820F00400216886
:1018C000086094F85C1008208840A860606D40F0C3
:1018D0000100606594F85C1001208840304068B1D8
:1018E0002068406900F0800040B194F85C1001204D
:1018F0008840A860606D40F00200606594F85C105C
:1019000004208840304068B12068006800F0020080
:1019100040B194F85C1004208840A860606D40F0ED
:101920000400606594F85C1010208840304078B363
:101930002068006800F0080050B394F85C10102094
:101940008840A8602068006800F4802080B120688A
:10195000006800F4002028B9206CC8B12046216C32
:10196000884715E0A06C98B12046A16C88470FE02D
:101970002068006800F4807028B92068006820F0B2
:10198000080021680860206C10B12046216C88474F
:1019900094F85C10202088403040002865D02068F2
:1019A000006800F0100000285FD094F85C10202040
:1019B0008840A86094F83500052828D12068006880
:1019C00020F01600216808602068406920F080003F
:1019D00021684861206C08B9A06C28B120680068B3
:1019E00020F008002168086094F85C103F208840CF
:1019F000A860012084F8350000BF002084F834007E
:101A000000BF206D10B12046216D8847F8BD2068C9
:101A1000006800F4802080B12068006800F4002095
:101A200028B9606C10B12046616C88471DE0E06BFE
:101A3000D8B12046E16B884717E02068006800F4C1
:101A4000807068B92068006820F010002168086084
:101A5000012084F8350000BF002084F8340000BF66
:101A6000E06B10B12046E16B8847606D38B3606D64
:101A700000F00100F0B1052084F83500206800680E
:101A800020F001002168086000BF0098401C009011
:101A9000B84200D905E02068006800F00100002885
:101AA000F3D100BF012084F8350000BF002084F886
:101AB000340000BFE06C10B12046E16C884700BFE5
:101AC000A4E70000240000202DE9F0410446002591
:101AD00000F0CCF9074614B90120BDE8F081606A36
:101AE00000B100BF022084F8350000BF002084F858
:101AF000340000BF2068006820F001002168086001
:101B00000AE000F0B3F9C01B052805D92020606564
:101B1000032084F83500E0E72068006800F0010049
:101B20000028EED12068056821480540D4E901016C
:101B30000843E16808432169084361690843A169D2
:101B40000843E1690843216A08430543606A0428A1
:101B500003D1D4E90B0108430543206805602068E0
:101B6000456925F00705606A0543606A04280DD1C0
:101B7000A06A0543E06A48B12046FFF7F3FB28B1AD
:101B800040206065012084F83500A6E720684561A3
:101B90002046FFF7CDFB064694F85C103F208840B6
:101BA000B06000206065012084F83500002094E7D3
:101BB0003F8010F02DE9F04704460D4616461F46BB
:101BC0004FF00008D4F8589000BF94F83400012872
:101BD00002D10220BDE8F087012084F8340000BF64
:101BE00094F83500012825D1022084F83500002022
:101BF00060653B46324629462046FFF708FC94F8CC
:101C00005C103F208840C9F808002068006840F058
:101C1000160021680860206C28B12068006840F038
:101C20000800216808602068006840F00100216811
:101C3000086006E000BF002084F8340000BF4FF0C9
:101C400002084046C6E7000031B500F00FF905462E
:101C5000009C601C10B105480078044400BF00F0EF
:101C600005F9401BA042FAD338BD000090000020C7
:101C700078B502460B460021DAE001268E401D6849
:101C800005EA0604002C74D01D7905F00305012D2A
:101C900004D01D7905F00305022D13D190684E0084
:101CA0000325B540A8434E00DD68B5402843906049
:101CB000506801258D40A8431D79C5F300158D405E
:101CC000284350601D7905F00305032D09D0D06825
:101CD0004E000325B540A8434E009D68B5402843FB
:101CE000D0601D7905F00305022D13D1CE0802F155
:101CF000200555F826004D07EE0E0F25B540A843E8
:101D00004E07F60E1D69B5402843CE0802F12005A6
:101D100045F8260010684E000325B540A8431D79FC
:101D200005F003054E00B540284310605D6805F4DA
:101D30004035002D7BD000BF002500953F4D2D681C
:101D400045F480453D4E356035462D6805F48045A7
:101D5000009500BF00BF3A4D8E0855F826008D074C
:101D60002E0F0F25B540A843364DAA4202D10025BB
:101D700029E05CE0344DAA4201D1012523E0334D36
:101D8000AA4201D102251EE0314DAA4201D103250C
:101D900019E0304DAA4201D1042514E02E4DAA428B
:101DA00001D105250FE02D4DAA4201D106250AE0FB
:101DB0002B4DAA4201D1072505E02A4DAA4201D1A7
:101DC000082500E009258E07360FB54028431C4D35
:101DD0008E0845F82600244D2868A0435D6805F468
:101DE000801505B12043204D28602D1D2868A04393
:101DF0005D6805F4001505B120431B4D2D1D2860BD
:101E0000194D2D1F2868A0435D6805F4003505B104
:101E10002043154D2D1F28602D1F2868A0435D68A5
:101E200005F4803505B120430F4D083D2860491C5D
:101E30001D68CD40002D7FF420AF78BD44380240AE
:101E4000083801400000024000040240000802403F
:101E5000000C024000100240001402400018024032
:101E6000001C024000200240083C0140014800687C
:101E7000704700008800002070B504460CB90120AE
:101E800070BD94F83D0028B9002084F83C0020463D
:101E900000F018FB242084F83D002068006820F042
:101EA0000100216808602068006840F40040216853
:101EB00008602068006820F400402168086000F095
:101EC000D9FC05465C496068884206D85B48854273
:101ED00001D2012007E0002005E05948854201D2E7
:101EE000012000E00020012800D1C9E75548B5FBDA
:101EF000F0F62068406820F03F00304321684860D9
:101F00004D496068884201D8701C07E04FF4967014
:101F100070434FF47A71B0FBF1F0401C2168096AFC
:101F200021F03F0108432168086243496068884204
:101F300014D8681E61684900B0FBF1F0401CC0F382
:101F40000B00042801D204203DE0681E61684900AE
:101F5000B0FBF1F0401CC0F30B0034E0A06838B9CE
:101F6000681E616801EB4101B0FBF1F0401C0AE022
:101F7000681E616801EBC10202EB0111B0FBF1F0D8
:101F8000401C40F48040C0F30B0008B901201AE067
:101F9000A06848B9681E616801EB4101B0FBF1F02F
:101FA000401CC0F30B000CE0681E616801EBC1022D
:101FB00002EB0111B0FBF1F0401CC0F30B0040F448
:101FC000804040F400402168C9694CF6FF7291439B
:101FD00008432168C861D4E90701084321680968FA
:101FE00021F0C001084321680860D4E903100843C8
:101FF0002168896848F2FF3291430843216888606C
:10200000D4E9050108432168C96821F0FF010843AC
:102010002168C8602068006840F0010021680860FD
:1020200000202064202084F83D000020206384F8F4
:102030003E0000BF24E70000A086010080841E004F
:1020400000093D0040420F002DE9F843044689464F
:1020500017469846089EFFF709FF054694F83D008D
:1020600020287DD119230122B7492046009501F08F
:10207000DAFB10B10220BDE8F88300BF94F83C0001
:10208000012801D10220F6E7012084F83C0000BFBE
:102090002068006800F0010028B92068006840F05E
:1020A0000100216808602068006820F40060216851
:1020B0000860222084F83D00102084F83E000020B3
:1020C00020646762A4F82A80608D20859F48E062C2
:1020D0002B4632464946204601F076FA08B10120E7
:1020E000C9E7208D88B900BF0020009020684069B2
:1020F000009020688069009000BF00BF20680068E1
:1021000040F400702168086047E0208D012817D155
:102110002068006820F480602168086000BF00200B
:10212000009020684069009020688069009000BF9E
:1021300000BF2068006840F40070216808602CE04F
:10214000208D022818D12068006820F48060216862
:1021500008602068006840F400602168086000E0C2
:10216000EFE000BF002000902068406900902068E8
:102170008069009000BF10E02068006840F4806033
:102180002168086000BF002000902068406900902E
:1021900020688069009000BF00BFC3E0208D032845
:1021A0007ED8208D012815D12A463146204601F0DF
:1021B00016FC08B101205EE720680069616A0870BA
:1021C000606A401C6062208D401E2085608D401E2C
:1021D0006085A7E0208D02282AD1334600225C4981
:1021E0002046009501F01FFB08B1012043E720685D
:1021F000006840F400702168086020680069616A26
:102200000870606A401C6062208D401E2085608DD1
:10221000401E608520680069616A0870606A401C21
:102220006062208D401E2085608D401E608579E0B3
:102230003346002246492046009501F0F4FA08B1E1
:10224000012018E72068006820F480602168086099
:1022500020680069616A0870606A401C6062208DB5
:10226000401E2085608D401E60853346002238491F
:102270002046009501F0D7FA08B10120FBE620685E
:10228000006840F400702168086020680069616A95
:102290000870606A401C6062208D401E208500E04E
:1022A00010E0608D401E608520680069616A0870DA
:1022B000606A401C6062208D401E2085608D401E3B
:1022C00060852FE02A463146204601F088FB08B1A0
:1022D0000120D0E620680069616A0870606A401CCD
:1022E0006062208D401E2085608D401E60852068C4
:1022F0004069C0F38000A8B1208D032805D1206873
:10230000006820F480602168086020680069616AC4
:102310000870606A401C6062208D401E2085608DC0
:10232000401E6085208D00287FF438AF202084F87F
:102330003D00002084F83E0000BF84F83C0000BF50
:1023400099E6022097E60000020010000000FFFF5F
:10235000040001002DE9F8430446894616461F464D
:10236000DDF82080FFF782FD054694F83D00202827
:102370007ED11923012251492046009501F053FADC
:1023800010B10220BDE8F88300BF94F83C0001289A
:1023900001D10220F6E7012084F83C0000BF20684C
:1023A000006800F0010028B92068006840F00100D2
:1023B000216808602068006820F4006021680860D7
:1023C000212084F83D00102084F83E000020206485
:1023D00066626785608D20853948E0622B464246FB
:1023E0004946204601F08CF908B10120CAE700BF38
:1023F000002000902068406900902068806900906B
:1024000000BF00BF44E02A464146204601F02CFBB5
:1024100050B1206C042805D12068006840F4007099
:10242000216808600120ADE7606A007821680861D2
:10243000606A401C6062608D401E6085208D401E79
:10244000208520684069C0F3800070B1208D60B1A4
:10245000606A007821680861606A401C6062608D73
:10246000401E6085208D401E20852A46414600E0A2
:1024700022E0204601F0A4F950B1206C042805D1D7
:102480002068006840F4007021680860012079E746
:10249000208D0028B7D12068006840F400702168C2
:1024A0000860202084F83D00002084F83E0000BF32
:1024B00084F83C0000BF65E7022063E702001000DB
:1024C0000000FFFF704700000348006803490978D7
:1024D00008440149086070478800002090000020EF
:1024E00010B50D48006840F400700B4908600846BC
:1024F000006840F4806008600846006840F480701E
:102500000860032000F0B4F80F2000F007F800F096
:102510005FF8002010BD0000003C02402DE9F041B2
:1025200088B004460027B84600BF00200190234829
:10253000006840F00400214908600846006800F087
:102540000400019000BF00BF02A903A800F06AF9CF
:10255000069F1FB900F08EF9054602E000F08AF9E7
:1025600045001748B5FBF0F0A0F1010815481649E1
:10257000086040F2E7311448C160C0F804800021CF
:1025800001618160816100F006FC064696B90E4843
:1025900000F036FC06466EB91E2000F01AF8102C2A
:1025A00007D2002221461E2000F023F807480460CD
:1025B00000E00126304608B0BDE8F0814038024016
:1025C00040420F0000080040D03001208C00002065
:1025D000704701460846002809DB00F01F0301226E
:1025E0009A4043099B0003F1E023C3F8002100BF98
:1025F00070472DE9F05F80460D461646002702F031
:10260000EFFA074639462A46334601F00700C0F183
:10261000070ABAF1040F02D94FF0040A01E0C0F131
:10262000070AD14600F1040ABAF1070F02D24FF0AF
:10263000000A01E0A0F1030AD4464FF0010A0AFAA9
:1026400009FAAAF1010A0AEA020A0AFA0CFA4FF098
:10265000010B0BFA0CFBABF1010B0BEA030B4AEA83
:102660000B042146404602F0C3FABDE8F09F00008B
:1026700000BF00F00702064B19684FF6FF03194030
:10268000044B0B4343EA0221014B196000BF704722
:102690000CED00E00000FA0570B504460D460CB9DB
:1026A000012070BD5A48006800F00F00A84209D20E
:1026B00057490D700846006800F00F00A84201D08D
:1026C0000120EEE7207800F0020002281DD12078DA
:1026D00000F00400042805D14E48006840F4E050A2
:1026E0004C490860207800F00800082805D14948C6
:1026F000006840F46040474908604648006820F0A0
:10270000F000A168084343490860207800F0010008
:1027100090B36068012807D13E4808380068C0F3CC
:102720004040A0B90120BCE76068022807D13948C1
:1027300008380068C0F3406048B90120B1E7354867
:1027400008380068C0F3400008B90120A9E7314803
:10275000006820F00300616808432E490860FFF715
:1027600085FB064609E0FFF781FB801B41F28831BB
:10277000884202D9032094E707E02648006800F069
:102780000C006168B0EB810FEDD12148006800F0CA
:102790000F00A84209D91E490D700846006800F0D4
:1027A0000F00A84201D001207BE7207800F0040050
:1027B000042807D11748006820F4E050E168084376
:1027C00014490860207800F00800082808D1114852
:1027D000006820F46040216940EAC1000D490860AA
:1027E00000F074F80B49096801F0F001F02292FA48
:1027F000A2F2B2FA82F2D140074A515CC8400749BE
:10280000086007480068FFF789FE002049E70000DC
:10281000003C024008380240F77B000824000020FA
:102820008C0000200F2202600D4A126802F00302A1
:1028300042600B4A126802F0F0028260084A126895
:1028400002F4E052C260064A126802F46042D20802
:102850000261044A126802F00F020A607047000029
:1028600008380240003C0240014800687047000000
:102870002400002000B5FFF7F7FF0749096801F4BD
:10288000E0514FF4E05292FAA2F2B2FA82F2D14051
:10289000024A515CC84000BD08380240077C00086D
:1028A00000B5FFF7E1FF0749096801F460414FF403
:1028B000604292FAA2F2B2FA82F2D140024A515C2C
:1028C000C84000BD08380240077C00082DE9F047E9
:1028D000002400250026A1462548006800F00C00D1
:1028E00020B1042805D008283AD105E0DFF884900B
:1028F00039E0DFF8849036E01D48001F006800F0E2
:102900003F041B48001F006800F4800078B11A489B
:102910001749091F0968C1F38811A0FB017001461E
:10292000224600233846FDF795FC05460EE0114887
:102930000F49091F0968C1F38811A0FB0170014606
:10294000224600233846FDF785FC05460848001F4F
:102950000068C0F30140401C4600B5FBF6F902E0F8
:10296000DFF8109000BF00BF4846BDE8F0870000C8
:10297000083802400024F40000127A00F8B504463A
:102980000CB90120F8BD207800F00100002848D0E3
:10299000F948006800F00C0004280DD0F6480068E3
:1029A00000F00C00082811D1F348001F006800F463
:1029B0008000B0F5800F09D1EF4808380068C0F3F7
:1029C000404070B3606860BB0120DBE72079EA49D2
:1029D000891F0870606890B1FFF748FA054606E065
:1029E000FFF744FA401B642801D90320CAE7E248F4
:1029F00008380068C0F340400028F1D011E0FFF72C
:102A000035FA054606E0FFF731FA401B642801D984
:102A10000320B7E7D84808380068C0F340400028D2
:102A2000F1D1207800F00200022869D1D248006874
:102A300000F00C0058B1D048006800F00C000828E5
:102A400021D1CD48001F006800F48000D8B9CA48E1
:102A500008380068C0F3400020B1E068012801D0C8
:102A600001208FE7C4480838006820F0F800F822F9
:102A700092FAA2F2B2FA82F2216991400843BE4969
:102A8000083908603CE0E06828B30120BB490860D1
:102A9000FFF7ECF9054606E0FFF7E8F9401B0228CE
:102AA00001D903206EE7B44808380068C0F340003D
:102AB0000028F1D0B0480838006820F0F800F8226B
:102AC00092FAA2F2B2FA82F2216991400843AA492D
:102AD0000839086014E00020A8490860FFF7C6F92B
:102AE000054606E0FFF7C2F9401B022801D9032082
:102AF00048E7A14808380068C0F340000028F1D139
:102B0000207800F0080008282CD16069A8B10120C5
:102B10009B490860FFF7AAF9054606E0FFF7A6F90A
:102B2000401B022801D903202CE793486C30006831
:102B3000C0F340000028F1D014E000209049086064
:102B4000FFF794F9054606E0FFF790F9401B0228CD
:102B500001D9032016E788486C300068C0F34000B4
:102B60000028F1D1207800F00400042874D1002658
:102B700081483830006800F0805090B900BF0020D4
:102B800000907D483830006840F080507A493831F4
:102B900008600846006800F08050009000BF00BF49
:102BA00001267848006840F480707649086008463D
:102BB000006800F48070A8B90846006840F480708E
:102BC0000860FFF753F9054606E0FFF74FF9401B91
:102BD000022801D90320D5E66A48006800F4807015
:102BE0000028F2D0207A644968310870A068A0B14A
:102BF000FFF73CF9054608E0FFF738F9401B41F2C2
:102C00008831884201D90320BCE65B4868300068FF
:102C1000C0F340000028EFD013E0FFF727F9054686
:102C200008E0FFF723F9401B41F28831884201D9BF
:102C30000320A7E6504868300068C0F34000002831
:102C4000EFD1012E07D14C483830006820F0805079
:102C500049493831086000BFA06900284BD0464878
:102C6000006800F00C0008285CD0A069022843D15D
:102C7000002042490866FFF7F9F8054606E0FFF72D
:102C8000F5F8401B642801D903207BE63A48083850
:102C90000068C0F340600028F1D1D4E9070108437F
:102CA000616A40EA81112C20005D41EA0061012245
:102CB000A06AC2EB500041EA00402F49091F096891
:102CC000314A114008432C49091F086001202B4953
:102CD0000866FFF7CBF8054606E0FFF7C7F8401B8C
:102CE000642801D903204DE6234808380068C0F362
:102CF00040600028F1D04AE0002020490866FFF734
:102D0000B5F8054606E0FFF7B1F8401B642801D985
:102D1000032037E6184808380068C0F340600028F0
:102D2000F1D134E0A069012800D12BE61248001F40
:102D3000016801F48002E06982421BD101F03F0288
:102D4000206A824216D147F6C0700840626AB0EB32
:102D5000821F0FD101F440320123A06AC3EB50005F
:102D6000B2EB004F06D101F070622C20005DB2EB97
:102D7000006F0BD0012005E60838024000004742F2
:102D8000800E4742007000400080BCF000BF002071
:102D9000F8E57047704710B504460CB9012010BD26
:102DA00094F83D0028B9002084F83C00204600F04B
:102DB00025F8022084F83D00211D206801F0F6FA74
:102DC000012084F8460000BF84F83E0001213F2026
:102DD0000155402001554120015500BF00BF012091
:102DE00084F84200432001554420015545200155F7
:102DF00000BF012084F83D000020D0E770470000AC
:102E0000014691F83D00012801D0012070470220C1
:102E100081F83D000868C06840F001000B68D86088
:102E20001A4B086898421BD00868B0F1804F17D041
:102E3000174B0868984213D0164B086898420FD079
:102E4000154B086898420BD0144B0868984207D07D
:102E5000134B0868984203D0124B086898420CD173
:102E60000868806800F00702062A0CD0086800682D
:102E700040F001000B68186005E00868006840F049
:102E800001000B6818600020C0E70000000001404E
:102E90000004004000080040000C00400004014015
:102EA0000040014000180040704710B504462068FB
:102EB0000069C0F34000D8B12068C068C0F340008A
:102EC000B0B16FF00200216808610120207720680E
:102ED000806900F0030018B12046FFF7E5FF05E028
:102EE000204600F0ADF8204600F0ABF80020207737
:102EF00020680069C0F38000D8B12068C068C0F3C2
:102F00008000B0B16FF004002168086102202077D2
:102F10002068806900F4407018B12046FFF7C4FFB4
:102F200005E0204600F08CF8204600F08AF80020EA
:102F3000207720680069C0F3C000D8B12068C0685D
:102F4000C0F3C000B0B16FF0080021680861042030
:102F500020772068C06900F0030018B12046FFF711
:102F6000A3FF05E0204600F06BF8204600F069F86A
:102F70000020207720680069C0F30010D8B12068D5
:102F8000C068C0F30010B0B16FF010002168086194
:102F9000082020772068C06900F4407018B12046EE
:102FA000FFF782FF05E0204600F04AF8204600F0D7
:102FB00048F8002020772068006900F0010058B12F
:102FC0002068C06800F0010030B16FF00100216896
:102FD0000861204600F036F820680069C0F3C01090
:102FE00058B12068C068C0F3C01030B16FF08000E5
:102FF000216808612046FFF7CCFE20680069C0F315
:10300000801058B12068C068C0F3801030B16FF0F4
:10301000400021680861204600F020F8206800691F
:10302000C0F3401058B12068C068C0F3401030B100
:103030006FF02000216808612046FFF7ABFE10BD4D
:103040007047704710B5044603492068884201D193
:10305000FFF73AFA10BD00000008004070477047C3
:10306000704700002DE9F84F044620680568206885
:10307000C668206847694FF00009CA4605F00F0985
:10308000B9F1000F0AD105F0200038B106F0200098
:1030900020B1204601F020FBBDE8F88FB9F1000F08
:1030A0007CD007F0010018B906F49070002875D0A4
:1030B00005F0010030B106F4807018B1606C40F08A
:1030C0000100606405F0040030B107F0010018B1A0
:1030D000606C40F00200606405F0020030B107F05F
:1030E000010018B1606C40F00400606405F0080055
:1030F00048B106F0200010B907F0010018B1606C6B
:1031000040F008006064606C002846D005F02000A4
:1031100028B106F0200010B1204601F0DDFA206849
:103120004069C0F3801A606C00F0080010B9BAF171
:10313000000F2DD0204601F076FA2068406900F09B
:103140004000402820D100BF00BF2168143151E861
:10315000001F21F040002168143141E80002002ADC
:10316000F3D100BFE06B50B17748E16B0865E06BCD
:10317000FEF776FB88B1E06B016D88470DE02046D5
:10318000FFF76EFF09E009E02046FFF769FF04E062
:103190002046FFF765FF002060647DE7206B012873
:1031A00078D105F01000002874D006F01000002837
:1031B000FAD000BF002000902068006800902068CE
:1031C0004068009000BF00BF2068406900F04000E8
:1031D000402860D1E06B006840681FFA80F8B8F1C1
:1031E000000F56D0A08D404553DDA4F82E80E06B33
:1031F000C069B0F5807F43D000BF00BF21680C31AB
:1032000051E8001F21F4807021680C3141E8000270
:10321000002AF3D100BF00BF00BF2168143151E87C
:10322000001F21F001002168143141E80002002A4A
:10323000F3D100BF00BF00BF2168143151E8001F67
:1032400021F040002168143141E80002002AF3D146
:1032500000BF202084F842000020206300BF00BF90
:1032600021680C3151E8001F21F0100021680C3159
:1032700041E80002002AF3D100BFE06BFEF79AFAA2
:1032800002206063A08DE28D801A81B22046FFF794
:10329000E6FE01E742E0A08DE18D401A1FFA80F8BA
:1032A000E08DD0B3B8F1000F37D000BF00BF216868
:1032B0000C3151E8001F21F4907021680C3141E875
:1032C0000002002AF3D100BF00BF00BF2168143103
:1032D00051E8001F21F001002168143141E800028B
:1032E000002AF3D100BF202084F842000020206390
:1032F00000BF00BF21680C3151E8001F21F0100011
:1033000021680C3141E80002002AF3D100BF0220FD
:10331000606341462046FFF7A2FEBDE605F080004F
:1033200030B106F0800018B1204601F095FBB3E6FD
:1033300005F0400030B106F0400018B1204601F021
:10334000A8F9A9E600BFA7E68544000810B5044621
:103350000CB9012010BDA06900B100E000BF94F8D5
:10336000410028B9002084F84000204600F029F8E8
:10337000242084F841002068C06820F400502168AF
:10338000C860204601F026FA2068006920F49040C9
:10339000216808612068406920F02A00216848619E
:1033A0002068C06840F400502168C8600020606454
:1033B000202084F8410084F842000020606300BFB0
:1033C000C8E7704770B504460D46164694F84200AB
:1033D00020280BD105B10EB9012070BD002020635B
:1033E00032462946204601F0D3FAF6E70220F4E7F8
:1033F00010B504460F492068884219D103F0B2FF86
:103400000D480088FF280ADA20684068C1B20A48DF
:1034100002880088401C084B18800848815403F03B
:10342000B3FF0649044A12888818012104F0E2F922
:1034300010BD0000004400400C000020B402002039
:1034400070472DE9F84F04460E46174699464FF04F
:10345000000A94F8410020284AD106B117B901208A
:10346000BDE8F88F00206064212084F84100FEF759
:10347000FDFC8246A784E784A068B0F5805F04D194
:10348000206910B90025B04602E035464FF000082B
:103490001BE05346002280212046CDF8009001F029
:1034A0000BFB08B10320DBE745B9B8F80000C0F317
:1034B00008002168486008F1020803E028782168C4
:1034C00048606D1CE08C401EE084E08C0028E0D158
:1034D0005346002240212046CDF8009001F0ECFA3E
:1034E00008B10320BCE7202084F841000020B7E7A2
:1034F0000220B5E7F7B50446154694F841002028A8
:1035000036D1019800B10DB90120FEBD01982062AD
:10351000A584E58400206064212084F841001548DA
:10352000A16BC8631448A16B08641448A16BC864FC
:103530000020A16B086501AE23681A1D31682B4677
:10354000A06BFEF737FB6FF040002168086000BFFA
:1035500000BF2168143151E8001F41F0800021684C
:10356000143141E80002002AF3D100BF0020CCE76B
:103570000220CAE7C145000819460008994400081E
:103580007047704700BFFEE7014608684069C0F316
:103590008020B0B16FF480600A6850610020086339
:1035A000202081F83D00002081F83E00086C40F0AA
:1035B0000400086400BF002081F83C0000BF012027
:1035C00070470020FCE700002DE9F84304460D4653
:1035D00090461E46E76A2068006840F480602168D3
:1035E0000860082F04D0012F02D017F5803F06D1C4
:1035F0002068006840F480702168086008E0206B53
:10360000112805D12068006840F4807021680860A6
:10361000434600224FF001112046009600F003F9C6
:1036200060B12068006800F48070B0F5807F02D13E
:103630004FF4007020640320BDE8F8832069B0F5E2
:10364000804F05D1E8B240F001002168086149E0EF
:1036500005F44070F02141EAE0102168086133462A
:1036600042462649204600F03DF908B10120E3E733
:10367000E8B221680861334642462049891F204646
:1036800000F030F908B10120D6E700BF002000901B
:1036900020684069009020688069009000BF00BFEA
:1036A0002068006840F4807021680860434600226A
:1036B0004FF001112046009600F0B5F858B120688F
:1036C000006800F48070B0F5807F02D14FF4007084
:1036D00020640320B0E705F44070F12141EAE010D6
:1036E00021680861334642460449891F204600F09C
:1036F000F9F808B101209FE700209DE708000100CC
:103700002DE9F84304460D4617469846E66A082E0A
:1037100004D0012E02D016F5803F06D12068006843
:1037200040F480702168086008E0206B122805D101
:103730002068006840F48070216808603B460022E1
:103740004FF001112046CDF8008000F06CF860B118
:103750002068006800F48070B0F5807F02D14FF4DB
:10376000007020640320BDE8F8832069B0F5804F25
:1037700004D105F0FE002168086112E005F44070F4
:10378000F02141EAE0102168086143463A460B49BE
:10379000204600F0A7F808B10120E4E7E8B221686C
:1037A000086143463A460549891F204600F09AF8C9
:1037B00008B10120D7E70020D5E70000080001008C
:1037C00070B504460D46164625E02046FFF7DCFEA0
:1037D00008B1012070BD681CE8B1FEF747FB801BF3
:1037E000A84200D8BDB920684069C0F3800090B9F4
:1037F00000202063202084F83D00002084F83E0053
:10380000206C40F02000206400BF002084F83C00C1
:1038100000BF0120DEE720684069C0F38000002877
:10382000D3D00020D6E72DE9F04104460D461746D7
:103830001E46DDF8188038E0701CA8B3FEF716FBB2
:10384000A0EB0800B04200D876BBC5F307400128C2
:103850000AD120684069A9B20840A9B2884201D1C2
:1038600001200BE0002009E020688069A9B208402F
:10387000A9B2884201D1012000E00020B84214D151
:1038800000202063202084F83D00002084F83E00C2
:10389000206C40F02000206400BF002084F83C0031
:1038A00000BF0120BDE8F081FFE7C5F30740012814
:1038B0000AD120684069A9B20840A9B2884201D162
:1038C00001200BE0002009E020688069A9B20840CF
:1038D000A9B2884201D1012000E00020B842ABD05B
:1038E0000020DFE72DE9F04104460D4616461F464D
:1038F00058E020684069C0F38020E8B12068006883
:1039000040F40070216808606FF4806021684861AD
:1039100000202063202084F83D00002084F83E0031
:10392000206C40F00400206400BF002084F83C00BC
:1039300000BF0120BDE8F081701C90B3FEF796FA3D
:10394000C01BB04200D866BBC5F3074001280AD1AE
:1039500020684069A9B20840A9B2884201D101207B
:103960000BE0002009E020688069A9B20840A9B2F4
:10397000884201D1012000E0002090B9002020639E
:10398000202084F83D00002084F83E00206C40F0A8
:103990002000206400BF002084F83C0000BF01200C
:1039A000C8E7FFE7C5F3074001280AD1206840694E
:1039B000A9B20840A9B2884201D101200BE0002041
:1039C00009E020688069A9B20840A9B2884201D103
:1039D000012000E0002000288BD00020AAE770B56D
:1039E00004460D46164637E020684069C0F30010D3
:1039F000A0B16FF0100021684861002020632020F2
:103A000084F83D00002084F83E00206C206400BF54
:103A1000002084F83C0000BF012070BDFEF726FAAC
:103A2000801BA84200D8BDB920684069C0F380104F
:103A300090B900202063202084F83D00002084F805
:103A40003E00206C40F02000206400BF002084F87D
:103A50003C0000BF0120E0E720684069C0F380100F
:103A60000028C1D00020D8E770B504460D461646A0
:103A700025E02046FFF788FD08B1012070BD681CD5
:103A8000E8B1FEF7F3F9801BA84200D8BDB9206861
:103A90004069C0F3C01090B900202063202084F852
:103AA0003D00002084F83E00206C40F0200020649F
:103AB00000BF002084F83C0000BF0120DEE7206842
:103AC0004069C0F3C0100028D3D00020D6E710B55D
:103AD0000446207B012802D1206801F0C5FF0020A8
:103AE00020606060A060207310BD024600230123A7
:103AF0000DE002F07F000870D2092AB1087840F08A
:103B000080000870491C01E0184670475B1C042BBC
:103B1000EFDD4FF0FF30F8E770B504460E460025A4
:103B2000206898B901202073304601F0E5FF20603D
:103B30002068E0B100206060A66003E000202168FA
:103B400048556D1CA068A842F8D810E002202073E8
:103B500003E00020216848556D1CA068A842F8D8F1
:103B600000206060A068B04201D20020206070BDDB
:103B70002DE9FF4F83B082468B469146159C002568
:103B8000002002900F2701904846FCF7D4FB0FFA63
:103B900080F8B9F1000F03D1012007B0BDE8F08F24
:103BA00008F10200384487B2109808B145F00205C8
:103BB000129878B145F004051298FCF7BCFBC0B22E
:103BC00002901398FCF7B7FB01460298001D0844C9
:103BD000384487B2119820B1012804D0022808D1B6
:103BE00004E000BF07E045F00C0504E045F01405D3
:103BF00001E00220D1E700BF149808B145F0240588
:103C0000BAF1000F02D0BBF1000F01D10320C4E7CD
:103C100045F0C0055046FCF78EFB06465846FCF7BB
:103C20008AFB3044001D384487B239462046FFF7EE
:103C300073FF206808B90420AFE739462068FCF715
:103C400053FB10216268501C606020688154D4E9E5
:103C50000023D118781FFFF748FF00B201900198A8
:103C6000002804DA2046FFF732FF052095E7616857
:103C700001980844606000216268501C6060206800
:103C8000815404216268501C6060206881544D2179
:103C90006268501C60602068815451216268501C29
:103CA00060602068815454216268501C6060206804
:103CB00081546268501C60602068815404216268ED
:103CC000501C6060206881546168481C60602068F6
:103CD00045540698010A6268501C6060206881544F
:103CE0000698C1B26268501C606020688154C8F3B5
:103CF00007216268501C6060206881546268501C13
:103D00006060206800F80280D4E9001288184246FA
:103D10004946FCF717FB60684044606005F004000A
:103D2000B8B30026139808B938A013901298FCF77E
:103D300002FB86B2310A6268501C606020688154C0
:103D40006268501C606020688654D4E900128818AC
:103D500032461299FCF7F6FA6068304460601398B6
:103D6000FCF7E9FA86B2310A6268501C606020688C
:103D700081546268501C606020688654D4E9001247
:103D8000881832461399FCF7DDFA606830446060A9
:103D900000BF05F08000C8B15046FCF7CCFA86B2EF
:103DA000310A6268501C6060206881546268501C4F
:103DB000606020688654D4E9001288183246514663
:103DC000FCF7C0FA60683044606000BF05F0400056
:103DD000C8B15846FCF7AFFA86B2310A6268501C87
:103DE0006060206881546268501C6060206886545E
:103DF000D4E90012881832465946FCF7A3FA6068E5
:103E00003044606000BF0020C7E6000000000000F2
:103E100070B505460C4604212046FFF77DFE20685C
:103E200008B9012070BD70216268501C6060206874
:103E3000815402216268501C6060206881542912FC
:103E40006268501C6060206881546268501C606029
:103E5000206885540020E5E770B505460C4604212E
:103E60002046FFF759FE206808B9012070BD622185
:103E70006268501C60602068815402216268501C96
:103E800060602068815429126268501C606020685C
:103E900081546268501C6060206885540020E5E70A
:103EA0002DE9FF5F8046174699460E9C0026B246D4
:103EB000B3460025B8F1000F03D1012004B0BDE8DE
:103EC000F09F0BE057F8250008B90220F6E757F8F5
:103ED0002500FCF730FA0644681CC5B24D45F1DBFD
:103EE00009EB4900801C00EB060A0AF10501204697
:103EF000FFF712FE206808B90320DFE7822162681D
:103F0000501C606020688154D4E90002811850463A
:103F1000FFF7EBFD0FFA80FBBBF1000F04DA204640
:103F2000FFF7D5FD0420C9E76068584460604FEA98
:103F300018216268501C6060206881546268501CBF
:103F40006060206800F80280002524E057F8250012
:103F5000FCF7F1F90646C6F307216268501C606061
:103F6000206881546268501C606020688654D4E9DF
:103F70000023D01857F825103246FCF7E3F96068A3
:103F8000304460600198C1B26268501C6060206873
:103F90008154681CC5B24D45D8DB00208EE7F0B5D2
:103FA00004460D462646012300201060002114E03F
:103FB000775C07F07F07106807FB03001060705CF8
:103FC00000F0800008B9481CF0BDDB01B3F5001F0C
:103FD00002D36FF00100F7E7491CA942E8DB4FF07C
:103FE000FF30F1E72DE9F84380460C4615461E46A2
:103FF0002F2108F10600FCF794F9074600200090F5
:1040000017B90120BDE8F8837F1C6A46042108F136
:104010000100FFF7C4FF252001F06EFD206020683D
:1040200008B90220EEE725212068FCF75DF924227B
:1040300039462068FCF73FF9243700982C38308047
:104040003188481C01F058FD2860286820B9206894
:1040500001F00AFD0320D5E73288511C2868FCF7DF
:1040600043F9328839462868FCF725F90020C9E76A
:1040700001464878022801D001207047887810B1A5
:104080008878012801D1C878F7E7FF20F5E700001C
:104090002DE9FC5F81460D4614461E46DDE90C8B7A
:1040A00099F8000000F00F0A002001900AF00800C3
:1040B0000090CAF341008BF8000001AA042109F125
:1040C0000100FFF76CFF4844471C0198022802D307
:1040D0000AF0010010B1FF20BDE8FC9F7878397824
:1040E00040EA012020802088801C0199884201D963
:1040F000FF20F1E754A1B81CFCF701F908B10F202B
:10410000EAE79BF8000020B101283DD0022877D1D2
:104110003BE0009808B1FF20DEE72188481C01F051
:10412000EBFC2860286808B9FF20D5E72288511CDD
:104130002868FCF7D9F82288B91C2868FCF7BBF876
:104140000198801E2188401AA8F80000B8F80010D5
:10415000481C01F0D1FC3060306820B9286801F0BB
:1041600083FCFF20B8E7B8F80020511C3068FCF74A
:10417000BBF8B8F80020B4F800C0BB1C0CEB03017E
:104180003068FCF798F84FE000BF2088801C019948
:10419000884201D9FF209FE72088C01C395C208815
:1041A000801C385C41EA00210E9801800E9808B905
:1041B000FF2091E72188481C01F09EFC28602868B8
:1041C00008B9FF2088E72288511C2868FCF78CF882
:1041D0002288B91C2868FCF76EF80198001F218816
:1041E000401AA8F80000B8F80010481C01F084FC40
:1041F0003060306828B9286801F036FCFF206BE792
:1042000010E0B8F80020511C3068FCF76DF8B8F8E1
:104210000020B4F800C03B1D0CEB03013068FCF734
:104220004AF801E0FF2057E700BF2B212846FCF7A2
:1042300078F820B923212846FCF773F808B1FF204D
:104240004AE7002048E7000024637265710000001F
:1042500001464878022801D001207047887820B9AB
:10426000C8780A2801D10020F7E70120F5E70146C8
:104270004878022801D001207047887820B9C87892
:104280000A2801D10020F7E70120F5E70146487828
:10429000022801D001207047887820B9C8780A2800
:1042A00001D10020F7E70120F5E702465078022807
:1042B00001D0012070479078B0EB112F05D1D07854
:1042C000CBB2984201D10020F4E70120F2E70000D0
:1042D000F8B50446FF2720780511012D01DB0E2DCE
:1042E00001DD3846F8BD032D24D1002000906A4638
:1042F0000421601CFFF753FE2044461C009802284E
:1043000003D3207800F0010008B1FF20EAE77078BD
:10431000317840EA0120801C0099884201D9FF20B1
:10432000E0E706A1B01CFBF7EAFF08B10F2700E0A9
:10433000032700E02F463846D4E700002463726567
:10434000710000000146FF208A78A2B9CA78142AB9
:1043500011D10A7932B1012A05D0022A04D0802A6B
:1043600006D103E000BF00BF002003E0012001E010
:10437000022000BF00BF7047014601208A781AB9A9
:10438000CA781E2A00D10020704700BFFEE77047A0
:1043900010B503F061FA10BD7047000010B5024877
:1043A000FEF783FD10BD0000D030012010B502687B
:1043B000294B98420ED0B0F1804F0BD0274B98423A
:1043C00008D0274B984205D0264B984202D0264B66
:1043D000984203D122F070024B681A431E4B984258
:1043E00020D0B0F1804F1DD01C4B98421AD01C4BEE
:1043F000984217D01B4B984214D01B4B984211D0B7
:104400001A4B98420ED01A4B98420BD0194B984237
:1044100008D0194B984205D0184B984202D0184B3F
:10442000984203D122F44072CB681A4322F08003F1
:104430004C6943EA040202608B68C3620B688362C2
:10444000054B984202D0084B984201D10B69036397
:104450000123436110BD0000000001400004004042
:1044600000080040000C00400004014000400140F2
:10447000004401400048014000180040001C00407A
:104480000020004070B50546AC6B0020E085E0845C
:104490002046FEF7E5FD70BD70B506460025B46BFD
:1044A00020684069C0F3C01594F84100212805D167
:1044B00025B10020E084204600F0FBF82068406928
:1044C000C0F3801594F84200222805D125B10020C0
:1044D000E085204600F0A7F8606C40F010006064B2
:1044E0002046FEF7BDFD70BD70B50546AC6B286873
:1044F000006800F48070002842D1E08500BF00BF52
:1045000021680C3151E8001F21F4807021680C31C2
:1045100041E80002002AF3D100BF00BF00BF2168BC
:10452000143151E8001F21F001002168143141E8E5
:104530000002002AF3D100BF00BF00BF2168143180
:1045400051E8001F21F040002168143141E80002C9
:10455000002AF3D100BF202084F84200206B0128FC
:104560000ED100BF00BF21680C3151E8001F21F0BF
:10457000100021680C3141E80002002AF3D100BF8D
:1045800000206063206B012804D1A18D2046FEF736
:1045900066FD02E02046FEF72BFF70BD70B50546B4
:1045A000AC6B01206063206B012805D1A08D410810
:1045B0002046FEF754FD02E02046FEF741FF70BDA5
:1045C00070B50546AC6B2868006800F48070F8B9D7
:1045D0000020E08400BF00BF2168143151E8001FB3
:1045E00021F080002168143141E80002002AF3D153
:1045F00000BF00BF00BF21680C3151E8001F41F02F
:10460000400021680C3141E80002002AF3D102E0A9
:104610002046FEF7B5FF70BD70B50446A56B284671
:10462000FEF7AFFF70BD00BF00BF02680C3252E85A
:10463000002F22F4907102680C3242E80013002B24
:10464000F3D100BF00BF00BF0268143252E8002F50
:1046500022F001010268143242E80013002BF3D16A
:1046600000BF016B01290ED100BF00BF02680C32F0
:1046700052E8002F22F0100102680C3242E80013C9
:10468000002BF3D100BF202180F8421000210163EC
:10469000704710B504462068C06820F040002168CB
:1046A000C860202084F841002046FEF769FF002002
:1046B00010BD00BF00BF02680C3252E8002F22F08C
:1046C000C00102680C3242E80013002BF3D100BF96
:1046D000202180F841107047F8B5044694F8420054
:1046E000222875D1A068B0F5805F0CD1206950B93F
:1046F0000025A66A20684068C0F308003080A06AE0
:10470000801CA06215E0A56A0026A068B0F5805F55
:1047100003D0A06828B9206918B9206840682870BB
:1047200004E02068406800F07F002870A06A401C08
:10473000A062E08D401E80B2E085002846D120684E
:10474000C06820F020002168C8602068C06820F49C
:1047500080702168C8602068406920F001002168ED
:104760004861202084F8420000206063206B01280B
:1047700026D10020206300BF00BF21680C3151E822
:10478000001F21F0100021680C3141E80002002ACE
:10479000F3D100BF2068006800F0100010280AD193
:1047A00000BF0020009020680068009020684068EA
:1047B000009000BF00BFA18D2046FEF750FC02E034
:1047C0002046FEF715FE0020F8BD01E00020FBE7C3
:1047D0000220F9E770B504462168096921F44051C7
:1047E000E2681143226811612269A168114362697C
:1047F0001143E26941EA02052168C96849F20C6285
:10480000914329432268D1602168496921F44071AC
:10481000A2691143226851615B4A2168914203D029
:104820005A4A2168914202D1FEF73AF801E0FEF7B8
:1048300021F8E169B1F5004F53D100EBC00101EB64
:10484000001162685200B1FBF2F16422B1FBF2F197
:104850000A0100EBC00101EB001163685B00B1FBD2
:10486000F3F100EBC00303EB001366687600B3FBC3
:10487000F6F36426B3FBF6F303EBC30606EB031370
:10488000A1EB8301322303EBC1016423B1FBF3F1FC
:1048900001F0F80102EB410200EBC00101EB001155
:1048A00063685B00B1FBF3F100EBC00303EB0013A3
:1048B00066687600B3FBF6F36426B3FBF6F303EB0E
:1048C000C30606EB0313A1EB8301322303EBC10103
:1048D0006423B1FBF3F101F00701114422689160F8
:1048E00051E000EBC00101EB001162689200B1FBE6
:1048F000F2F200EBC00101EB001163689B00B1FB19
:10490000F3F16423B1FBF3F101EBC10303EB0111FC
:10491000A2EB8101322202EB01116422B1FBF2F120
:1049200001F0F00100EBC00202EB001263689B0093
:10493000B2FBF3F26423B2FBF3F201EB021200EBE1
:10494000C00101EB001163689B00B1FBF3F100EBC8
:10495000C00303EB00136668B600B3FBF6F36426EE
:10496000B3FBF6F303EBC30606EB0313A1EB8301E2
:10497000322303EB01116423B1FBF3F101F00F01CA
:1049800011442268916070BD001001400014014084
:1049900077B581B0044615460298A062A58500202F
:1049A0006064222084F842002848E16BC8632848EC
:1049B000E16B08642748E16BC8640020E16B08657F
:1049C00002AE32682368191D2B46E06BFDF7F2F842
:1049D00000BF0020009020680068009020684068B8
:1049E000009000BF00BF206970B100BF00BF216808
:1049F0000C3151E8001F41F4807021680C3141E80E
:104A00000002002AF3D100BF00BF00BF21681431AB
:104A100051E8001F41F001002168143141E8000213
:104A2000002AF3D100BF00BF00BF2168143151E854
:104A3000001F41F040002168143141E80002002AC3
:104A4000F3D100BF002004B070BD0000E9440008AD
:104A50009D45000899440008014691F8410021282D
:104A600028D18868B0F5805F0BD1086948B90A6A17
:104A70001088C0F308000B685860086A801C086240
:104A800005E00B6A581C086218780B685860C88CDF
:104A9000401E80B2C88458B90868C06820F0800001
:104AA0000B68D8600868C06840F040000B68D860A8
:104AB000002070470220FCE72DE9F04104460D4636
:104AC00017469846069E34E0701C88B32EB1FDF759
:104AD000CDF9A0EB0800B0422BD900BF00BF216880
:104AE0000C3151E8001F21F4D07021680C3141E8ED
:104AF0000002002AF3D100BF00BF00BF21681431BB
:104B000051E8001F21F001002168143141E8000242
:104B1000002AF3D100BF202084F8410084F842002D
:104B200000BF002084F8400000BF0320BDE8F081F2
:104B3000FFE7206800682840A84201D1012000E07A
:104B40000020B842C0D00020F0E7000010B50248B5
:104B5000FEF788FA10BD0000AC01002010B5024835
:104B6000FEF780FA10BD0000A400002000BFFEE7A1
:104B70000FB4054B10B503A9044A029800F09EF942
:104B800010BC5DF814FB00004D5A00089400002092
:104B90000FB4084B10B504A902AA039800F08EF9CF
:104BA000044602A9002000F020FD204610BC5DF85C
:104BB00014FB0000EB550008490050EAC12018BF63
:104BC00004204A0D18BF40F0010040F2FF72B2EB22
:104BD000515F08BF40F00200012808BF0520704760
:104BE00002480068C0F30220704700000CED00E0AE
:104BF00010B5002804DB0A07130E054A135406E01B
:104C00000A07140E034A00F00F031B1FD45410BDF3
:104C100000E400E018ED00E000487047A00000202C
:104C20002DE9F0414F1E00EBC7010446D1E9000118
:104C300015461E4637F006020DD02A463346FBF7CE
:104C400020FD7F1E04EBC703D3E90023FBF772FCB2
:104C500037F00602F1D1022F25D0042F13D0062FF2
:104C600018BFBDE8F0812A463346FBF70AFDD4E9B8
:104C70000A23FBF75FFC2A463346FBF702FDD4E923
:104C80000823FBF757FC2A463346FBF7FAFCD4E926
:104C90000623FBF74FFC2A463346FBF7F2FCD4E928
:104CA0000423FBF747FC2A463346FBF7EAFCD4E92A
:104CB0000223FBF73FFC2A463346FBF7E2FCD4E92C
:104CC0000023BDE8F041FBF735BC0000002213468D
:104CD00010460149FBF7A7BE0000F03FFBF72ABCD6
:104CE0000022134610461146FBF79DBE40F20132EA
:104CF00000204FF0E041FBF705BF0000024A002012
:104D00001107FBF7FFBE000001FDFFFF02E008C82E
:104D1000121F08C1002AFAD170477047002001E035
:104D200001C1121F002AFBD1704700000149086031
:104D300070470000A00000202DE9FF5F82B0002135
:104D4000DDE90430020DDDF840B0034318D044F62D
:104D50001050A2F2FF3242431514119801281FD0BF
:104D6000A5EB0B00401C5FEA000A4FF000064E4F17
:104D7000DFF83891B046504615D5CAF1000413E06B
:104D8000119801244AA3012801D16FEA0B0102986E
:104D9000119AC0E90031C0E9024206B0BDE8F09FB7
:104DA000CBF10000DFE704460021404A491842EBFE
:104DB0000450CDE9001012E0E00707D032463B4630
:104DC00040464946FBF75DFC8046894632463B46F5
:104DD00010461946FBF755FC06460F466410002C9A
:104DE000EAD1DDE90401DDE90023BAF1000F06DABA
:104DF000FBF747FC42464B46FBF743FC05E0FBF75D
:104E000012FE42464B46FBF70EFE04460E460022BB
:104E1000284BFBF7DDFC03D84FF0FF30014607E0DD
:104E20000022254B20463146FBF784FBFBF781FE31
:104E3000102409E0002C0ADB0A220023FBF70AFAFF
:104E4000039B30321A55641E50EA0102F2D1641CF1
:104E5000039AC4F111031444119A012A03D00122C8
:104E600008430DD10AE0084304D000204FF0110B95
:104E7000119072E7A3EB0B056D1E0DE05B4504DDA1
:104E80004FF0000205F1010504E003DA4FF00002E3
:104E9000A5F10105002AECD002981199C0E9023170
:104EA000C0E9004579E70000000014400000F03F31
:104EB000300000000000F0430000E03F2DE9FF4F0C
:104EC00095B09B468946064600250FE2252877D1F6
:104ED00000242746F84A0121059400E0044316F80F
:104EE000013F203B01FA03F01042F7D130782A2825
:104EF00011D06FF02F033078A0F13002092A16D8B4
:104F0000059A44F0020402EB820203EB42021044D1
:104F1000761C0590EFE759F8042B0592002A03DA76
:104F2000504244F40054059044F00204761C30785A
:104F30002E2816D116F8010F44F004042A280DD0AB
:104F40006FF02F023078A0F13003092B09D807EB5E
:104F5000870302EB4303C718761CF3E759F8047B79
:104F6000761C30786C280FD006DC4C2817D06828C7
:104F70000DD06A2814D104E0742810D07A280FD1FB
:104F80000DE044F400140AE044F4801401E044F419
:104F900040147278824202D104F58014761C761C8B
:104FA000307866280BD013DC582877D009DC00282D
:104FB00075D04528F6D04628F4D047281AD19DE16F
:104FC00018E0632835D0642879D0652812D195E19E
:104FD000702873D008DC6728F1D069286FD06E285C
:104FE0000DD06F2806D1B5E073282CD0752875D068
:104FF000782874D05A46179990476D1C75E1C4F310
:105000000250022809D003280DD0D9F80010042836
:105010000DD00D6009F1040967E1D9F80010EA1715
:10502000C1E90052F6E7D9F800100D80F2E70D70E3
:10503000F0E719F8041B8DF8001000208DF801002E
:10504000EA46012003E059F804AB4FF0FF30610756
:105050004FF0000102D40DE008F101018846B94289
:105060000FDA8045F8DB1AF808100029F4D108E0BF
:1050700008F1010188468142FADB1AF8081000297C
:10508000F6D105985B46A0EB080721463846179AEB
:1050900000F094FA284400EB080507E04DE029E110
:1050A0000DE01AF8010B5A4617999047B8F101081C
:1050B000F7D25B4621463846179A13E142E00A22AE
:1050C0000092C4F302524FF0000A022A08D059F8A5
:1050D00004CB032A4FEAEC710AD00DE029E02AE064
:1050E00009F1070121F00702F2E802C1914609E047
:1050F0000FFA8CFC4FEAEC71042A03D14FFA8CFCB6
:105100004FEAEC71002907DA0A460021DCF1000CB5
:1051100061EB02012D2202E0220504D52B228DF83D
:105120000420012203E0E20701D02022F7E79046A5
:1051300059E00A2102E010220DE010214FF0000A90
:1051400000910BE010224FF0000A44F004040827FD
:10515000009203E008224FF0000A0092C4F30252CA
:10516000022A05D059F804CB0021032A08D009E00F
:1051700009F1070121F00702F2E802C1914605E0BA
:105180001FFA8CFC042A01D10CF0FF0C4FF0000830
:10519000220728D5702806D0009B83F0100353EA1D
:1051A0000A0305D00EE040228DF80420012208E019
:1051B0005CEA010206D030228DF804208DF805004B
:1051C00002229046009B83F0080353EA0A030AD1A7
:1051D0005CEA010201D1620705D530228DF8042076
:1051E0004FF001087F1E582804D034A003900EA869
:1051F00002900DE036A0F9E753466046009AFBF7AF
:1052000029F884460398825C0298401E029002703E
:105210005CEA0100F0D1029806A9081A00F1200A00
:10522000600702D524F4803400E00127574502DDF1
:10523000A7EB0A0000E0002000EB0A0100900598AF
:105240004144401A0590E00306D45B462146179A74
:10525000059800F0B3F90544002706E001A85A4676
:10526000C05D179990476D1C7F1C4745F6DBE00336
:105270000CD55B462146179A059800F09FF9054426
:1052800004E030205A46179990476D1C0099481E3B
:1052900000900029F5DC08E0029802995A4600784F
:1052A000491C0291179990476D1CBAF10001AAF1AF
:1052B000010AF1DC65E100000928010030313233D8
:1052C0003435363738396162636465660000000042
:1052D000303132333435363738394142434445462C
:1052E0000000000000F058F90544761C30780028D2
:1052F0007FF4ECAD19B02846BDE8F08F620700D40A
:10530000062709F1070222F0070CFCE80223E14618
:1053100003F000485FEA080C02D00FF2702C0DE099
:105320005FEA045C02D50FF2682C07E05FEAC47CF8
:1053300002D00FF2602C01E0AFF2700C4FF0FF389A
:1053400023F00043CDF850C065280CD006DC45287A
:1053500009D046281DD047283DD13DE0662818D009
:1053600067287ED138E00021112F01DB112000E0F9
:10537000781CCDE9000106A90EA8FFF7DDFCDDE9E8
:105380000F010E9A03910021009207F1010A049186
:105390004DE04FF000400097CDE9011006A90EA89E
:1053A000FFF7CAFCDDE90F0203920E9B1199002260
:1053B000DDF80CA00093049211B9791C00EB010AEE
:1053C000B7EB0A0004D4C0F1FF3007F1010A0490E2
:1053D000AAEB0700019044E0012F00DA0127002129
:1053E000112F01DD112000E03846CDE9000106A9AA
:1053F0000EA8FFF7A1FCDDE90F010E9A0391002131
:1054000004910092BA4621070CD40399514500DA61
:105410008A46BAF1010F05DD009AAAF10101515C3B
:10542000302908D0B84202DA10F1040F06DA01215F
:10543000CDE9011015E0AAF10101E9E7002805DC3A
:10544000049901440491AAEB000102E0411C51457A
:1054500000DD8A460499401A401C01904FF000403C
:105460000290200704D40198504501DBCDF8048058
:1054700000208DF84F0002980DF14F07B0F1004F5A
:1054800025D02B200E9002984FF0020800280CDA4D
:10549000404202902D200E9007E00A210298FBF76F
:1054A000AFF93031029007F8011DB8F10001A8F101
:1054B0000108F2DC02980028EFD1791E0E980870DE
:1054C000307800F0200040F0450007F8020D12A8E7
:1054D000C01B00F107081498007800B1012000EB10
:1054E0000A01019801EBE07105984144401A401E01
:1054F0000590E00306D45B462146179A059800F014
:105500005DF805441498007818B15A4617999047E9
:105510006D1CE00324D55B462146179A059800F0E0
:105520004DF805441CE00498002807DBDDE9030181
:10553000884203DD0098405C179901E017993020FC
:105540005A469047049805F10105401C04900198C3
:10555000401E019004D12E205A46179990476D1C89
:10556000BAF10001AAF1010ADDDC05E017F8010B30
:105570005A46179990476D1CB8F10001A8F101082F
:10558000F4DC5B462146179A0598ABE62D00000037
:105590002B000000200000002DE9F041044600250A
:1055A0001E461746880404D405E039462020B0473B
:1055B0006D1C641EF9D52846BDE8F0812DE9F04147
:1055C000044600251E469046C80301D5302700E05A
:1055D0002027880404D505E041463846B0476D1CB5
:1055E000641EF9D52846BDE8F0810A68531C0B609B
:1055F0001070704700B589B000BF0020029033489A
:10560000006840F00200314908600846006800F078
:105610000200029000BF00BF00BF002002902B4894
:105620001030006840F40010284910310860084626
:10563000006800F40010029000BF00BF142104A80D
:10564000FAF752FEC0200490122005900020069028
:10565000032007900420089004A91D48FCF708FBCC
:105660001C481D4908601D48486000211A48816097
:10567000C1604FF480410161002141618161C161DC
:105680000162FCF7F9FB08B100BFFEE72820FCF738
:10569000DBFA4FF0FF30012303AA702100900E487F
:1056A000FCF7D2FC9DF80C0000F0080060B90CA0DB
:1056B000006802904FF0FF30032302AA702100908F
:1056C0000548FCF747FE00BF09B000BD3038024076
:1056D0000004024000540040B4030020A0860100F2
:1056E000BE0800002DE9FF4704460D462AA00068C9
:1056F00003904FF0FF30032303AA70210090274846
:10570000FCF728FE4B20FCF79FFA4FF0FF300623F2
:1057100001AA702100902148FCF796FC9DF8040036
:1057200000F08000A8BB9DF8050000039DF806105E
:1057300040EA01109DF8071040EA11163046FBF7C9
:1057400012F881461649FAF785FE80464FF09341DC
:10575000FAF7B2FE28609DF807000007000B9DF8DD
:10576000081040EA01209DF8091040EA0107384678
:10577000FAF7F9FF82460B49FAF76CFE81464FF0C3
:105780009341FAF799FE80460749FAF75DFE2060DB
:1057900000BFBDE8FF870000AC330000B403002069
:1057A0000000C84200004843000048421CB5FFF713
:1057B00021FF07E0694601A8FFF794FF41F2883016
:1057C00001F024FEF6E7000070B5044622E02568EB
:1057D000A08900F4807020B9A06810B1A068FFF71C
:1057E000F3FFA08900F4807028B9206918B10B4933
:1057F000206909688847A08900F4007028B9206AE8
:1058000018B10649206A0968884720460349096893
:1058100088472C46002CDAD170BD00002000002003
:1058200001480068704700001800002010B52820CB
:1058300005490968884704461CB128212046FAF723
:1058400053FD204610BD00001C00002010B504468A
:1058500000221146204600F001F810BD2DE9F04766
:1058600080460D4616460024FFF7E0FF074600205D
:10587000124908600FB9BDE8F087404601F08EFC80
:1058800081464946384600F09BFC044624B9384618
:10589000FFF79AFF0020EEE766B1204601F07EFC9C
:1058A0000446207830B13846FFF78EFF0348046085
:1058B0000020E0E705B12C603846DCE71800002046
:1058C00000B587B000BF002001905948006840F043
:1058D0001000574908600846006800F01000019069
:1058E00000BF00BF00BF002001905148143800687D
:1058F00040F001004E49143908600846006800F085
:105900000100019000BF00BF00BF002001900846C9
:10591000006840F4800008600846006800F48000D9
:10592000019000BF00BF142102A8FAF7DDFC4FF47C
:10593000C060029002200390002004900320059094
:105940000720069002A93B48FCF792F93A483B49E8
:1059500008604FF4E1304860002138488160C16040
:1059600001610C21416100218161C161FDF7EEFC03
:105970003348344908604FF00060486000213148E6
:105980008160C1604FF480610161002141618161EA
:10599000C16101624162C1620163FCF795F808B11F
:1059A00000BFFEE700BF27482449C86308462549D1
:1059B000886300BF22483030234908604FF0006000
:1059C00048604021204881600021C1604FF480611F
:1059D0000161002141618161C16101624162C16275
:1059E0000163FCF771F808B100BFFEE700BF16487D
:1059F0001249886308461449886300BF0022114693
:105A00002520FCF7F6FD2520FCF7E3FD00221146DA
:105A10004420FCF7EEFD4420FCF7DBFD002211469C
:105A20004620FCF7E6FD4620FCF7D3FD07B000BD9D
:105A3000443802400000024000100140AC01002048
:105A400088600240F40100205402002013B50C4687
:105A50004FF0FF33012269460248FDF7F2FC00983F
:105A60001CBD0000AC01002010B5002821D0114B56
:105A70000022001F196803E0814203D80A464968E2
:105A80000029F9D152B11368841A9C4204D10068EC
:105A900018441060104602E0506000E0186039B110
:105AA00002680B1A934203D10B681A4402604968DA
:105AB000416010BD980000201CB50648012100235C
:105AC0008022CDE9001004A1064801F0DFFE01F0BC
:105AD00021FD1CBD0000002053746172745F54618D
