:020000040800F2
:10000000C87C002031020008AF5500086941000893
:10001000AD550008351000087D61000800000000A3
:10002000000000000000000000000000990100082E
:100030002516000800000000DD010008ED5A000848
:100040004B0200084B0200084B0200084B0200085C
:100050004B0200084B0200084B0200084B0200084C
:100060004B0200084B0200084B0200084B0200083C
:100070004B0200084B0200084B0200084B0200082C
:100080004B0200084B0200084B0200084B0200081C
:100090004B0200084B0200084B0200084B0200080C
:1000A0004B0200084B0200084B0200084B020008FC
:1000B0004B0200084B0200084B0200084B020008EC
:1000C0004B0200084B0200084B0200084B020008DC
:1000D0004B0200084B020008656100084B02000853
:1000E0004B0200084B0200084B0200084B020008BC
:1000F0004B0200084B0200084B0200084B020008AC
:100100004B0200084B020008855B00084B02000808
:10011000655E00084B0200084B0200084B02000815
:10012000751500084B0200084B0200084B0200083E
:100130004B02000800000000000000004B02000815
:100140004B0200084B0200084B0200084B0200085B
:100150004B0200084B0200084B02000871610008C6
:100160004B0200084B0200084B0200084B0200083B
:100170004B0200084B0200080000000000000000D5
:100180004B020008DFF80CD000F05CFD004800478F
:1001900025710008C87C0020224B19680868B0E867
:1001A000F00F80F30988BFF36F8F4FF0000080F3EA
:1001B00011884EF00D0E70470000000006480068E0
:1001C000006880F3088862B661B6BFF34F8FBFF353
:1001D0006F8F00DF00BF00BF08ED00E0EFF3098084
:1001E000BFF36F8F0F4B1A6820E9F00F106008B54E
:1001F0004FF0500080F31188BFF34F8FBFF36F8F24
:1002000009F04AFD4FF0000080F31188BDE8084076
:1002100019680868B0E8F00F80F30988BFF36F8FA2
:10022000704700BFF4010020EFF305807047000025
:100230000648804706480047FEE7FEE7FEE7FEE780
:10024000FEE7FEE7FEE7FEE7FEE7FEE7835B00086A
:10025000850100082DE9F05F0546002092469B4687
:1002600088460646814640241BE0284641464746CC
:10027000224600F05AFB53465A46C01A914110D309
:1002800011461846224600F041FB2D1A67EB010883
:100290004F4622460120002100F038FB17EB0009F1
:1002A0004E41201EA4F10104DFDC484631462A46B7
:1002B0004346BDE8F09FA0F14101192900D8203044
:1002C000704740EA01039B0703D009E008C9121FE9
:1002D00008C0042AFAD203E011F8013B00F8013B00
:1002E000521EF9D27047D2B201E000F8012B491E2C
:1002F000FBD270470022F6E710B513460A460446C3
:100300001946FFF7F0FF204610BD30B505462A46D6
:100310000B4612F8010B13F8014B08B1A042F8D0BC
:100320001CB1002802D06D1CF1E7284630BDCAB2CE
:10033000401E10F8011F8A4202D00029F9D1002086
:100340007047421C10F8011B0029FBD1801A70472E
:1003500010B5044600E0401C0378002BFBD100E000
:10036000401C521E04D311F8013B0370002BF7D13F
:1003700000210170204610BD30B50546002003461F
:1003800000E05B1C934205D2EC5CC85C201A01D1F2
:10039000002CF6D130BD70B5064605F039FF046873
:1003A00005460A220021304600F0E1FA2C6070BDBB
:1003B000F0B480EA0102D40F4200B2EB410F02D246
:1003C0000246084611464A0042D0C30DDDB2C1F3D1
:1003D000C752AD1A202D35DAC1F3160141F40002DF
:1003E00004B15242C5F1200602FA06F12A41104436
:1003F000B3EBD05F23D0C4B1012DA0EBC35009DC17
:10040000F0BC4FF0004202EAC352DBB200F500003C
:1004100000F0EEBA400000F1807000EBC350A0F194
:10042000807040EAD170490009E0490841EAC07192
:10043000A0EBC35000F50000400800EBC350F0BC37
:1004400000F0CDBA6142012202EB4101001BF6E748
:10045000F0BC704781F00041AAE780F00040A7E7B8
:1004600080EA010210B502F00043400022D04A00A9
:100470001FD0010E01EB1261C0F35600C2F3560209
:1004800040F4000042F40002A0FB022000047F3987
:10049000140400D0401C50EA124001D44000491E10
:1004A000C2B20C0604EBD010401C4008802A02D0D7
:1004B00003E0002010BD20F00100002900DA002038
:1004C000184310BD30B480EA010202F0004530F05C
:1004D000004221F0004013D090B1C30DD40DC2F3FF
:1004E0001601C0F31600E41A41F4000140F40002C2
:1004F0007D34914201D3641C00E04900002C02DAF3
:1005000030BC002070474FF400000023914201D31B
:10051000891A034340084FEA4101F7D151B1914292
:1005200002D14FF0004105E002D24FF0010101E09D
:100530006FF0010103EBC450284430BC00F04FBA07
:10054000420005D0C0F3C7525242914201DC002064
:10055000704700EBC15070472DE9FE4F804681EA9D
:100560000300C00F0C46009021F0004123F000452D
:10057000B8EB0200A94105D24046214690461C46F0
:100580000B46024623F00040104347D0270DC7F327
:100590000A00C3F30A510290401A019040286BDA16
:1005A000C3F3130040F4801B0098924620B100234F
:1005B000D2EB030A63EB0B0B01985946C0F14002E2
:1005C000504600F0A3F906460D4650465946019A9A
:1005D00000F0BBF910EB08006141002487EA1152DA
:1005E00084EAE7731A4340D0009A62B3019A012A61
:1005F0004FEA075215DC001B61EB02014FF000428D
:1006000002EA0752CDE90042001C41F58011324652
:100610002B4600F02AFA03B0BDE8F08F4046214691
:10062000F9E7001B61EB0201001C41F58013001883
:100630005B412018A2F5001747EB030140EAD57093
:10064000B6196D4111E06D084FEA360645EAC075EE
:100650004FEA0752001B61EB0201001C41F58011BB
:1006600049084FEA30000019514132462B4603B089
:10067000BDE8F04F00F0EAB90098012240000023E5
:10068000D0EB020263EBE073009821464FEAE0747E
:10069000B8EB000061EB0401E9E783F000435BE79E
:1006A00081F0004158E72DE9FE4F81EA030404F090
:1006B000004421F0004100944FF0000B23F0004370
:1006C00050EA01045ED052EA03045BD0C3F30A543B
:1006D000C1F30A552C44A4F2F3340194A0FB025454
:1006E000C1F3130141F48011C3F3130343F48013E6
:1006F00001FB024400FB034E840A970A44EA81543A
:1007000047EA8357A4FB076802958D0A05FB078516
:100710004FEA932C04FB0C542705029D4FEA065820
:1007200047EA1637B5EB08056EEB070C870E920EFD
:1007300047EA811742EA8312A7FB0201B6EB0B01DD
:1007400064EB00042B0D43EA0C335E1844EB1C50A1
:10075000DA465146E7FB0201C5F313044FEA0B33B7
:1007600043EA14534FEA0432019C43EA0603A4F11E
:100770000C040294009CCDE900B400F076F903B0BB
:10078000BDE8F08F00200146F9E7C10F80EAE07074
:100790000844CA079623002100F02AB996230022B4
:1007A000114600F025B90EB5C10F80EAE07008448B
:1007B000CA07002140F233438DE80E000A460B467B
:1007C00000F053F903B000BD0EB540F23341029181
:1007D0000021CDE900110A460B4600F046F903B0AE
:1007E00000BD00F0004220F00040C10DC0F3160033
:1007F00040F400007F2901DA00207047962903DCCD
:10080000C1F19601C84001E096398840002AF4D031
:100810004042704770B5C1F30A5201F00045002410
:10082000C1F3130140F2FF3341F480119A4201DA1F
:10083000002070BD40F233439A42A2F2334203DCFF
:10084000524200F072F800E090402C43F1D0404258
:1008500070BD00F0004230F000400AD0C10D01F53B
:100860006071C0F3160042EA0151C208400711430B
:10087000704700200146704730B5041E71F1000436
:1008800004DB4FF00044404264EB0101141E73F19D
:10089000000405DB1C464FF00043524263EB0403A7
:1008A000994208BF904230BD01F0004330B421F0BE
:1008B000004150EA010206D00A0DA2F56072C1F3B0
:1008C0001301002A02DC30BC00207047440F44EAC8
:1008D000C104C100E01830BC00EBC25000F07FB88A
:1008E00030B50B46014600202022012409E021FA00
:1008F00002F59D4205D303FA02F5491B04FA02F5FD
:100900002844151EA2F10102F1DC30BD202A04DBCF
:10091000203A00FA02F1002070479140C2F1200312
:1009200020FA03F3194390407047202A04DB203A51
:1009300021FA02F00021704721FA02F3D040C2F1FF
:1009400020029140084319467047202A06DBCB1746
:10095000203A41FA02F043EAE07306E041FA02F37A
:10096000D040C2F1200291400843194670472DE95A
:10097000F04791460F4680460446002614F8015B76
:100980002DB100F071F90068405DC007F6D12B2D44
:1009900002D02D2D18D0641E4A463946204600F05C
:1009A00067F927B13968A14201D1C7F80080710504
:1009B0004FF002040BD54042002803DD05F028FC6F
:1009C0000460A007BDE8F08746F48066E4E70028ED
:1009D000F8DA05F01DFC04606FF00040F2E7002932
:1009E000A8BF7047401C490008BF20F001007047B5
:1009F00010B4B0FA80FC00FA0CF050EA010404BF15
:100A000010BC704749B1CCF1200421FA04F411FA6A
:100A10000CF118BF012121430843A3EB0C01CB1DAE
:100A20004FEA00614FEA102042BF002010BC70471F
:100A300000EBC35010440029A4BF10BC7047401CF9
:100A4000490008BF20F0010010BC704710B5141E0B
:100A500073F1000408DA401C41F1000192185B4177
:100A60001A4301D120F0010010BD2DE9F04D92464E
:100A70009B4611B1B1FA81F202E0B0FA80F2203265
:100A80009046FFF743FF04460F4640EA0A0041EA5A
:100A90000B0153465A46084313D0114653EA01004E
:100AA00019D0C8F140025046FFF73FFF05460E46F9
:100AB000504659464246FFF729FF084305D001201A
:100AC00004E020463946BDE8F08D0020054346EAA3
:100AD000E0762C4337430A986305E40AA0EB08004C
:100AE0000022FD0A44EA47540A3002D5002001469C
:100AF000E9E7010510196941DDE908450019694177
:100B0000BDE8F04DA2E72DE9F04D81EA030404F0C1
:100B1000004B21F0004514464FF0000A23F000413D
:100B200050EA050220D054EA01021DD0C5F30A574D
:100B30000246C5F31303C1F31300C1F30A5640F490
:100B4000801543F48013A7EB0608101BD64608F265
:100B5000FD3873EB050002D308F1010801E092189B
:100B60005B41B8F1000F03DA00200146BDE8F08DCB
:100B700000204FF48011064684460EE0171B73EBED
:100B8000050705D3121B63EB050306434CEA010C72
:100B900049084FEA300092185B4150EA0107EDD155
:100BA00052EA030012D082EA040083EA05010843F6
:100BB00005D0101BAB4106D20122002306E0002223
:100BC0004FF0004302E06FF0010253101AEB0600F1
:100BD0004CEB085110EB0A0041EB0B01BDE8F04D66
:100BE000FFF734BF70B521F0004303430CD0C1F3CD
:100BF0000A550024D5EB040564EB0403D617AD1A9F
:100C0000B34102DB0020014670BD201841EB0251C8
:100C100070BDC1F30A52C1F3130140F2FF3341F436
:100C200080119A4202DA00200146704740F23343B5
:100C30009A42A2F2334202DC5242FFF776BEFFF73D
:100C400065BE0000064C074D06E0E06840F0010379
:100C500094E8070098471034AC42F6D3FFF796FAB1
:100C600014B8000834B8000800487047ECB7000812
:100C70002DE9F05F82460078002715468B460AF181
:100C80000104B946302801D09DB113E014F8010BDE
:100C90000127782803D0582801D045B10AE00DB1CA
:100CA000102D07D10027102514F8010B02E00825AC
:100CB00000E00A250026B0460EE005FB080005FB13
:100CC00006F1012701EB10461FFA80F8B6F5803FC8
:100CD00000D3B94614F8010B294600F069F8002842
:100CE000EBDABBF1000F05D00FB1641E00E05446F3
:100CF000CBF80040B9F1000F06D005F089FA0221C7
:100D00000160C81EBDE8F09F48EA0640FAE72DE9F9
:100D1000F04D00231A461B1A8A4103DB00200146CE
:100D2000BDE8F08DC1F30A52C1F3130141F48015FF
:100D30004FF0000BD10702D100186D41521E002761
:100D4000044640F2FF11384601EB620A3E468046F7
:100D5000024600204FF48011FFF7E7FDC2197141F0
:100D6000BB1846EB0100B4EB030C75EB000C04D38D
:100D7000E41A65EB000517460E46241908F1010038
:100D80006D4180463428E3DDF91946EB0600091B66
:100D9000A84103D24FF0FF32134601E00022134670
:100DA0001BEB070046EB0A51BDE8F04DFFF74EBEC6
:100DB0003A2800D2303820F02002412A01D3A2F193
:100DC0003700884201D34FF0FF30704770B58C1860
:100DD00010F8015B15F0070301D110F8013B2A114F
:100DE00006D110F8012B03E010F8016B01F8016B3C
:100DF0005B1EF9D12B0705D40023521E0DD401F838
:100E0000013BFAE710F8013BCB1A921C03E013F800
:100E1000015B01F8015B521EF9D5A142D8D3002035
:100E200070BD10B50146806B026C12F0500F05D0FA
:100E3000026CD20626D500F017FE10BD016C41F4FD
:100E40000071016401688A6812F0405F17D1027E68
:100E5000AAB9CA6A12F4700F02D08A6852050ED479
:100E60004A6822F020024A60016C21F4807101641A
:100E7000016CC90403D4016C41F00101016400F06C
:100E8000F1FD10BD806BC26CBDE8104008461047F4
:100E900010B5806B40210164416C41F00401416454
:100EA00000F0E2FD10BD10B5806B00F0DCFD10BD60
:100EB0004B4910B5D1F8042322F44032C1F8042381
:100EC000D1F8042343681A43C1F8042301684A682F
:100ED00022F480724A6001684A68036942EA032288
:100EE0004A6001684A6822F040724A6001684A68B4
:100EF00083681A434A6001688A6822F400628A6043
:100F000001688A68C3681A438A60816A6FF07062F8
:100F1000D14201688A6822F070628A6001688A683A
:100F20000CD0836A1A438A6001688A6822F04052B2
:100F30008A6001688A68C36A1A4301E022F040525D
:100F40008A6001688A6822F002028A6001688A6801
:100F5000037E42EA43028A6090F82010002901686B
:100F60004A6815D042F400624A6001684A6822F477
:100F700060424A6001684B684FF46044426A94FAE8
:100F8000A4F4B4FA84F4521EA24013434B6002E06E
:100F900022F400624A600168CA6A22F47002CA62DE
:100FA0000168CA6A838B0F4C04EB03531A43CA626D
:100FB00001688A6822F400728A6001688A6890F881
:100FC000303042EA43228A6001688A6822F48062F3
:100FD0008A6001688A68406942EA8020886010BDA2
:100FE000002001400000F0FF10B50A460146064807
:100FF00002F045FD002806D00348416CBDE81040D2
:1010000002A005F0BDB810BD78040020554152542F
:101010003420E68EA5E694B6E590AFE58AA8E5A46F
:10102000B1E8B4A520E99499E8AFAFE7A0812564C1
:101030000A000000FEE7000030B58BB000240694E3
:101040000794089401251DA31FA221A122A00994A1
:1010500005F096F806A8CDE904400120CDE900048A
:10106000029403943C2315A217A119A003F038FCA5
:10107000D8B9079881B2069800F00EFC10B922A0EA
:1010800005F07EF8C82000F0ABFB04000AD004F0A5
:1010900003F8022806D1204603F014FF40B122A035
:1010A00005F06EF806A803F0D1FB0BB0284630BD62
:1010B00026A005F065F80025F4E70000536D617285
:1010C000745F686F6D6500003333323100000000DB
:1010D000786368656E000000436C6F75645F4465FB
:1010E000764C696E6B0A50524F49443A2025732C56
:1010F00020415549463A2025732C20444556494401
:101100003A25730A00000000E58F91E98081E8BF6D
:101110009EE68EA5E695B0E68DAEE68890E58A9FC0
:10112000EFBC81200A0000004D515454E8BF9EE6F8
:101130008EA5E5A4B1E8B4A5EFBC9AE69CAAE79F0A
:10114000A5E99499E8AFAF5C6E0000004D5154548E
:101150002042726F6B657220E8BF9EE68EA5E6881E
:1011600090E58A9F210A000070B588B000240D46E2
:101170000A460646014604940594069413A0079473
:1011800004F0FEFF2846FFF7DCF8034604A801211F
:10119000CDE9021000942A46019431460A2003F05A
:1011A000D1FC58B9059881B2049800F075FB40B1A4
:1011B0000EA004F0E5FF04A803F048FB012008B0EE
:1011C00070BD04A803F042FB0020F8E75075626C84
:1011D00069736820546F7069633A2025732C204D21
:1011E00073673A2025730D0A00000000E695B0E60B
:1011F0008DAEE58F91E98081E5A4B1E8B4A5EFBC9F
:1012000081EFBC81200A0000F0B50746002091B0B4
:101210000446089005900390049006900790ADF85E
:101220002800ADF824008DF834000646384603F057
:1012300033FF0546C01E5E490D2879D2DFE800F075
:1012400017454C60799D7F9D879D9D9D070009AB4B
:1012500003AA04A9384603F0F4FD040014D1DDE923
:101260000321BDF8243053A004F08AFF44E00DA808
:1012700009AACDE90020029103AB0AAA04A93846C5
:1012800003F02EFE040004D000F0CEF9601C76D0EE
:1012900066E0BDF824000090DDE90331BDF82820A8
:1012A0004DA004F06DFF039805F0FCFD070005D08C
:1012B00008F00AFA384605F0AFFD4FE005F0D0FD22
:1012C000014654A004F05CFF48E0384603F0B0FE4D
:1012D000002843D154A03FE0384603F0C1FE002867
:1012E0003CD159A004F04CFF05A90A2003F0FAFCF8
:1012F000002833D15AA013E005A803F0A7FA2DE087
:101300000988384603F0B8FE002827D15AA004F017
:1013100037FF05A90A2003F0C2FC00281ED15CA0FB
:1013200004F02EFF069881B2059800F0B5FAE3E7C5
:1013300023E0384603F088FE80B95CA00CE0384614
:1013400003F0DAFE08B15FA006E065A004E03846CD
:1013500003F0E8FE78B169A004F012FF00F064F930
:101360007D210398FEF7E3FFB0B1641C14D00EAAF0
:10137000401C09E003E069A0EEE700F055F911B068
:10138000F0BD9155401C761C0178A1F13003092B6A
:10139000F7D91046FEF7FFFF0F2D01D0032DEED138
:1013A000049805F015FE039805F012FEE7E700002B
:1013B000F0010020636D6469643A2025732C20726B
:1013C00065713A2025732C207265715F6C656E3AE9
:1013D0002025640D0A000000746F7069633A2025AF
:1013E000732C20746F7069635F6C656E3A2025649E
:1013F0002C207061796C6F61643A2025732C207009
:1014000061796C6F61645F6C656E3A2025640D0ACA
:10141000000000004572726F72206265666F72652F
:101420003A205B25735D0A00546970733A094D5187
:101430005454205075626C6973682053656E642043
:101440004F4B0D0A00000000546970733A09526551
:1014500076205075626C6973685265630D0A0000EE
:10146000546970733A0953656E64205075626C69F3
:10147000736852656C0D0A00546970733A095265BD
:1014800076205075626C69736852656C0D0A0000B5
:10149000546970733A0953656E64205075626C69C3
:1014A0007368436F6D700D0A00000000546970731B
:1014B0003A09526576205075626C697368436F6DA6
:1014C000700D0A00546970733A094D5154542053F9
:1014D0007562736372696265204572720D0A00005D
:1014E000546970733A094D515454205375627363B3
:1014F00072696265204F4B0D0A00000054697073D9
:101500003A094D51545420556E5375627363726994
:101510006265204572720D0A000000005469707304
:101520003A094D51545420556E5375627363726974
:101530006265204F4B0D0A0000B585B00022019274
:1015400002920392049201AA00920B4602460021E5
:10155000142003F0EAFB10B1012005B000BD029891
:1015600081B2019800F098F901A803F06FF900200A
:10157000F3E70000014800F003BC0000D4020020A3
:1015800001681823CAB2103AB2FBF3F2054B6FF3AD
:101590000901032A9B5CC36500D9091D81650846C2
:1015A00070470000CDB6000810B5014600208B69D9
:1015B0008A6A4FF0C07453B1B3F5005F15D072B1B1
:1015C000012A0CD0022A0AD0032A09D104E01AB158
:1015D000012A06D0022A03D1C96AC90100D5012017
:1015E00010BDC96AA142FAD010BD002AF7D0012A65
:1015F000F2D0022AF3D0032AF3D010BD30B504682C
:10160000256825F480252560046863608368402B85
:10161000036803D099600068C26030BD9A600068BA
:10162000C16030BD7047000010B54FF480710348B1
:10163000FEF760FE02490020088010BDF42C002057
:101640008600002010B5FFF7EFFF20A004F098FD02
:10165000C8221FA11FA000F0F5F808B11FA00CE0E0
:1016600021A004F08DFD22A004F08AFDC82218A15B
:1016700023A000F0E7F838B125A004F081FD294946
:1016800029A004F07DFD16E02BA004F079FDC8220E
:101690000FA12DA000F0D6F808B133A0EDE737A0D8
:1016A00004F06EFDC8220AA138A000F0CBF838B1D2
:1016B00041A004F065FDC82000F0D4FC012010BD5D
:1016C00042A004F05DFD002010BD000041540A005E
:1016D0004F4B000041540D0A0000000041542045CA
:1016E00052524F52210A00004154204F4B0A000031
:1016F00041542B43574D4F44453D310A00000000F3
:1017000041542B43574D4F44453D310D0A000000D5
:1017100041542B43574D4F44453D31204552524F84
:10172000520A0000F42C002072785F6275666665CC
:10173000723A2573200A0000455350383236365F1E
:10174000574946490A00000041542B43574A41502B
:101750003D227869616F7869222C22313233343529
:10176000363738220D0A0000455350383236365F7E
:1017700057494649204552524F520A004553503866
:101780003236365F5443500A0000000041542B4368
:10179000495053544152543D22544350222C223438
:1017A000372E3130392E39342E313430222C313825
:1017B00038330D0A00000000455350383236365F8A
:1017C000544350204552524F520A0000455350385E
:1017D00032363620496E6974204F4B0A00000000F3
:1017E00010B50446FFF720FF00F07AF888B90DA184
:1017F0000E48FEF78AFD60B13A21FEF798FD0028F9
:1018000006D0401C0446014609A004F0B9FC20465D
:1018100010BD0A2000F026FC641E2404240CE3D131
:10182000002010BD4950442C00000000F42C002082
:10183000495044206461746120666F756E643A207B
:1018400025730A0070B514460D460646FFF7ECFEF8
:101850003046FEF776FD81B2304608F0E3FA0D49D6
:101860000B4809880844012108F0D4FA0CE000BFB5
:1018700000F036F840B929460548FEF746FD18B194
:10188000FFF7D2FE002070BD641EF1D2022070BDB1
:10189000F42C00208600002030B589B00C460546A7
:1018A000FFF7C2FE224609A1684604F079FCC8226F
:1018B0000AA16846FFF7C6FF10B1012009B030BD8C
:1018C0002146284608F0AEFA0020F7E741542B43A2
:1018D000495053454E443D25640D0A003E0000002A
:1018E00070B500F01BFD00F5FA74084D06E000BF6E
:1018F00000F014FDA04201D9022070BD288869883B
:101900008842F5D06880002070BD0000860000206D
:1019100072B6FEE778B50024009490F83C20012AC6
:1019200019D0012280F83C200A6807230568092A9B
:1019300013D9EE680A3A02EB420293409E43EE60EE
:101940000B788A680A3B03EB43039A400368DD681F
:101950002A43DA6010E0022078BD2E6902EB4202D1
:1019600093409E432E610A788B6802EB42029340BB
:10197000026815692B4313614A681F23072A13D293
:1019800005686E6B521E02EB820293409E436E63AB
:101990000B790A885B1E92B203EB83039A400368BB
:1019A0005D6B2A435A6327E005680D2A12D22E6B1D
:1019B000D21F02EB820293409E432E630B790A886A
:1019C000DB1F92B203EB83039A4003681D6B2A432B
:1019D0001A6311E0EE6A0D3A02EB820293409E43D5
:1019E000EE620B790A880D3B92B203EB83039A40B7
:1019F0000368DD6A2A43DA62174A0368934208D112
:101A00000B68122B05D1D2F8043343F48003C2F8DB
:101A10000433036893421AD10B68102B01D0112BA9
:101A200015D1D2F8043343F40003C2F80433096833
:101A300010290CD109490A4A0968B1FBF2F101EBFE
:101A40008101490000E0491E00910029FBD180F886
:101A50003C40002078BD0000002001406C020020C6
:101A600040420F0070477047704770B504004FF058
:101A7000000503D0206C002610B107E0012070BDE6
:101A8000204600F01DF8666484F83C60206CC006B7
:101A900010D4206C20F4885040F0020020642046CE
:101AA000FFF706FA6664206C20F0020040F00100A7
:101AB000206400E0012584F83C60284670BD0000E9
:101AC00070B586B0064614216846FEF713FC1D4922
:101AD0003068884233D11C480025016841F4807188
:101AE0000160006800F480700590174814380168A0
:101AF00041F0010101600068694600F001000590B5
:101B0000802000900320CDE90105104800F0BCFAC8
:101B1000104C0F48C4E900050015A560C4E9035046
:101B2000400060618000C4E90605256220466562C8
:101B300000F0F6F908B1FFF7EBFEB463A66306B058
:101B400070BD000000200140443802400000024007
:101B500010640240D4020020F8B50D46002104466E
:101B6000009190F83C00012807D0012084F83C0047
:101B700020688368DB0702D011E00220F8BD83688B
:101B800043F0010383603248324B0068B0FBF3F04E
:101B900000EB400000E0401E00900028FBD12068D0
:101BA0008368DB0749D0236C40F20166B34343F4FA
:101BB000807323644068400505D5206C20F40050F4
:101BC00040F480502064206CC00404D5606C20F088
:101BD0000600606400E0616484F83C10A16B1E485C
:101BE000C863A16B1D480864A16B1D48C8642168C7
:101BF0006FF0220008602068416841F08061416018
:101C00002068816841F480718160216813462A460A
:101C10004C31A06B00F0EEF91249D1F80403C00674
:101C2000206801D0884210D1816811F0405F0CD14A
:101C3000816841F08041816007E0206C40F0100035
:101C40002064606C40F0010060640020F8BD00007A
:101C50006C02002040420F00230E0008A70E00086F
:101C6000910E00080020014010B50446002094F8B1
:101C70003C1001290CD0012184F83C1021688A68AD
:101C800022F001028A6021688A68D20702D018E037
:101C9000022010BD8A6822F480728A60A16B91F8DC
:101CA0003520022A0DD1084600F00FF821684A6855
:101CB00022F080624A60216C21F4885141F00101D8
:101CC0002164002184F83C1010BD2DE9F041044648
:101CD000876D00F023FB064694F8350000250228A6
:101CE00006D08020606584F834500120BDE8F08182
:101CF0002068016821F0160101602068416921F027
:101D000080014161206C08B9A06C20B12068016895
:101D100021F0080101602068016821F001010160E3
:101D20000CE000F0FBFA801B052807D92020606535
:101D3000032084F8350084F83450D7E72068006821
:101D4000C007EED194F85C103F208840B8600120B5
:101D500084F8350084F834500020C7E790F8351037
:101D6000022903D08021416501207047052180F8B8
:101D700035100068016821F0010101600020704702
:101D80002DE9F84304464FF00009CDF80090634870
:101D90004FF41651A56D0068B0FBF1F72E6894F86A
:101DA0005C10082000FA01F131420FD021680A6866
:101DB00052070BD50A6822F004020A6094F85C10FE
:101DC0008840A860606D40F00100606594F85C1088
:101DD0004FF0010808FA01F0304208D02168496943
:101DE000090604D5A860606D40F00200606594F8B3
:101DF0005C1004208840304208D0216809688907B7
:101E000004D5A860606D40F00400606594F85C1033
:101E100010208840304218D021680968090714D57D
:101E2000A86020680168490304D50068000308D54C
:101E3000A16C07E00168C90503D4016821F008011D
:101E40000160216C09B12046884794F85C1020207D
:101E50008840304231D021680968C9062DD5A86074
:101E600094F8350005282068016806D0490347D555
:101E7000006800031DD4616C1CE021F016010160B4
:101E80002068416921F080014161206C08B9A06C93
:101E900020B12068016821F00801016094F85C100D
:101EA0003F208840A86084F8358084F83490216D04
:101EB0001FE0E16B09B120468847606D00282BD0F8
:101EC000606DC00714D0052084F8350020680168D3
:101ED00021F0010101600098401C0090B84203D835
:101EE00020680068C007F6D184F8358084F8349003
:101EF000E16C002910D001B02046BDE8F04308474E
:101F00000168C905D5D4016821F01001016084F889
:101F1000358084F83490CCE7BDE8F8836C0200206B
:101F20002DE9F041044600F0F9F906465CB10220C3
:101F300084F83500002584F834502068016821F0C9
:101F4000010101600DE00120BDE8F08100F0E6F93B
:101F5000801B052805D920206065032084F8350002
:101F6000F2E720680068C007F0D1226811682048B5
:101F70000140D4E901031843D4E90336334318433D
:101F800063691843A3691843E3691843236A184334
:101F90000843616A042903D1D4E90B1319430843A8
:101FA000106020684069666A20F0070130460E43E1
:101FB000012704280CD1A06A0643E06A40B12046FC
:101FC000FFF7F2FA20B14020606584F83570BAE777
:101FD000206846612046FFF7D3FA94F85C203F2141
:101FE00091408160656584F835700020ACE70000A1
:101FF0003F8010F02DE9F0410446866D90F83400E2
:10200000002501280DD0012084F8340094F83570A3
:102010000020012F07D084F8340002252846BDE8AF
:10202000F0810220FBE7022784F8357060652046C6
:10203000FFF7E4FA94F85C103F208840B060206815
:10204000016841F016010160206C20B12068016830
:1020500041F0080101602068016841F00101016060
:10206000DCE7000031B500F059F9009C0546601C22
:1020700002D004480078044400F050F9401BA0420C
:10208000FAD338BD700200202DE9F04FDFF85092EE
:10209000002301260325A9F1040B85B00F2709F1C0
:1020A000040AABF1040E12E1224606FA03F42240C0
:1020B0007ED091F804C00CF0030CBCF1010F02D0EB
:1020C000BCF1020F26D1D0F80880CDF800804FEA8D
:1020D000430805FA08FCCDF81080DDF8008028EAF6
:1020E0000C08CDF80080D1F80CC0DDF810800CFA97
:1020F00008FCDDF800804CEA080CC0F808C0D0F8F5
:1021000004C02CEA040C0C79C4F300149C4044EA8B
:102110000C0444600C79E443A40712D0C4684FEA6D
:10212000430CCDF808C005FA0CFC24EA0C04D1F8E5
:102130000880DDF808C008FA0CF848EA0408C0F87E
:102140000C800C7904F00304022C16D1DC0800EB9F
:10215000840CCDF808C0DCF820C05C074FEAD468D6
:1021600007FA08F42CEA040C0C6904FA08F444EAAF
:102170000C04DDF808C0CCF8204004684FEA43089E
:1021800005FA08FC24EA0C0491F804C00CF0030CD6
:102190000CFA08FC4CEA040CC0F800C04C6814F4BB
:1021A000403F05D04F4CD4F800C04CF4804C00E0C8
:1021B0008CE0C4F800C0246823F0030C04F48044CD
:1021C0000094494C64440294D4F808484FEA837C54
:1021D0004FEA1C7807FA08FC24EA0C04DFF80CC16B
:1021E000604502D14FF0000C39E0DFF804C16045D2
:1021F00002D14FF0010C32E0DFF8F8C0604502D1A7
:102200004FF0020C2BE0DFF8F0C0604502D14FF038
:10221000030C24E0DFF8E4C0604502D14FF0040C69
:102220001DE0DFF8DCC0604502D14FF0050C16E080
:10223000DFF8D0C0604502D14FF0060C0FE0DFF8A8
:10224000C8C0604502D14FF0070C08E0DFF8BCC001
:10225000604502D14FF0080C01E04FF0090C0CFA78
:1022600008FC4CEA040C029CC4F808C8D9F80040E9
:10227000CC46D1F8048094435FEAC82800D51443C3
:10228000CCF80040DAF80040D446D1F804809443FA
:102290005FEA882800D51443CCF80040DBF8004002
:1022A000DC46D1F8048094435FEA883800D51443B3
:1022B000CCF80040DEF80040F446D1F804809443A6
:1022C0005FEAC83800D51443CCF800405B1C0A68AC
:1022D0001446DA407FF4E8AE05B0BDE8F08F0000A8
:1022E000083C0140443802400030014000000240F8
:1022F0000004024000080240000C024000100240AE
:102300000014024000180240001C0240002002405D
:102310000AB1816170470904FBE700000148806849
:102320007047000070020020006C704770B5040018
:1023300025D094F83D00002520B984F83C50204673
:1023400000F0DAFB242084F83D002068016821F0C9
:10235000010101602068016841F4004101602068CA
:10236000016821F40041016000F0D8FD4D4A616828
:10237000914201D84C4900E04C49884201D20120E9
:1023800070BD4B492368B0FBF1F15E6826F03F0653
:102390000E435E606368934206D94FF496735943C7
:1023A0004FF47A73B1FBF3F12368491C1E6A26F0DF
:1023B0003F06314319626168914210D84900401EBE
:1023C000B0FBF1F2521CC2F30B02042A01D204202A
:1023D00022E0B0FBF1F0401CC0F30B001CE0A2684F
:1023E000F2B301EBC10303EB0116431EB3FBF6F39B
:1023F0005B1C43F480431B0549D092B301EBC1023F
:1024000002EB0111401EB0FBF1F0401CC0F30B00C9
:1024100040F4804040F400402168CA694CF6FF73E4
:102420009A431043C861D4E9071001432068026849
:1024300022F0C00211430160D4E903010143206886
:10244000826848F2FF339A4311438160D4E9050161
:1024500008432168CA6822F0FF021043C86001E007
:102460000EE016E02068016841F00101016025647A
:10247000202084F83D00256384F83E50002070BD84
:1024800001EB4106431EB3FBF6F35B1CB3E70120EF
:10249000C2E701EB4101401EB0FBF1F0401CC0F36C
:1024A0000B00B7E7A086010080841E0000093D00F4
:1024B00040420F002DE9F84F1F4690468A460446D9
:1024C000DDF82890FFF72AFF054694F83D00202804
:1024D00071D11923012270492046009502F01EF89F
:1024E0000028F5D194F83C00012864D0012084F83C
:1024F0003C0020680168C90703D1016841F001016F
:1025000001602068016821F400610160222084F8E4
:102510003D00102084F83E0000262664C4F8248084
:102520006785608D20855D48E0622B464A465146AE
:10253000204601F031FE002876D1208D584F68B139
:10254000012814D002282068016816D041F4806167
:10255000016020684169806900908EE020684169CF
:1025600081690091016841F40071016085E0206893
:10257000016821F480610160F0E721F4806101606D
:102580002068016841F40061E2E7032846D8012889
:102590000AD0022810D04B4600223946204600952A
:1025A00001F0BCFFC8BB25E02A464946204602F0A0
:1025B0005BF890BB54E06CE04B4600223946204665
:1025C000009501F0ABFF40BB2068016841F4007149
:1025D000016020680069616A0870606A401C60627E
:1025E000218D491E2185618D491E618521680969FA
:1025F000017039E02068016821F480610160206881
:102600000069616A0870606A401C6062208D401E2B
:102610002085608D401E6085CEE705E02A4649464C
:10262000204602F021F810B10120BDE8F88F2068A3
:102630000069616A0870606A401C6062208D401EFB
:1026400081B22185608D401E608520684269D24339
:10265000520712D4032903D1016821F4806101607B
:1026600020680069616A0870606A401C6062208DA1
:10267000401E2085608D401E6085208D002884D1FD
:10268000202084F83D0084F83E6084F83C600020FF
:10269000CBE70220C9E70000020010000000FFFFA6
:1026A000040001002DE9F84F1F4690468A46044673
:1026B000DDF82890FFF732FE054694F83D0020280B
:1026C0007FD11923012240492046009501F026FFC1
:1026D000002876D194F83C00012872D0012084F8BB
:1026E0003C0020680168C90703D1016841F001017D
:1026F00001602068016821F400610160212084F8F4
:102700003D00102084F83E0000262664C4F8248092
:102710006785608D20852D48E0622B464A465146EC
:10272000204601F0AFFD90B92068416980690090B2
:1027300036E02A464946204601F0CEFF50B1206CD3
:10274000042804D12068016841F40071016001206F
:10275000BDE8F88F606A216800780861606A401CF3
:102760006062618D491E6185218D491E89B2218576
:1027700022685369DB435B070BD451B100781061C9
:10278000606A401C6062608D401E6085208D401E26
:1027900020852A464946204601F094FE0028CED1E5
:1027A000208D0028C5D154F83D0B016841F400711B
:1027B0000160202004F81E09E67766770020C7E74D
:1027C000FFE70220C4E70000020010000000FFFF46
:1027D0002DE9FF4F83B09A46DDE9119793460446F1
:1027E000DDF84080FFF79AFD054694F83D0020286B
:1027F00070D11923012271492046009501F08EFE07
:102800000028F5D194F83C00012863D0012084F819
:102810003C0020680168C90703D1016841F001014B
:1028200001602068016821F400610160222084F8C1
:102830003D00402084F83E0000262664C4F8248031
:10284000A4F82A90608D20855D48E062CDE900758E
:1028500053465A462046049901F062FD00287CD177
:10286000208DD0B1012821D00228206824D04169D0
:1028700080690090208D032869D801282BD0514908
:1028800002283B464FF00002009559D0884620466A
:1028900001F044FE002860D13CE020684169816974
:1028A0000091016841F40071016077E020680168DF
:1028B00021F480610160F0E7016821F4806101602A
:1028C0002068016841F40061016020684169806905
:1028D000009063E06FE02A463946204601F0C4FECE
:1028E00098BB20680069616A08704EE02068016842
:1028F00041F40071016020680069616A0870606AD3
:10290000401C6062218D491E2185618D491E6185B3
:10291000216838E02068016821F480610160206846
:102920000069616A0870606A401C6062208D401E08
:102930002085608D401E60853B4600224146009503
:10294000204601F0EBFD00B9D0E706E0FFE72A469C
:102950003946204601F088FE18B1012007B0BDE8D5
:10296000F08F20680069616A0870606A401C6062CC
:10297000218D491E2185618D491E618521684A6925
:10298000D24352070AD409690170606A401C606230
:10299000208D401E2085608D401E6085208D002882
:1029A0007FF468AF202084F83D0084F83E6084F80E
:1029B0003C600020D2E70220D0E7000002001000B7
:1029C0000000FFFF040001002DE9FF4F83B09A468D
:1029D000DDE9119793460446DDF84080FFF79EFC41
:1029E000054694F83D0020287FD119230122404953
:1029F0002046009501F092FD002876D194F83C0025
:102A0000012872D0012084F83C0020680168C907C1
:102A100003D1016841F0010101602068016821F4DF
:102A200000610160212084F83D00402084F83E00D0
:102A300000262664C4F82480A4F82A90608D20859E
:102A40002C48E062CDE9007553465A462046049969
:102A500001F0E4FC70B930E02A463946204601F026
:102A60003BFE58B1206C042804D12068016841F471
:102A700000710160012007B0BDE8F08F606A216835
:102A800000780861606A401C6062218D491E89B22D
:102A90002185628D521E628522685369DB435B0784
:102AA0000BD469B100781061606A401C6062208DAF
:102AB000401E2085608D401E6085208D0028CBD172
:102AC0002A463946204601F0FDFC0028CAD154F8B8
:102AD0003D0B016841F400710160202004F81E09DB
:102AE000E67766770020C6E7FFE70220C3E700002D
:102AF000020010000000FFFFF0B587B0044614216B
:102B00006846FDF7F7FB2768234CDFF888C00022F2
:102B1000214912230325042620481034674518D183
:102B20000F6847F002070F60096802AF01F0020169
:102B30000591C021CDE9001387E864006946FFF7DD
:102B4000A3FA206840F400102060206800F4001010
:102B50001CE0DFF84CC0674519D10F6847F0020749
:102B60000F60096802AF01F0020105914FF4406166
:102B7000CDE9001387E864006946FFF785FA20680D
:102B800040F480002060206800F48000059007B0C9
:102B9000F0BD000000540040303802400004024004
:102BA0000058004070B5040011D021684CF6CC40AC
:102BB0000860216845F255500860D4E90001416081
:102BC0002168A0688860FFF7A9FB05460DE0012099
:102BD00070BD00BFFFF7A2FB401B312805D920685C
:102BE000C068800701D0032070BD2068C0688007DE
:102BF000F0D121684AF6AA200860002070BD006864
:102C00004AF6AA210160002070470000024881684E
:102C10000278114481607047700200200B4810B5A3
:102C2000016841F400710160016841F48061016054
:102C3000016841F480710160032000F09FF80F20CB
:102C400000F006F800F050F8002010BD003C0240F3
:102C500030B505461F4887B00024016841F00801DF
:102C60000160006806A900F00800009001A800F0CB
:102C700035F90498A8B100F051F940001649174AF7
:102C8000B0FBF1F11648491E026040F2E732C0E99C
:102C90000324C0E90114846100F0BAFB040003D0EE
:102CA00015E000F03BF9E9E70D4800F001FC0400F5
:102CB0000DD1322000F034F8102D07D20022294621
:102CC000322000F03BF80748056000E0012407B01F
:102CD000204630BD4038024040420F00000C00400A
:102CE00098050020740200200C4882B0016841F46D
:102CF00080410160006800F4804000900748001F98
:102D0000016841F0805101600068002200F08050AD
:102D100000900F21901E02B000F010B8443802401D
:102D2000002809DB00F01F020121914040098000CA
:102D300000F1E020C0F8001170470000F0B40E4B25
:102D40001B680C46C3F30223C3F10705042D00D909
:102D50000425191D072901D2002300E0DB1E0126EE
:102D600006FA05F1491E214099409E40761E164004
:102D70003143F0BC03F03CBA0CED00E0064900F032
:102D8000070208684FF6FF03184040EA0220034A92
:102D900010430860704700000CED00E00000FA05E9
:102DA0002DE9F0470E46050063D0DFF81C81D8F806
:102DB0000000F7B200F00F00B04207D288F80070B0
:102DC000D8F8000000F00F00B04252D128683F4C04
:102DD000810712D5400703D5206840F4E0502060F9
:102DE0002878000703D5206840F460402060206800
:102DF000A96820F0F000084320602878C0072BD095
:102E0000324968680839012810D00968022810D0B2
:102E1000890700292DDA216821F00301014321608F
:102E2000FFF77CFA814641F2883A0EE0096889038F
:102E3000EFE78901EDE700BFFFF770FAA0EB0901AA
:102E4000514502D90320BDE8F0872068696800F089
:102E50000C00B0EB810FEFD1D8F80010404601F024
:102E60000F01B14207D90770006800F00F00B042AF
:102E700001D00120E7E72878400705D52068E968F8
:102E800020F4E050084320602878000706D5206829
:102E9000296920F4604040EAC100206000F06EF82B
:102EA0002168F02292FAA2F201F0F001B2FA82F265
:102EB000D140074A515CC84006490860064800688E
:102EC000FFF7C6FE0020BEE7003C02400838024083
:102ED000B5B600086C020020740200200F220260C8
:102EE0000C4A136803F003034360136803F0F00314
:102EF0008360136803F4E053C36012684FF4E05337
:102F000003EAD20202610448006800F00F00086082
:102F10007047000008380240003C02400848094958
:102F2000006809684FF4E05292FAA2F201F4E0510D
:102F3000B2FA82F2D140044A515CC84070470000A6
:102F40006C02002008380240C5B60008084809494C
:102F5000006809684FF4604292FAA2F201F46041FD
:102F6000B2FA82F2D140044A515CC8407047000076
:102F70006C02002008380240C5B60008154810B59C
:102F8000006810F00C02144813D04110042A0FD02E
:102F9000082A0ED10F4C241F2268236802F03F023A
:102FA0005B0207D52068C0F38810A0FB010106E092
:102FB000084610BD2168C1F38811A1FB0001002360
:102FC000FDF748F92168C1F30141491C4900B0FBF4
:102FD000F1F010BD083802400024F4002DE9F84F4C
:102FE00004007BD0DFF828B32078ABF10406C007DB
:102FF000A6F1040536D0DBF800105846C1F3810174
:10300000012907D00068C0F38100022809D1306887
:10301000400206D52868800324D560680028E0D0E7
:1030200020E0BB492079891F0870606868B1FFF70C
:1030300075F9074605E000BFFFF770F9C01B64286B
:1030400076D828688003F7D50CE0FFF767F90746C4
:1030500005E000BFFFF762F9C01B6428F0D82868BC
:103060008003F7D42078DFF8AC8280074FF00009A6
:1030700044D5DBF80010584611F00C0F4FF0F80A59
:1030800007D00068C0F38100022809D130684002EF
:1030900006D42868800715D5E06801281ED111E004
:1030A000E068E0B10120C8F80000FFF737F90746F3
:1030B00005E000BFFFF732F9C01B0228C0D828681E
:1030C0008007F7D528689AFAAAF22169B2FA82F243
:1030D00020F0F8009140084328600FE013E1C8F8A1
:1030E0000090FFF71BF9074605E000BFFFF716F950
:1030F000C01B02281CD828688007F7D42078000756
:1031000027D5DFF80CA2844861690AF16C0A81B105
:1031100001210160FFF702F9074604E0FFF7FEF81E
:10312000C01B022804D8DAF800008007F6D510E0AA
:1031300082E0C0F80090FFF7F1F8074605E000BF15
:10314000FFF7ECF8C01B022876D8DAF800008007F9
:10315000F6D4207840075FD5DFF8B4A100270AF144
:10316000380ADAF80000C0000BD4DAF8001041F099
:103170008051CAF80010DAF80000012700F08050F2
:1031800000906648016841F4807101600168C905DA
:1031900012D4016841F480710160FFF7BFF800901C
:1031A00006E000BFFFF7BAF80099401A02287ED85F
:1031B0005A480068C005F5D55549207A683108702D
:1031C000A06888B1FFF7AAF8009007E0FFF7A6F81B
:1031D0000099411A41F28830814268D84C486830E1
:1031E00000688007F2D510E0FFF798F8009007E03C
:1031F000FFF794F80099411A41F28830814256D87D
:103200004348683000688007F2D42FB1DAF8001024
:1032100021F08051CAF80010A069B8B3DBF80010A3
:10322000C1F38101022949D00228C8F8609004D076
:10323000FFF774F804463DE039E0FFF76FF8074602
:1032400005E000BFFFF76AF8C01B64282FD8286884
:103250008001F7D4D4E907010843616A94F82C206F
:10326000890141EA02610843A16A2D4A490802EB3B
:103270000141084331682B4A114008433060012066
:10328000C8F86000FFF74AF8044606E03DE000BFDA
:10329000FFF744F8001B642809D828688001F7D597
:1032A00033E000BFFFF73AF8001B642802D903207F
:1032B000BDE8F88F28688001F4D426E00128F7D013
:1032C0003068E26900F4800191421CD1226A00F06A
:1032D0003F01914217D147F6C071626A0140B1EBDC
:1032E000821F10D1A26A4FF0FF3300F4403103EB8C
:1032F0005202B1EB024F06D194F82C1000F070602E
:10330000B0EB016F01D00120D2E70020D0E7000030
:103310000838024000004742800E474200700040DB
:103320000000FFFF0080BCF07047704710B590F8B8
:103330003C20012A22D0012280F83C20CA688C68F7
:1033400022F4407222434C6822F4806222430C68CB
:1033500022F4006222430C6922F4805222434C6919
:1033600022F400522243C969002322F480420A4316
:1033700001684A6480F83C30002010BD022010BD76
:1033800070B590F83C20012A32D0012480F83C40EE
:10339000022280F83D2003685A689D6822F070067A
:1033A0000A6832435A60134B02689A4214D0B2F151
:1033B000804F11D0104B9A420ED0104B9A420BD036
:1033C0000F4B9A4208D00F4B9A4205D00E4B9A42AF
:1033D00002D00E4B9A4204D1496825F0800319436C
:1033E000916080F83D40002180F83C10084670BD97
:1033F000022070BD000001400004004000080040B1
:10340000000C004000040140004001400018004052
:1034100010B5040003D094F83D0010B107E001207E
:1034200010BD002084F83C00204600F01FF8022068
:1034300084F83D00211D206802F0AAFB012084F8D9
:10344000460084F83E0084F83F0084F8400084F889
:10345000410084F8420084F8430084F8440084F872
:10346000450084F83D00002010BD000008B500684C
:103470000C49884208D10C48016841F00101016003
:10348000006800F001000BE00849884209D10648B5
:10349000001F016841F004010160006800F00400B1
:1034A000009008BD00000140443802400008004080
:1034B00090F83D10012901D001207047022180F8C9
:1034C0003D100168CA6842F00102CA6000681149F3
:1034D000884214D0B0F1804F11D00F4988420ED0ED
:1034E0000E4988420BD00E49884208D00D498842C7
:1034F00005D00D49884202D00C49884204D1816828
:1035000001F00701062903D0016841F001010160C3
:103510000020704700000140000400400008004007
:10352000000C004000040140004001400018004031
:1035300070B5044690F83C000025012817D00126FC
:1035400084F83C60022084F83D002068826822F004
:10355000770222F47F4282600868502838D00DDC60
:1035600020284FD005DC90B3102811D14AE002206A
:1035700070BD302846D040280AD13BE060282FD0CB
:1035800070280DD0B0F5805F03D0B0F5005F12D089
:10359000012584F83D60002084F83C00284670BD79
:1035A000CB68D1E90121206802F063FB20688168C3
:1035B00041F0770109E0CB68D1E90121206802F0F0
:1035C00058FB2068816841F480418160E1E719E09F
:1035D000CA684968206802F021FC5021206806E092
:1035E000CA684968206802F02AFC6021206802F05D
:1035F0004AFBCEE7CA684968206802F00FFC402108
:103600002068F4E7226801461046F0E7704770B57D
:103610000446006801694FF00005C943890715D4C5
:10362000C168C943890711D4E91E016101202077CF
:10363000206880698007204602D0FFF7E7FF04E09A
:1036400000F0DAF8204600F06CF92577206801696F
:10365000C943490717D4C168C943490713D46FF058
:1036600004010161022020772068806910F4407F06
:10367000204602D0FFF7CAFF04E000F0BDF8204664
:1036800000F04FF9257720680169C943090716D46E
:10369000C168C943090712D46FF008010161042011
:1036A00020772068C0698007204602D0FFF7AEFF70
:1036B00004E000F0A1F8204600F033F925772068F7
:1036C0000169C943C90617D4C168C943C90613D4DF
:1036D0006FF010010161082020772068C06910F4A4
:1036E000407F204602D0FFF791FF04E000F084F80D
:1036F000204600F016F9257720680169C943C907FB
:1037000008D1C168C943C90704D1891E0161204697
:1037100000F0AAF920680169C943090609D4C16803
:10372000C943090605D46FF0800101612046FFF707
:10373000FBFD20680169C943490609D4C168C94332
:10374000490605D46FF040010161204600F096F96A
:1037500020680169C94389060BD4C168C943890639
:1037600007D46FF0200101612046BDE87040FFF7EB
:10377000DCBD70BD10B586B0044614216846FCF768
:10378000B9FD2368174C002117480222A34211D12A
:10379000036843F001030360006800F00100059036
:1037A00090020090CDE901210120CDE90310694686
:1037B0000E4813E00E4CA34212D1036843F00203FB
:1037C0000360006800F0020005904FF44070009024
:1037D000CDE90121CDE9031269460648FEF754FC04
:1037E00006B010BD00000140303802400000024029
:1037F0000008004000040240704770B5044690F88D
:103800003C0000260D4601280FD0012084F83C0022
:103810006AB1042A1DD0082A2FD00C2A3FD00126D5
:10382000002084F83C00304670BD022070BD206846
:1038300002F032FA2068816941F008018161206854
:10384000816921F004018161206881692A6911433D
:1038500011E0206802F050FA2068816941F40061AB
:1038600081612068816921F48061816120688169BA
:103870002A6941EA02218161D2E7206802F072FAE6
:103880002068C16941F00801C1612068C16921F067
:103890000401C1612068C1692A69114311E02068EF
:1038A00002F094FA2068C16941F40061C1612068A6
:1038B000C16921F48061C1612068C1692A6941EA56
:1038C0000221C161ACE710B5040003D094F83D00BB
:1038D00010B107E0012010BD002084F83C00204614
:1038E00000F01EF8022084F83D00211D206802F03F
:1038F0004FF9012084F8460084F83E0084F83F0028
:1039000084F8400084F8410084F8420084F84300C1
:1039100084F8440084F8450084F83D00002010BD80
:103920007047704710B50446022249B104290ED0F1
:10393000082913D094F84100012816D0012010BDA9
:1039400094F83E000128F9D184F83E200FE094F865
:103950003F000128F2D184F83F2008E094F84000AD
:103960000128EBD184F8402001E084F841200122B5
:10397000206802F071F916492068164A884201D081
:10398000904203D1436C43F400434364206888426F
:1039900013D0B0F1804F10D00F4988420DD00F499D
:1039A00088420AD00E49884207D0904205D00D497E
:1039B000884202D00C49884204D1816801F0070195
:1039C000062903D0016841F001010160002010BD0B
:1039D00000000140000401400004004000080040D5
:1039E000000C0040004001400018004030B5044683
:1039F0000D460068002202F02FF9194B41F2111117
:103A000020688A10984202D0164B984209D1036A66
:103A10000B4206D1036A134203D1436C23F40043E3
:103A200043642068036A0B4206D1016A114203D144
:103A3000016821F00101016001203DB1042D08D091
:103A4000082D09D084F84100002030BD84F83E00E4
:103A5000FAE784F83F00F7E784F84000F4E7000055
:103A6000000001400004014000680349884201D180
:103A7000FFF7CCB870470000000C0040704718B545
:103A8000034690F84200202801D0022018BD61B101
:103A90005AB10120186300205863184602F00AFB4F
:103AA0000028F3D1196B012901D0012018BD196834
:103AB0000A684968009119680C3151E8002F42F0FA
:103AC000100241E80024002CF5D118BD2DE9F8437F
:103AD00000240546009406F0EFFC06463D492868A0
:103AE0003D4D884248D13D4CE078FCF757FE0746F3
:103AF000A078FCF753FE0821FCF722FD3946FCF7BD
:103B000057FCFCF7A6FE364FDFF8D8803A4643460E
:103B1000FCF7C9FDFCF7C8FE68606079FCF73EFE63
:103B200081462079FCF73AFE0821FCF709FD494659
:103B3000FCF73EFCFCF78DFE3A464346FCF7B3FD2E
:103B4000FCF7B2FEE860E079FCF728FE0746A079B2
:103B5000FCF724FE0821FCF7F3FC3946FCF728FCAF
:103B6000FCF73FFEA86014212046FCF7C3FB14219C
:103B70002046FDF739FA10E01B4988420DD116485E
:103B80000838417801F07F02817862F3DF11296102
:103B900004600471052104F053FC0F4C42F21071D3
:103BA0000C3C2068301A884207D3104800236A462C
:103BB0000949006806F0E0FA26600098002807D05E
:103BC0000B494FF080500860BFF34F8FBFF36F8FEA
:103BD000BDE8F883004C004038000020E0050020DC
:103BE0007B14AE47E17A843F001401401C000020A2
:103BF00004ED00E0084A0168914202D0074A914270
:103C000009D1426C120702D56FF008020A60012246
:103C1000816AFFF734BF7047004C00400014014038
:103C2000F8B5016804460868CA684B6910F00F0FC0
:103C30004FF0000559D003F0010602F490773743A6
:103C400065D0C10705D0D10503D5616C41F00101F4
:103C50006164410705D5D90703D0616C41F00201C9
:103C60006164810705D5D90703D0616C41F0040177
:103C70006164010707D502F02001314303D0616C74
:103C800041F008016164616C00293AD0800604D5D6
:103C9000900602D5204602F01AF920684069616C4E
:103CA000C0F38010090700D460B3204602F0E8F8A2
:103CB00020684069400621D52068143050E8001F74
:103CC00021F0400140E80012002AF5D1E06BA8B1D4
:103CD0006E490165E06BFEF741F8002811D0E06BFA
:103CE000016D01B0BDE8F040084783060FD593068B
:103CF0000DD52046BDE8F84002F0E9B82046FFF7B0
:103D000079FFF8BD2046FFF775FF6564F8BD266BA7
:103D10002023012E7DD1C6067BD5D60679D508682D
:103D20004868009048694FF00206400641D5E16BB3
:103D3000086840680004000CE8D0A28D8242E5D9F2
:103D4000E085C869B0F5807F2DD020680C3050E840
:103D5000001F21F4807140E80012002AF5D120688C
:103D6000143050E8001F21F0010140E80012002A41
:103D7000F5D12068143050E8001F21F0400140E8E0
:103D80000012002AF5D184F84230256320680C30F7
:103D900050E8001F21F0100140E80012002AF5D180
:103DA000E06BFDF792FF6663A08DE18D401A81B252
:103DB0002AE0A08DE18D401A81B2E08D0028A5D0C7
:103DC0000029A3D022680C3252E8000F20F4907032
:103DD00042E80007002FF5D12068143050E8002F8A
:103DE00022F0010240E80027002FF5D184F842308C
:103DF000256320680C3050E8002F22F0100240E8C4
:103E00000023002BF5D166632046FFF75FFEF8BD67
:103E1000FFE705062BD5150629D594F84100212882
:103E2000F5D1A068B0F5805F01D12069B0B1206AFA
:103E3000411C2162216800784860E08C401E00042B
:103E4000000CE084E3D12068C16821F08001C160EA
:103E50002068C16841F04001C160D8E7206A00884D
:103E6000C0F308004860206A801C2062E5E7400635
:103E7000CDD55006CBD5CA68204622F04002CA6094
:103E800084F8413000F06FF9C1E70000715E00086E
:103E900070B5040004D094F84100002510B106E08C
:103EA000012070BD84F84050204600F023F8242003
:103EB00084F841002068C16821F40051C1602046A7
:103EC00002F066F82068016921F4904101612068E0
:103ED000416921F02A0141612068C16841F4005123
:103EE000C1606564202084F8410084F84200656365
:103EF000002070BD2DE9F04387B0044614216846C8
:103F0000FCF7F8F950494F4A276800244E4D103904
:103F1000032302264D484FF0080997421FD12A6813
:103F200042F400222A602A6802F4002205920A68FC
:103F300042F001020A60096802AA01F0010105913C
:103F4000CDE90036012182E80A026946FEF79CF8B5
:103F500000220A213420FEF7F1FE342049E03A4ADB
:103F6000DFF8EC80121D4FF0070C47451DD1156896
:103F700045F010051560126802F0100205920A68FB
:103F800042F001020A600968CDE9024301F0010133
:103F900005914FF4C061CDE90016CDF810C0694617
:103FA000FEF772F807B0BDE8F083DFF8A880474558
:103FB00022D12A6842F400322A602A6802F40032D0
:103FC00005920A6842F001020A600968CDE90243DD
:103FD00001F0010105910C21CDE90016CDF810C0CA
:103FE0006946FEF751F8002205212620FEF7A6FEBD
:103FF0002620FEF795FED5E717488742D2D11068F4
:1040000040F020001060106800F020000590086863
:1040100040F0040008600868CDE9024300F00400A5
:104020000590C020CDE900066946CDF810900B48F8
:10403000FEF72AF8002209214720FEF77FFE4720DD
:10404000D7E70000004C004040380240000002402A
:1040500000100140004400400014014000080240EC
:1040600090F84230202B01D00220704721B11AB1C4
:104070000023036302F01EB80120704730B40368C8
:104080000F48834219D15021EFF3118081F3118839
:10409000BFF34F8FBFF36F8F0A490B4C0A88FF2A7B
:1040A00003D25B68A354521C0A8080F3118890B23B
:1040B000204430BC012105F0ADBE30BC704700008B
:1040C0000044004086000020F42C00202DE9F84335
:1040D000044690F841001F4616460D46202802D09F
:1040E0000220BDE8F8837DB176B100206064212014
:1040F00084F84100FEF712F9A6848046E684A068A1
:10410000B0F5805F02D003E00120EAE7206910B13A
:104110002E4600250EE000260CE08021204601F00E
:10412000E4FFA0B9AEB116F8010B21684860E08C3D
:10413000401EE084E08C43464FF0000200970028C8
:10414000EBD14FF04001204601F0CFFF30B103200A
:10415000C7E735F8020BC0F30800E6E7202084F833
:1041600041000020BDE77047FEE701684A69D2437D
:1041700052050FD46FF480624A61002140F8301F6D
:10418000202242738173026942F0040202610173CA
:1041900001207047002070472DE9F84F0446C06A9F
:1041A0001E4693460D4621680A6842F480620A6002
:1041B000082807D0012805D010F5803F02D0206BD9
:1041C000112804D12068016841F4807101604FF02A
:1041D00001195B46002249462046009600F09EF9F0
:1041E0004FF4007840B120680068C00501D5C4F8DC
:1041F00040800320BDE8F88F2069DFF884A0B0F587
:10420000804F0FD00620216800EAD51747F0F00054
:10421000086133465A460AF10601204600F0C6F905
:1042200058BB03E0E8B240F001001CE02168E8B2AE
:10423000086133465A465146204600F0B7F9E0B9C6
:104240002068416981690091016841F480710160D1
:104250005B46002249462046009600F05FF90028A0
:10426000C1D147F0F1002168086133465A465146F2
:10427000204600F09BF90028BCD00120BAE70000DE
:1042800002000100F8B50446C06A1E460D461746F6
:10429000082807D0012805D010F5803F02D0206BF8
:1042A000122804D12068016841F48071016013462E
:1042B00000224FF001112046009600F02FF940B186
:1042C00020680068C00502D54FF400702064032008
:1042D000F8BD2069B0F5804F0ED00620216800EAB5
:1042E000D51040F0F000086133463A460B492046AD
:1042F00000F05CF978B902E005F0FE0000E0E8B2F9
:1043000021680861054933463A46891F204600F076
:104310004DF90028DCD00120F8BD000008000100A4
:104320002DE9F84F0446006889460B9D01689846C0
:10433000174641F4806101602068016841F4807192
:10434000016000954FF0011B0022594620460A9B50
:1043500000F0E4F84FF4007A40B120680068C0052E
:1043600001D5C4F840A00320BDE8F88F216809F00A
:10437000FE0008612B46284920460A9A00F016F9EB
:10438000F0BB20684169806900902A4620460A995E
:1043900000F0A2F940B1206C04283AD120680168ED
:1043A00041F40071016034E0FEB2B8F1010F09D0B0
:1043B0002168380A08612A4620460A9900F08CF9DB
:1043C0000028E8D1206806612A4620460A9900F0B4
:1043D00083F90028DFD12068016841F48071016011
:1043E00000950022594620460A9B00F097F80028C5
:1043F000B3D1216809F0FF0040F00100086100E03E
:1044000007E02B46044920460A9A00F0CFF800281E
:10441000AAD00120A8E70000020001002DE9F8431E
:10442000044600680D46DDE908970168984616467F
:1044300041F4807101604B4600224FF0011120468B
:10444000009700F06BF848B120680068C00502D5FD
:104450004FF4007020640320BDE8F883216805F064
:10446000FE0008613B464A461549204600F09EF88A
:1044700088B920684169806900903A4649462046DB
:1044800000F02AF948B1206C042804D120680168A2
:1044900041F4007101600120DEE7F5B2B8F1010FCF
:1044A00009D02168300A08613A464946204600F0A2
:1044B00013F90028E7D1206805610020CCE700004F
:1044C0000200010070B516460D4604461EE0204667
:1044D000FFF74BFE08B1012070BD681C16D0FDF738
:1044E0001DFF801BA84200D885B920684069C043E1
:1044F00040070BD5002044F8300F20216173A073D2
:10450000216941F0200121612073E4E720684069BE
:10451000C0434007DBD4002070BD00002DE9F04708
:10452000984617460D460446C1F30746DDF820902D
:104530002AE000BFB8F1FF3F26D0FDF7EFFEA0EB69
:104540000901414502D8B8F1000F1DD12068012EA4
:1045500016D0806925EA00000004000C12D000206B
:10456000B84211D1002044F8300F20216173A073AC
:10457000216941F02001216120730120BDE8F0870D
:104580004069E7E70120EBE72068012E0AD0806947
:1045900025EA00000004000C06D00020B842C9D073
:1045A0000020EBE74069F3E70120F7E72DE9F0474A
:1045B000984616460D4604464FF000094FF0200A73
:1045C000C1F3074723E020684069C043400515D484
:1045D0002068016841F40071016021686FF4806017
:1045E0004861C4F8309084F83DA084F83E90216C76
:1045F00041F00401216484F83C9021E0701C06D055
:10460000FDF78CFEA0EB0800B04203D816B1012FD5
:104610001FD021E02068012F15D0806925EA000015
:104620000004000C18D000BF44F8309F84F80DA09F
:1046300084F80E90216941F02001216184F80C90EA
:104640000120BDE8F087406925EA00000004000C65
:10465000EAD12068406901E02068806925EA00000D
:104660000004000CAFD1ECE72DE9F04100259046A5
:104670000E460446202728E04069C043C0060CD4FB
:1046800054F8301B6FF01000486144F810596777F8
:10469000A577206A2062257714E0FDF73FFEA0EBA6
:1046A0000800B04200D886B920684069C04340067F
:1046B0000BD544F8305F6773A573206940F0200084
:1046C000206125730120BDE8F08120684169C9435C
:1046D0004906D1D40020F6E770B516460D460446CB
:1046E0001EE02046FFF741FD08B1012070BD681CA7
:1046F00016D0FDF713FE801BA84200D885B92068AC
:104700004069C04300060BD5002044F8300F20213B
:104710006173A073216941F0200121612073E4E7F6
:1047200020684069C0430006DBD4002070BD10B58E
:104730000021042002F0EDFD0021052002F0E9FD3A
:104740000021BDE81040062002F0E3BDFFB581B0B6
:104750001E46174604464FF0FF350146012302AAC4
:1047600006480095FDF79EFF44F0010133463A46A6
:1047700002480095FDF79EFE05B0F0BD88030020BD
:1047800077B581B0164604464FF0FF350146012348
:1047900002AA06480095FDF785FF44F001010123B8
:1047A000324602480095FDF785FE7FBD8803002054
:1047B0001CB502238DF804104FF0FF3100918DF8E5
:1047C0000520014601AA0248FDF76CFF1CBD000050
:1047D0008803002010B500F02EF8C021022002F05E
:1047E00098FD0021032002F094FD0021042002F036
:1047F00090FD0021052002F08CFD0021062002F032
:1048000088FD0F21082002F084FD0321092002F019
:1048100080FD27210A2002F07CFD24210C2002F0DB
:1048200078FD24210D2002F074FD7F21BDE81040A9
:10483000102002F06EBD10B54021092002F069FD84
:104840004021BDE81040092002F063BD10B50446C8
:10485000007B012802D1206802F0BAFB0020206012
:104860006060A060207310BD5FF0010200F07F0364
:104870000B70C00909D043F08003521C01F8013BC2
:10488000042AF3DD4FF0FF307047104670472DE9E2
:10489000F0410446002500680F462E4610B1022064
:1048A000207315E001202073084602F0F3FC20601D
:1048B000002808D0C4E9016702E0206846556D1C55
:1048C000A068A842F9D8BDE8F081206846556D1C63
:1048D000A068A842F9D866608842F4D22660F2E760
:1048E0002DE9FF5F9A46934600251046DDF8449077
:1048F0000E9F139CFBF725FD06B2BBF1000F1FD0E6
:1049000006F111001FFA80F807B10225109868B16E
:1049100045F00405FBF715FDC7B24846FBF711FD4E
:10492000C11901EB0800001D1FFA80F80F9870B143
:10493000012807D0022808D0022004B0BDE8F09F6B
:104940000120FAE745F00C0501E045F01405129846
:1049500008B145F02405009860B3019850B345F0C4
:10496000C0070098FBF7EDFC05460198FBF7E9FC52
:10497000291801EB0800001D85B229462046FFF7E3
:1049800086FF2068C0B12946FBF7B4FCD4E90030AB
:10499000411C102261601A54D4E900010144681FCF
:1049A000FFF762FF00B2002808DA2046FFF74EFF4B
:1049B0000520C2E70320C0E70420BEE76168236842
:1049C0000844411C616000221A54D4E90030421CA2
:1049D000042162601954D4E90050421C4D236260E6
:1049E0002B54D4E90050421C626051232B54D4E96B
:1049F0000030451C542265601A54D4E90050431C11
:104A000063602A54D4E90030421C62601954D4E92E
:104A10000020411C61601754D4E90030411C4FEA6A
:104A20001A2261601A54D4E90030421C626003F813
:104A300000A0D4E90030411C320A61601A54D4E964
:104A40000020411C61601654D4E90001084432463C
:104A50005946FBF77DFC606830446060780736D5C6
:104A6000B9F1000F01D10FF2D8091098FBF769FCDA
:104A700085B2D4E90030411C2A0A61601A54D4E995
:104A80000020411C61601554D4E9000108442A4605
:104A90001099FBF75DFC6068284460604846FBF7AE
:104AA00050FC85B2D4E90030411C2A0A61601A54D6
:104AB000D4E90020411C61601554D4E90001084488
:104AC0002A464946FBF744FC606828446060380683
:104AD00018D50098FBF735FC85B2D4E90030411CAD
:104AE0002A0A61601A54D4E90020411C61601554FF
:104AF000D4E9000108442A460099FBF729FC6068C4
:104B000028446060780618D50198FBF71AFC85B236
:104B1000D4E90030411C2A0A61601A54D4E900200B
:104B2000411C61601554D4E9000108442A460199EA
:104B3000FBF70EFC6068284460600020FDE6000082
:104B4000000000002DE9FF4F81B090464FF00006B5
:104B5000119C0F9A9A465FEA000BB146314608D184
:104B6000012005B0BDE8F08F232816D02B2814D0E3
:104B7000761C0298805D0028F6D141F030070AB11A
:104B800047F0010706EB0A050E98AD1C68B1012835
:104B900005D0022806D00320E3E70220E1E747F032
:104BA000020701E047F00407AD1CB8F1000F03D085
:104BB00098F80000022807D0691D2046FFF767FE1D
:104BC000206850B3691D14E05FF0000018F8001071
:104BD000401C7D29FAD100F10409AAEB0900291A29
:104BE00000912046C91CFFF752FE2068A8B1009929
:104BF000C91CFBF77FFBD4E90020411C61601754FE
:104C0000D4E9000101442846FFF72EFE002806DA09
:104C10002046FFF71BFE0520A3E70420A1E76168FB
:104C200023680844411C320A61601A54D4E9002008
:104C3000411C61601654D4E90001084432460299CF
:104C4000FBF786FB6068304460600E9959B12368B9
:104C5000411C4FEA1B2261601A54D4E90030421C07
:104C6000626003F800B0B8F1000F0ED098F80000B1
:104C70000228D4E90001084409D052464146FBF716
:104C800020FB616801EB0A006060002069E74A468A
:104C90004146FBF716FB616801EB0900F4E770B5CC
:104CA0000C46054604212046FFF7F1FD2168B9B105
:104CB00060687023421C62600B54D4E90030411CD0
:104CC000022261601A54D4E90030411C2A0A616052
:104CD0001A54D4E90020411C61601554002070BDB5
:104CE000012070BD70B50C46054604212046FFF733
:104CF000CEFD2168B9B160686223421C62600B542A
:104D0000D4E90030411C022261601A54D4E9003019
:104D1000411C2A0A61601A54D4E90020411C6160D8
:104D20001554002070BD012070BD2DE9F0474FF0F3
:104D30000008089C1F4691468A46060045460AD14F
:104D40000120BDE8F08759F8250020B3FBF7F9FAF8
:104D50006D1C8044EDB2BD42F5D307EB470101EB7A
:104D60000805E91D2046AD1CFFF791FD2168A1B1A2
:104D700060688222431C63600A54D4E90001014444
:104D80002846FFF771FD00B2002808DA2046FFF739
:104D90005DFD0420D5E70220D3E70320D1E7616859
:104DA00023680844411C320A61601A54D4E9002087
:104DB000411C61601654002520E059F82500FBF7DE
:104DC000C0FA0646020AD4E90030411C61601A5458
:104DD000D4E900314A1C62605E54D4E90001084401
:104DE00059F825103246FBF7B3FA6068236830445F
:104DF000411C61606D1C03F800A0EDB2BD42DCD324
:104E000000209EE7F0B50446002001235D051060F8
:104E100012E0275C166807F07F0707FB0366166041
:104E2000265C360601D4401CF0BDDB01AB4202D348
:104E30006FF00100F0BD401C8842EADB4FF0FF300C
:104E4000F0BD2DE9F8430E4607461D4690462F213A
:104E5000801DFBF76CFA0021009150B3441C6A4698
:104E60000421781CFFF7CEFF252002F013FA3060F2
:104E700008B32521FBF73EFA242221463068FBF7D0
:104E800020FA009824342C3880B22880401C02F08C
:104E900001FAC8F8000080B12988491CFBF72AFAFA
:104EA0002A882146D8F80000FBF70BFA0020BDE85D
:104EB000F8830120FBE70220F9E7306802F088F868
:104EC0000320F4E74178022901D00120704781785E
:104ED00019B1012901D0FF207047C0787047000048
:104EE0002DE9F84F04460078DDE90A7B00F00F0950
:104EF00000200E460090C9F3410115468BF80010C2
:104F0000984609F0080A6A460421601CFFF77AFFF8
:104F100004440098641C022843D35FEAC97040D15E
:104F2000208840BA28800099801C88427AD83EA107
:104F3000A01CFBF7EAF910B10F20BDE8F88F9BF831
:104F4000000020B101282DD002286BD12AE0BAF14F
:104F5000000F67D12888401C02F09CF930600028BF
:104F600060D02988491CFBF7C5F92A88A11C306844
:104F7000FBF7A7F928880099081A801E80B23880AC
:104F8000401C02F087F9C8F8000038B13988491C84
:104F9000FBF7B0F93A882888A41C33E0306802F0A7
:104FA00017F83FE02888009A811C91423AD8A11C4A
:104FB00008440C99008840BA08800C9890B328885F
:104FC000401C02F067F9306060B32988491CFBF788
:104FD00091F92A88A11C3068FBF773F92888009999
:104FE000081A001F80B23880401C02F053F9C8F83C
:104FF00000000028D2D03988491CFBF77BF93A8899
:105000002888241D0119D8F80000FBF75AF92B2134
:105010003046FBF78CF928B923213046FBF787F996
:1050200000288AD0FF2088E72463726571000000A1
:105030004178022904D1817811B9C0780A2801D0B9
:1050400001207047002070474178022904D18178FF
:1050500011B9C0780A2801D001207047002070479C
:105060004178022904D1817811B9C0780A2801D089
:1050700001207047002070474278022A09D18278C7
:10508000B2EB112F05D1C078C9B2884201D10020FE
:10509000704701207047000038B504460078FF21B2
:1050A0000009421E0E2A01D3084638BD0328FCD150
:1050B000002000906A460421601CFFF7A3FE2044F4
:1050C0000099401C022907D32278D20704D1028814
:1050D00052BA921C8A4201D9FF2038BD04A1801C1B
:1050E000FBF713F908B10F2038BD032038BD0000CD
:1050F00024637265710000000146FF208A78002A4F
:105100000BD1CA78142A08D1087938B1012805D002
:10511000022803D0802803D0022070470020704767
:1051200001207047827801211AB9C0781E2800D169
:1051300000210846704700001FB500211548009166
:1051400001910291124A0391C0E9002101240461F6
:105150008160047680F820100F4AC0E90A21C461FA
:10516000C16080F830104461FCF77FFC08B1FCF7A7
:10517000CFFB0720CDE900040620029069460548D0
:10518000FCF7C8FB002801D0FCF7C2FB1FBD0000E4
:10519000002001408C0200200100000F094808B5E2
:1051A000016841F4800101600068002200F4800081
:1051B000009005213820FDF7C1FDBDE808403820EA
:1051C000FDF7AEBD3038024010B5044A0021044856
:1051D00002F032FE0349886210BD00000CA80008EE
:1051E000A159000800000020F0B587B014216846DE
:1051F000FBF780F827480024016841F08001016036
:10520000016801F080010591016841F0040101602D
:10521000016801F004010591016841F0010101609C
:10522000016801F001010591016841F0020101608E
:105230000068194E00F00200059000220721304658
:10524000FDF766F8154F002210213846FDF760F88B
:10525000012260213846FDF75BF807200090012508
:10526000CDE90154694630460394FCF70DFF7020E8
:105270000090CDE90154694638460394FCF704FFD9
:1052800002208DE8310069460548FCF7FDFE07B0B5
:10529000F0BD00003038024000080240000002402B
:1052A000000402400D4810B50B4901600C494160F3
:1052B00000214FF480428160C0E9031241618161A5
:1052C000C1610162FDF732F8002803D0BDE810404B
:1052D000FCF71EBB10BD000000540040340300204A
:1052E000A08601000D4810B50B4901600C494160D2
:1052F00000214FF480428160C0E903124161816165
:10530000C1610162FDF712F8002803D0BDE810402A
:10531000FCF7FEBA10BD00000058004088030020D2
:10532000A0860100094810B50749016005214160C8
:1053300040F6C3118160FDF735FC002803D0BDE8BD
:105340001040FCF7E5BA10BD00300040DC0300203F
:1053500010B596B000240F941094119412941394E5
:105360001C2108A81494FAF7C5FF20216846FAF713
:10537000C1FF2A48284901607721C0E9011444F699
:105380001F61C1604FF48071C0E904148461FEF7AD
:105390003FF808B1FCF7BCFA4FF480500F900FA90A
:1053A0001E48FEF7C5F808B1FCF7B2FA1B48FEF735
:1053B0008AFA08B1FCF7ACFA139413A917481494AD
:1053C000FDF7DEFF08B1FCF7A3FA6020089040F279
:1053D000DC50CDE909040C940D940C2208A90F4867
:1053E0000E94FEF70AFA08B1FCF792FA00944FF413
:1053F0000050CDE9044002940194039469460748A3
:105400000794FDF793FF08B1FCF782FA0348FEF713
:10541000B1F916B010BD000000000140E803002003
:1054200010B58EB000240794089409940A940B9444
:105430001C2168460C94FAF75DFF2348214901605E
:105440000421C0E901146321C1604FF480718461BB
:105450000161FDF7DDFF08B1FCF75AFA4FF4805007
:10546000079007A91848FEF763F808B1FCF750FA4F
:105470001548FEF728FA08B1FCF74AFA0B940BA975
:1054800011480C94FDF77CFF08B1FCF741FA60204D
:10549000CDE900040294082269460B480494FEF703
:1054A000ACF908B1FCF734FA0C2269460648FEF75D
:1054B000A4F908B1FCF72CFA0348FEF75BF90EB02B
:1054C00010BD000000080040300400200C4810B55A
:1054D0000A4901604FF416514160002181600422A5
:1054E000C160C0E904128161C161FEF7D1FC0028EE
:1054F00003D0BDE81040FCF70BBA10BD004C0040D3
:10550000780400200C4810B50A4901604FF4E131DD
:105510004160002181600C22C160C0E904128161F8
:10552000C161FEF7B5FC002803D0BDE81040FCF7D0
:10553000EFB910BD00100140C00400200C4810B5A8
:105540000A4901604FF4E1314160002181600C2281
:10555000C160C0E904128161C161FEF799FC0028B5
:1055600003D0BDE81040FCF7D3B910BD00440040A3
:10557000080500200C4810B50A4901604FF4165187
:105580004160002181600422C160C0E90412816190
:10559000C161FEF77DFC002803D0BDE81040FCF798
:1055A000B7B910BD0014014050050020FEE7FEE72A
:1055B00070B5002404F1B000C0B200F0CDF90020B5
:1055C00000F0CAF9102000F0C7F90025002000F013
:1055D000D5F96D1CEDB2802DF8D3641CE4B2082C13
:1055E000E8D370BD2DE9F05F9846DDE90A9A1746C9
:1055F000834600240D4615E02946584600F026F85B
:105600005E460BE019F80400BAF1000F01D0C04368
:10561000C0B2641C00F0B2F9761CF6B2BE42F1D3FF
:105620006D1CEDB24545E7D3BDE8F09F70B5C820CD
:10563000FCF718FD044D0024285D00F08DF9641C72
:10564000E4B2172CF8D370BD8A00002010B50446D0
:10565000B031C8B200F080F9102040EA141000F018
:105660007BF904F00F00BDE8104000F075B90000B0
:105670002DE9F0411E4615460F4680460024FFF7EF
:10568000E5FF114800EB8515285D0EB1C043C0B29F
:1056900000F074F9641CE4B2102CF5D37F1CF9B24D
:1056A0004046FFF7D3FF002405EB040090F82000EC
:1056B0000EB1C043C0B200F061F9641CE4B2102C1A
:1056C000F2D3BDE8F08100006EB100082DE9F0478B
:1056D000203A0024089E0F468146D5B27F2803D980
:1056E00000208F1C8146FFB2102B394612D0FFF7E5
:1056F000ADFF1B4905EB450001EB4005285D0EB1F0
:10570000C043C0B200F03AF9641CE4B2062CF5D3F1
:10571000BDE8F087FFF79AFFDFF8488004EB05113A
:1057200018F801000EB1C043C0B200F027F9641CA4
:10573000E4B2082CF2D37F1CF9B24846FFF786FF8B
:105740000024474604EB05103844007A0EB1C043EC
:10575000C0B200F013F9641CE4B2082CF2D3D7E70E
:1057600066A900088EAB00082DE9FF4F81B0002626
:10577000DDE90EA91D469346804634464FEA5A0796
:1057800027E0281B401EC1B20A2002F011FBBBFB20
:10579000F0F00A21B0FBF1F201FB120026B9691EFC
:1057A0008C4201DA48B101263030C2B207FB0480D6
:1057B000C0B25346CDF8009006E007FB0480C0B2AB
:1057C00053462022CDF800900299FFF77FFF641C1A
:1057D000E4B2AC42D5D305B0BDE8F08F2DE9F84373
:1057E0001E461746894604460025DDF8208014E051
:1057F000334649462046CDF80080FFF767FF0C2E60
:1058000010D00834E4B27A2C01D90C2E0CD0782CAC
:1058100001D9102E08D06D1CEDB27A5D002AE7D1B7
:10582000BDE8F883A41DEDE709F10100002400F0B4
:10583000FF09F0E72DE9FF4F83B08146DDF840B066
:10584000129F1C4690464FF0000A104612F1FF4F7F
:1058500006D35C1C88F00040E4B24FF0010A804699
:10586000FAF7BFFF019011980025460828E0601B59
:10587000401EC1B20A2002F09BFA0199B1FBF0F17F
:105880000A20B1FBF0F200FB1210029929B9611E47
:105890008D4202DA48B1012102913030C2B206FBDA
:1058A0000590C0B20097119B05E006FB0590119B87
:1058B000C0B2009720220499FFF708FF6D1CEDB2DB
:1058C000A542D4D306FB0490C0B200972E22119BB0
:1058D0000499FFF7FBFE59460A2002F069FAFAF72D
:1058E0005DFF05460198FAF750FF4146FAF7B5FD0E
:1058F0002946FAF7B5FDFAF774FF804600251CE04B
:10590000ABEB0500401EC1B20A2002F051FAB8FB11
:10591000F0F10A20B1FBF0F200FB12112A1909F193
:10592000050006FB02003031CAB2C0B20097119BDD
:105930000499FFF7CBFE6D1CEDB25D45E0D3BAF1E3
:10594000000F06D000972D224846119B0499FFF7BF
:10595000BDFE07B0BDE8F08F01B584B001214FF462
:10596000807204A88DE807000B46002278210248C7
:10597000FDF72AF805B000BD3403002001B584B05E
:1059800001214FF4807204A88DE807000B464022E5
:1059900078210248FDF718F805B000BD3403002057
:1059A0007CB514210022084604F09AFA2E4C0322FA
:1059B0000021E061012004F093FA2062032200211B
:1059C000012004F08DFA606221461B20CDE9000120
:1059D00000234FF4806225A1294804F001FD201D19
:1059E0001825CDE900504FF480760023324625A1DA
:1059F000274804F0F5FC04F10800CDE9005000232D
:105A0000324624A1264804F0EBFCE0680023CDE9EF
:105A10000050324623A1264804F0E2FC206900230E
:105A2000CDE90050324623A1254804F0D9FC606935
:105A30000023CDE9005075002A4622A1254804F034
:105A4000CFFCA1691A20CDE9000100232A4622A13A
:105A5000254804F0C5FC642004F022F8BDE87C4031
:105A6000002004F043B80000000000206D71747441
:105A70005F73656E645F636F6E6E656374000000D4
:105A8000C97B000861687432305F7461736B000019
:105A9000F16C00086169725F7461736B0000000053
:105AA000756D00086C6D323930345F7461736B0052
:105AB000C570000867793930365F7461736B000018
:105AC00021700008726576446174615F7461736B64
:105AD00000000000AD7B00086D617833303130325A
